:020000040800F2
:10000000800800201103000855400008A93C0008A2
:1000100051400008A51500085D4C000800000000D4
:10002000000000000000000000000000C9400008BF
:100030005117000800000000C540000841430008B7
:100040002B0300082B0300082B0300082B030008D8
:100050002B0300082B0300082B0300082B030008C8
:100060002B0300082B0300082B0300082B030008B8
:100070002B0300082B030008A91500082B03000818
:100080002B0300082B0300082B0300082B03000898
:100090002B0300082B0300082B0300082B03000888
:1000A0002B0300082B0300082B0300082B03000878
:1000B000294400082B0300082B0300082B03000829
:1000C0002B0300082B0300082B0300082B03000858
:1000D0002B0300082B0300082B0300084D4C0008DD
:1000E0002B0300082B0300082B0300082B03000838
:1000F0002B0300082B0300082B0300082B03000828
:100100002B0300082B0300082B0300082B03000817
:100110002B0300082B0300082B0300082B03000807
:100120002B0300082B0300082B0300082B030008F7
:100130002B03000800000000000000002B03000853
:100140002B0300082B0300082B0300082B030008D7
:100150002B0300082B0300082B0300082B030008C7
:100160002B0300082B0300082B0300082B030008B7
:100170002B0300082B0300082B03000800000000DD
:10018000000000002B030008000000000000000039
:100190002B03000800000000000000002B030008F3
:1001A0000000000000000000000000002B03000819
:1001B0002B0300082B0300082B0300082B03000867
:1001C0002B03000800F002F800F092F80AA090E873
:1001D000000C82448344AAF10107DA4501D100F002
:1001E00087F8AFF2090EBAE80F0013F0010F18BF3D
:1001F000FB1A43F001031847C4550000E455000002
:10020000103A24BF78C878C1FAD8520724BF30C842
:1002100030C144BF04680C60704700000023002414
:1002200000250026103A28BF78C1FBD8520728BF06
:1002300030C148BF0B6070476E2900F0E58170291E
:1002400000F02F83662905F0DE81652905F0DB814A
:10025000672905F0D881612905F0D78103681B0A59
:1002600028BF41F08001692900F09281642900F0E3
:100270008F81752900F08C816F2900F0BD8278296B
:1002800000F0FB82E92900F05782E42900F0548253
:10029000F52900F05182EF2900F0BA82F82900F028
:1002A000FA820368DB0928BF41F08001632900F06E
:1002B000FB87732901F00080E32901F00B80F3290B
:1002C00001F01080002070471FB505F08FF901F094
:1002D0005FF804000020002105F072F9401C606006
:1002E0000020002105F056F9E0601FBD10B510BDDB
:1002F00001F020F81146FFF7E7FF04F011FD01F0CF
:10030000FDF803B4FFF7F2FF03BC01F043F900006E
:100310000948804709480047FEE7FEE7FEE7FEE799
:10032000FEE7FEE7FEE7FEE7FEE7FEE704480549D5
:10033000054A064B7047000015440008C501000837
:10034000800200208008002080040020800400201B
:1003500053EA020C00F069802DE9F04B4FF00006E3
:10036000002B1FBFB3FA83F503FA05F424FA05F650
:100370005E4012BF1643B2FA82F502FA05F4C5F1E7
:1003800020051EBF22FA05FC44EA0C04203556EA7B
:10039000044C4FEA144418BF641C4FF000084FF09F
:1003A0000009904271EB030C39D3002919BFB1FA4F
:1003B00081F701FA07F6B0FA80F700FA07F6C7F1FD
:1003C00020071EBF20FA07FC46EA0C062037B6FBC2
:1003D000F4FCA7EB0507103F07F01F0BCBF120063D
:1003E0002CFA06F60CFA0BFB44BFB3460026202F6E
:1003F000A4BF5E464FF0000B5BEA060C08BF4FF04F
:10040000010B19EB0B0948EB0608ABFB027C06FB62
:1004100002CC0BFB03CCC01B71EB0C01C1E70B46FC
:10042000024641464846BDE8F08B13B5084318BF65
:100430004FF0FF300146AFF30080BDE81C4070472D
:100440000FB47CB50C0009AA009001D02044401ED6
:10045000084B7B4469460190089800F0EEF8054689
:100460001CB10020694600F0FBF828467CBC5DF812
:1004700014FB0000150200004FF0000200B5134607
:1004800094469646203922BFA0E80C50A0E80C50B4
:10049000B1F12001BFF4F7AF090728BFA0E80C5065
:1004A00048BF0CC05DF804EB890028BF40F8042B5E
:1004B00008BF704748BF20F8022B11F0804F18BFCB
:1004C00000F8012B704770477047704770B50446BD
:1004D00085690068C10601D5302600E02026C007E6
:1004E00007D070BDD4E9012130469047206A401CF6
:1004F00020626D1EF6D570BD70B504468569007822
:10050000C00707D170BDD4E9012120209047206A9F
:10051000401C20626D1EF6D570BD09684A0501D5E4
:1005200040B27047C905FCD500B2704709684A055A
:1005300001D5C0B27047C905FCD580B2704770B50F
:100540000C460546012A05D02878800600D5EA69C0
:10055000002302E0012305E05B1C934202D2E05C31
:100560000028F9D1A869E618C01AA861286A1844B9
:1005700028622846FFF7AAFF04E0D5E9012114F814
:10058000010B9047B442F8D32846FFF7B5FF70BD82
:100590002DE9F0410646002410687529314616A55C
:1005A00010D0FFF7BAFF002802DA404213A507E097
:1005B00031688A0701D512A502E0490704D511A5C3
:1005C000012401E0FFF7B2FF00210A2206F124070F
:1005D00009E0B0FBF2FCB0FBF2F302FB1C00303090
:1005E00078541846491C0028F3D123462A46304641
:1005F000BDE8F04100F069BA000000002D000000E5
:100600002B0000002000000011680268006A5305FA
:1006100001D508700AE0D30501D5088006E013066D
:1006200003D5C217C1E9000200E00860012070474D
:1006300001694A1C02610878704700B58FB0CDE9A6
:1006400001310021059105497944CDE90310114696
:10065000684600F031F90FB000BD0000E5FFFFFF74
:100660000A6802F8010B0A607047D1E900239A4238
:1006700002D2531C0B601070704700002DE9FF5F21
:1006800015468A460446DFF8AC80F8440027D8E9CE
:1006900000103E46CDE9001010E03AF816106A4608
:1006A00002A800F023FE411C07D02178890603D55B
:1006B000E269391891420DD80744761C20788006EB
:1006C00002D5E069B84205DDAE42E6DB3AF8160035
:1006D0000028E2D1A069C01BA0612046FFF7F6FE0A
:1006E000D8E90010CDE90010002017E03AF8181002
:1006F0006A4602A800F0FAFDB0F1FF3F81460BD038
:1007000000250DF1080B05E0D4E901211BF80500D7
:1007100090476D1C4D45F7D308F10100B04280466B
:10072000E4DB206A384420622046FFF7E5FEBDE89E
:10073000FF9F0000824F00002DE9F0418046D21D4E
:1007400022F007020025D2E90002F52915A614D0EF
:10075000011E72F1000106DA0023D0EB030063EB07
:10076000020211A608E0D8F800108B0701D50FA6E9
:1007700002E0490701D50EA601251146002408F123
:10078000240704E000F05CF930323A55641C50EA6A
:100790000102F7D12B46324621464046BDE8F041E2
:1007A00000F093B9000000002D0000002B000000B5
:1007B0002000000030B4002100F1240408E002F021
:1007C0000705D208303542EA4372DB086554491CFC
:1007D00052EA0305F3D10468002310A2250708D5C7
:1007E00004F020040C4304D0C46901230CA2641E4D
:1007F000C46130BC00F069B910B5044621461068E8
:10080000FFF794FE02462046BDE810400023D1E7E2
:10081000D21D22F00701D1E90023CBE70000000040
:1008200030000000F0B40D460188090502D5214CC6
:100830007C4402E01F4C7C440E34002100F124066D
:1008400008E002F00F071209E75D42EA03721B0994
:100850007754491C52EA0307F3D1027800231207A8
:1008600004D5702D06D009B1022311342246F0BC04
:1008700000F02BB901231034F8E770B504460D469B
:1008800021461068FFF752FE024629462046BDE881
:1008900070400023C6E7D21D22F00703D3E90023EE
:1008A000C0E70368126843F0200303600823C361B4
:1008B0000023B7E7E44D00002DE9F05F89460446C8
:1008C0004FF0000ADFF874B1FB44C0F820A02046C6
:1008D000E1688847002874D0252806D0D4E9012192
:1008E0009047206A401C2062F1E700265F462046C0
:1008F000E16888472028054607DB312D05D27819A5
:1009000010F8200C08B10643F1E7B00701D526F036
:100910000406C4F81CA00027C4F818A02A2D09D08A
:10092000284604F02FFE38B304EB8708303DC8F8A2
:10093000185019E059F8041B204604EB8702916116
:10094000E1688847012F054618D1E069002820DAC0
:1009500026F020061DE0D8F8180000EB800005EB1B
:1009600040003038C8F818002046E168884705463E
:1009700004F008FE0028EED1012F0AD02E2D08D158
:100980002046E16888477F1C0546022F46F0200676
:10099000C4DBA069002803DA404246F00106A061EA
:1009A000F00701D026F010066C2D0BD0682D09D071
:1009B0004C2D39D06A2D35D0742D35D07A2D33D0C9
:1009C00016E038E0E1682F4620468847B8420546E1
:1009D00009D16C2F26D04FF48060E1680643204691
:1009E0008847054604E06C2F1AD04FF48070064308
:1009F0000DB3A5F14100192802D8203546F4006650
:100A00004A462946204626604E46FFF715FC80B12F
:100A100001280BD0F61D26F0070000F1080956E763
:100A20004020E4E78020D8E70020D6E706F104095B
:100A30004DE7284652E7206ABDE8F09F744D00005C
:100A400030B5B0F10A0271F100034FEA900E4EEAA0
:100A5000817EB0EB0E0061EB91014FEA101E4EEA71
:100A6000017E10EB0E0041EB11114FEA102E4EEA01
:100A7000016E10EB0E0041EB11214FEA104E4EEAD1
:100A8000014E10EB0E0041EB1141401841F1000105
:100A90004FEAD00040EA41704FEAD1014FEA8104A9
:100AA00044EA907410EB800544EB01046D1944EBAB
:100AB0000404521BA3414FF0000348BF0A3200D583
:100AC00030BD401C41F1000130BD2DE9F0470D461D
:100AD00099469246044600F124080168880604D528
:100AE000E06921F01001216000E00120A84201DD51
:100AF000471B00E00027A1697A1902EB0900081AD8
:100B0000A0612078C00602D42046FFF7DFFC002653
:100B100008E0D4E901211AF806009047206A401C39
:100B2000761C20624E45F4DB2078C0060AD52046AC
:100B3000FFF7CCFC06E0D4E9012130209047206A81
:100B4000401C2062381EA7F10107F4DC07E0D4E95D
:100B5000012118F805009047206A401C2062281ED9
:100B6000A5F10105F3DC2046FFF7C6FC207800065E
:100B700002D50220BDE8F0870120FBE72DE9FF4FF9
:100B80000C461E464FF0FF378BB0D2E90001DDF86E
:100B900060800A908A46C1F30A5505B93D46002196
:100BA00008464FF00000BAF1000F00F4400005DAEB
:100BB00000EB80004FF4400101EA50004FEA9059E9
:100BC000B9F1010F00DDB9460A9850EA4A000ED08B
:100BD00044F61050A5F2FF3545432F14B8F1000F2D
:100BE0001ED07542291E1EDDC9F100021CE0B8F1BD
:100BF000010F4FF0000001D0302103E0F24305E087
:100C00002154401CB042FBDB30460022002121541D
:100C10000B99C1F80880C1E900200FB0BDE8F08F42
:100C2000BD1B6D1CDEE74A4600DA694206A800F0EB
:100C3000F3FB06AB93E8070003AB83E807005046DD
:100C40000A9904F0BFF88DE80700A0F500501F389E
:100C500000900398002D0ADD42F21F014A46084425
:100C6000002303A90390684604F028FB09E0A0F5DF
:100C700000504A461F38002303A90390684604F039
:100C800032FB8DE807000004000C03D04FF0FF306A
:100C9000410800E01046B8F1000F03D00022009296
:100CA00015461EE0751E05D4FFF7CAFE30326255A8
:100CB0006D1EF9D5B3460122084302D000227F1CE5
:100CC00004E02078302801D100227F1E002A0997F5
:100CD00084D01DE0112D07DAFFF7B2FE30326255E5
:100CE0006D1C50EA0102F5D1084302D00098C8B14A
:100CF0000EE00021681E05E0235C625C6354225410
:100D0000401E491C8142F7DBAB46A81B401E0990E0
:100D1000002004F80B000B98099AC0F80880C0E97D
:100D2000002B7AE711264FF0000857E72DE9F04F26
:100D300088460446D21D22F0070191B0D1E9000196
:100D4000CDE90A0104F006FC02460B98C00F01D061
:100D50002D2007E02068810701D52B2002E020210B
:100D600001EAC000032A099001D0072A05DB0346E7
:100D70004146204600F010FB0BE12078800601D5AB
:100D8000E06900E00620B8F1650F814606D0B8F1B1
:100D9000660F18D0B8F1670F70D131E00020B9F1BB
:100DA000110F009001DB112301E009F101030AAAF0
:100DB00001A90CA8FFF7E2FEDDE90C70002609F19D
:100DC0000105834647E001204B4600904FF0004765
:100DD0000AAA01A90CA8FFF7D1FEDDE90DB00C9914
:100DE0005D46002610B909F101000D18B9EB0500A8
:100DF00003D4C0F1FF3609F10105A5EB09002BE092
:100E0000B9F1010F01DA4FF001090020B9F1110F1A
:100E10000090484601DD112300E003460AAA01A91B
:100E20000CA8FFF7ABFEDDE90C704D4600268346AB
:100E3000207800070AD4AB4500DA5D4601A8012DF1
:100E400004DD411911F8011C302907D04F4502DAA1
:100E500017F1040F04DA012082460FE06D1EEEE761
:100E6000002F02DCED1B3E4403E0781CA84200DDAD
:100E70007D1CB81B00F1010A4FF0004720780007E5
:100E800003D4AA4501DB4FF0FF3A0021B7F1004F30
:100E90000DF143088DF8431024D002202B23002F9E
:100EA00001DA7F422D230A21021EA0F1010000DC9D
:100EB0005FB197FBF1FC97FBF1F201FB1C7C17463D
:100EC0000CF1300C08F801CDEEE7A8F10100037039
:100ED0002188090501D5452100E06521A0F101081F
:100EE00000F8011C09980FA9A1EB0807FF1D00B12C
:100EF0000120411901EBEA70A1693844081A401E2B
:100F0000A0612078C00602D42046FFF7DFFA0998D6
:100F100028B1D4E901219047206A401C2062207842
:100F2000C00622D52046FFF7D1FA1EE0002E04DBD2
:100F3000B34502DD01A8805D00E03020D4E9012145
:100F40009047206A401C2062761CAAF101005FEAEB
:100F5000000A0AD100F01CFAC0680168405CD4E9BC
:100F600001219047206A401C2062281EA5F101053E
:100F7000DCDC07E0D4E9012118F8010B9047206A76
:100F8000401C2062381EA7F10107F3DC2046FFF762
:100F9000B3FA032011B041E62DE9F04F04460D46A7
:100FA000D21D22F0070089B0D0E9009748463946A3
:100FB00004F0D0FA0246F80F01D02D2307E0206894
:100FC000810701D52B2302E0202101EAC0038DF81F
:100FD00020300BB1012000E00020032A824601D01E
:100FE000072A04DB2946204600F0D6F93FE12078A5
:100FF000800601D40D2500E0E569C7F30A560D2DE2
:1010000049DA00214FEA175B08464FF00000002F35
:1010100000F4400007DA00EB80004FF4400100EBE1
:10102000D07001EA60008115012901DD4FF0FF3128
:1010300000224FEA850CBCF1180F06D31346ACF121
:1010400018004FF08052C24003E04FF4801323FA9F
:101050000CF30CF10C0CBCF1200F04D3ACF1200C00
:1010600009FA0CF001E007FA0CF000294FF00048F3
:1010700001DD18B90FE00ED140450CD319EB020980
:101080005F4121B9404502D19F4329EA0209BBEBE8
:10109000175F00D0761C2088000502D57B48784475
:1010A00002E07A487844193808AA302302F80A3056
:1010B000037C0AF10101002E0AF1020A53546A4628
:1010C00002DC4FF0300101E04FF031014FF0010838
:1010D0008DF8001002D0A6F2FF3603E059EA47016E
:1010E00000D06B4E002D02DC2178090704D54FF0AB
:1010F00002082E218DF80110C44600210BE0C7F331
:1011000003433F01C35C491C6D1E02F808300529EA
:1011100008F1010801DA002DF1DC00210CE000EB00
:101120001973491C1B786D1E082902F808304FEA14
:10113000091908F1010801DA002DF0DC21688B069D
:1011400002D516E0A8F10108E04505DD02EB080331
:1011500013F8013C302BF5D0B8F1000F09DD02EB9C
:10116000080313F8013C2E2B03D1090701D4A8F181
:101170000108002D05DD3E2102F808106D1E08F162
:101180000108407C002E02F8080008F1010804DA8A
:101190002D20764202F8080002E02B2002F8080019
:1011A0000A214FF47A70864208F101080BDB96FBA6
:1011B000F0F3303302F8083096FBF0F308F1010841
:1011C00000FB136601E0642E0CDB642096FBF0F359
:1011D000303302F8083096FBF0F308F1010800FB09
:1011E000136601E00A2E06DB96FBF1F0303002F8C0
:1011F000080008F1010896FBF1F001FB10603030A7
:1012000002F80800A16908F1010808EB050202EBE9
:101210000A00081AA0612078C00602D42046FFF711
:1012200055F9216A08AE01EB0A00206204E0D4E916
:10123000012116F8010B9047BAF1010AF7D2207884
:10124000C00602D52046FFF741F96E4609E016F8C0
:10125000010B3E280FD0D4E901219047206A401CA1
:101260002062B8F10108F2D22046FFF745F909B033
:101270000320BDE8F08F206A2844206203E0D4E90F
:101280000121302090476D1EEBD3F8E7C2450000E6
:1012900002FCFFFF10B5436913B1AFF3008001E01A
:1012A000FFF74DF9012010BD127800F124010A70FA
:1012B00000224A700122EDE711684FF0FF32E9E7A2
:1012C00010B5436913B1AFF3008001E0FFF7D6F921
:1012D000012010BD128800F1240182840022C28402
:1012E0000122EDE711684FF0FF32E9E72DE9F04107
:1012F00016460C46054600F043F8036893F80101D2
:10130000012807D0FF2C12D8185D80B101202C7065
:10131000BDE8F081D3F807013246214603F20713F6
:10132000C7182846BC46BDE8F041002360474FF08F
:10133000FF30EDE7754600F0EBF8AE460500694674
:10134000534620F00700854618B020B5FEF7EEFFA3
:10135000BDE820404FF000064FF000074FF00008B6
:101360004FF0000BAC46ACE8C009ACE8C009ACE8F3
:10137000C009ACE8C00921F007018D4670470000A4
:1013800010B500F005F8001D10BD00BF354200008B
:1013900000487047300000202DE9F0411F46044608
:1013A00003260168072A01F4006004DB08B116A5D2
:1013B00005E016A503E008B115A500E015A521F08C
:1013C00010002060A069C01EA0610FB1401EA06186
:1013D0002046FFF77BF84FB1D4E90121384690470A
:1013E000206A401C2062C01C206206E0206AFAE7E6
:1013F000D4E9012115F8010B9047761EF8D220465A
:10140000FFF77AF8BDE8F0814E414E006E616E0044
:10141000494E4600696E66002DE9F0478146164642
:101420008AB0354878440DC88DE80D0032487844BC
:10143000801C03AC0DC884E80D0041F69B300844C5
:10144000372190FBF1F290FBF1F5A5F1800501FB4E
:1014500012041B3C02D56442012000E00020DFF8AA
:1014600098A080460027FA44AAF1BE0A0EE0E007E1
:101470000AD03246684607EB470101230AEB810197
:1014800003F031FF8DE8070064107F1C002CEED1C3
:10149000194F7F44AE3F19E0E80715D007EB041061
:1014A0000DF1180A90E80E008AE80E00C068F042BC
:1014B00001D1981908903246012306A903A803F028
:1014C00012FF03AB83E807006D10641C002DE3D10D
:1014D0004FF0010332466946B8F1000F03A802D06D
:1014E00003F0ECFE01E003F0FEFEC9E90001C9F8DB
:1014F00008200AB0BDE8F087CC42000010B50446D1
:10150000AFF300802046BDE81040FEF7FABE0000B1
:10151000004870471000002030B44FF0013C50F8F4
:10152000042B51F8043BCCFA52F4D51A20D1FCB963
:1015300050F8042B51F8043BCCFA52F4D51A17D1C9
:10154000B4B950F8042B51F8043BCCFA52F4D51A34
:101550000ED16CB950F8042B51F8043BCCFA52F47C
:10156000D51A05D1002CDAD030BC4FF000007047FE
:1015700029BAB1FA81F111F01801D1F120008440AB
:10158000F2D1CA40CB4012F0FF0213F0FF0330BC8F
:10159000D01A704701491820ABBEFEE726000200B2
:1015A00070470000FFE7FEE780B540F21410C2F27A
:1015B000000000F06BF980BD82B0019001980078C6
:1015C00010384AF6AB21CAF6AA21A0FB0110000987
:1015D0000090009945F22470C0F60000405C01992B
:1015E000C8650098042807D3FFE70199086804221A
:1015F00062F30900886506E00199086840F2FF324D
:1016000090438865FFE70198806D02B07047000045
:1016100086B0059000208DF813000598806A03902D
:101620000598806910BBFFE70398029003281BD838
:101630000299DFE801F0020D0218059890F82F00DA
:10164000C00720B1FFE701208DF81300FFE70CE091
:101650000598C06AB0F1C07F04D1FFE701208DF882
:101660001300FFE701E000E0FFE745E0059880692F
:10167000B0F5005F25D1FFE70398019003281ED83D
:101680000199DFE801F00206021101208DF8130034
:1016900016E0059890F82F00C00720B1FFE7012061
:1016A0008DF81300FFE70BE00598C06AB0F1C07F2A
:1016B00004D1FFE701208DF81300FFE700E0FFE70A
:1016C00019E003980090032804D3FFE7009803284B
:1016D00004D00EE001208DF813000BE0059890F87F
:1016E0002F00C00720B1FFE701208DF81300FFE7AE
:1016F00000E0FFE7FFE7FFE79DF8130006B0704743
:1017000084B00390029101920093039801680868E5
:1017100020F48020086000980399096848600398C5
:101720008068402809D1FFE701980399096888601B
:10173000029803990968C86008E00298039909684B
:101740008860019803990968C860FFE704B0704792
:101750007047000072B6FFE7FEE7000080B584B076
:1017600002900298806D019000F042FD0090029876
:1017700090F8350002280DD0FFE7029980204865D7
:10178000FFE70299002081F83400FFE701208DF87F
:101790000F0055E002980168086820F01600086004
:1017A00002980168486920F0800048610298006C46
:1017B00020B9FFE70298806C38B1FFE70298016812
:1017C000086820F008000860FFE7029801680868D0
:1017D00020F001000860FFE7029800680068C00779
:1017E000C8B1FFE700F004FD0099401A062811D3A4
:1017F000FFE70299202048650299032081F835000F
:10180000FFE70299002081F83400FFE703208DF8FC
:101810000F0015E0E0E70298C16D3F208840019974
:1018200088600299012081F83500FFE702990020C5
:1018300081F83400FFE7FFE700208DF80F00FFE795
:101840009DF80F0004B080BD82B00090009890F821
:101850003500022807D0FFE7009980204865012065
:101860008DF807000EE00099052081F835000098FA
:101870000168086820F001000860FFE700208DF88B
:101880000700FFE79DF8070002B0704780B586B0FB
:1018900005900020039040F20000C2F200000068B2
:1018A00048F2B511C1F64E31A0FB0110800A02903A
:1018B0000598806D0190019800680490049805993E
:1018C000C96DC840000700281AD5FFE705980068D1
:1018D00000684007002812D5FFE7059801680868EE
:1018E00020F0040008600598C16D08208840019927
:1018F00088600599486D40F001004865FFE7FFE703
:1019000004980599C96DC840C007A0B1FFE70598C4
:1019100000684069000600280CD5FFE70598C16DF6
:1019200001208840019988600599486D40F00200C7
:101930004865FFE7FFE704980599C96DC84040076F
:10194000002814D5FFE70598006800688007002884
:101950000CD5FFE70598C16D042088400199886087
:101960000599486D40F004004865FFE7FFE70498DB
:101970000599C96DC840C006002847D5FFE70598FE
:1019800000680068000700283FD5FFE70598C16D93
:10199000102088400199886005980068006840031D
:1019A00000281AD5FFE705980068006800030028A2
:1019B00009D4FFE70598006C20B1FFE70598016C9A
:1019C0008847FFE708E00598806C20B1FFE705989D
:1019D000816C8847FFE7FFE716E00598006800681C
:1019E000C005002807D4FFE705980168086820F0C3
:1019F00008000860FFE70598006C20B1FFE7059834
:101A0000016C8847FFE7FFE7FFE7FFE704980599C8
:101A1000C96DC8408006002840F18D80FFE7059819
:101A200000680068C006002840F18480FFE7059840
:101A3000C16D2020884001998860059890F8350094
:101A4000052834D1FFE705980168086820F01600E2
:101A5000086005980168486920F080004861059891
:101A6000006C20B9FFE70598806C38B1FFE7059856
:101A70000168086820F008000860FFE70598C16D5C
:101A80003F208840019988600599012081F8350040
:101A9000FFE70599002081F83400FFE70598006D05
:101AA00020B1FFE70598016D8847FFE77BE00598C7
:101AB00000680068400300281AD5FFE70598006811
:101AC00000680003002809D4FFE70598406C20B1A6
:101AD000FFE70598416C8847FFE708E00598C06B71
:101AE00020B1FFE70598C16B8847FFE7FFE720E0DB
:101AF000059800680068C005002811D4FFE7059824
:101B00000168086820F0100008600599012081F83C
:101B10003500FFE70599002081F83400FFE7FFE773
:101B20000598C06B20B1FFE70598C16B8847FFE7B8
:101B3000FFE7FFE7FFE70598406DA0B3FFE70598D3
:101B4000406DC00730B3FFE70599052081F83500E7
:101B500005980168086820F001000860FFE7039815
:101B6000013003900299884201D9FFE707E0FFE7BF
:101B7000059800680068C0070028F0D1FFE70599C4
:101B8000012081F83500FFE70599002081F8340035
:101B9000FFE7FFE70598C06C20B1FFE70598C16C2F
:101BA0008847FFE7FFE706B080BD000080B586B03C
:101BB00004900020039000F01BFB0290049820B9D1
:101BC000FFE701208DF81700A3E00498406A08B1F0
:101BD000FFE7FFE70499022081F83500FFE7049949
:101BE000002081F83400FFE704980168086820F0BD
:101BF00001000860FFE7049800680068C00790B122
:101C0000FFE700F0F5FA0299401A06280AD3FFE729
:101C10000499202048650499032081F835008DF847
:101C2000170076E0E7E704980068006803900398DF
:101C300048F23F01CFF2100108400390049900914F
:101C40004868D1F808C0CB680A6940EA0C0018431C
:101C500010434A6910438A691043CA691043096AEC
:101C600001430398084303900498406A042808D16C
:101C7000FFE70499C86A096B01430398084303907E
:101C8000FFE70398049909680860049800684069B0
:101C90000390039820F0070003900498416A03988A
:101CA000084303900498406A04281AD1FFE7049877
:101CB000816A0398084303900498C06A80B1FFE7E3
:101CC0000498FFF7A5FC50B1FFE704994020486550
:101CD0000499012081F835008DF8170019E0FFE71D
:101CE000FFE703980499096848610498FFF764FCCA
:101CF00001900498C16D3F20884001998860049943
:101D000000204865049A012182F835108DF81700EB
:101D1000FFE79DF8170006B080BD000080B588B0D1
:101D2000069005910492039300208DF80B0006980D
:101D3000806D0190FFE7069890F83400012804D1E7
:101D4000FFE702208DF81F0045E00699012081F889
:101D50003400FFE7FFE7069890F8350001282BD103
:101D6000FFE70699022081F83500069900204865B2
:101D700006980599049A039BFFF7C2FC0698C16D6B
:101D80003F2088400199886006980168086840F003
:101D9000160008600698006C38B1FFE706980168E5
:101DA000086840F008000860FFE7069801680868C6
:101DB00040F00100086009E0FFE70699002081F883
:101DC0003400FFE702208DF80B00FFE79DF80B00C1
:101DD0008DF81F00FFE79DF81F0008B080BD0000D0
:101DE00080B584B0039000F003FA0290039801904C
:101DF0000198013048B1FFE740F20400C2F2000050
:101E00000178019808440190FFE7FFE700F0F0F93E
:101E10000299401A0199884201D2FFE7F6E704B01F
:101E200080BD00008DB00C900B91002009900890AF
:101E300007900A90FFE70A980F2800F2BE81FFE79B
:101E40000A990120884009900B9800680999084078
:101E5000089008980999884240F0AA81FFE70B98FA
:101E6000406800F00300012807D0FFE70B984068A6
:101E700000F0030002282FD1FFE70C98806807903C
:101E80000A984100032000FA01F10798884307905F
:101E90000B98C0680A99490000FA01F107980843B5
:101EA000079007980C9988600C98406807900A99E9
:101EB000012000FA01F10798884307900B984068C9
:101EC000C0F300100A9900FA01F10798084307903F
:101ED00007980C994860FFE70B98406800F00300F2
:101EE000032818D0FFE70C98C06807900A984100B3
:101EF000032000FA01F10798884307900B98806847
:101F00000A99490000FA01F10798084307900798D9
:101F10000C99C860FFE70B98406800F003000228A6
:101F200026D1FFE70C980A996FF0030202EA5101EB
:101F30000844006A07900A9800F0070081000F200B
:101F400000FA01F10798884307900B9800690A99F5
:101F500001F00701890000FA01F107980843079092
:101F600007980C990A9B02EA530211440862FFE7A2
:101F70000C98006807900A984100032000FA01F1CC
:101F80000798884307900B98406800F003000A996F
:101F9000490000FA01F107980843079007980C9947
:101FA00008600B9880798007002800F00081FFE727
:101FB000FFE70020069043F64400C4F202000168E7
:101FC00041F480410160006800F48040069006986A
:101FD000FFE70A9820F0030043F60801C4F201016C
:101FE000405807900A9800F0030081000F2000FA83
:101FF00001F10798884307900C980021C4F2020170
:10200000884203D1FFE70020059050E00C9840F291
:102010000041C4F20201884203D1FFE7012004908D
:1020200042E00C9840F60001C4F20201884203D15C
:10203000FFE70220039034E00C9840F60041C4F220
:102040000201884203D1FFE70320029026E00C98AA
:1020500041F20001C4F20201884203D1FFE70420EB
:10206000019018E00C9841F20041C4F2020188424C
:1020700003D1FFE7052000900AE00C9941F6000229
:10208000C4F202020720914208BF06200090FFE739
:1020900000980190FFE701980290FFE702980390F3
:1020A000FFE703980490FFE704980590FFE7059881
:1020B000C0B20A9901F00301890000FA01F1079802
:1020C0000843079007980A9921F0030143F6080294
:1020D000C4F20102885043F60840C4F201000068CF
:1020E000079008990798884307900B988079C00655
:1020F000002805D5FFE70899079808430790FFE7F0
:10210000079843F60841C4F20101086043F60C4009
:10211000C4F2010000680790089907988843079067
:102120000B9880798006002805D5FFE70899079865
:1021300008430790FFE7079843F60C41C4F20101FA
:10214000086043F60440C4F2010000680790089953
:102150000798884307900B9880798007002805D559
:10216000FFE70899079808430790FFE7079843F6A9
:102170000441C4F20101086043F60040C4F20100CA
:102180000068079008990798884307900B98807912
:10219000C00728B1FFE70899079808430790FFE7B1
:1021A000079843F60041C4F201010860FFE7FFE72A
:1021B000FFE70A9801300A903DE60DB07047000035
:1021C00082B00190ADF8021001980069BDF80210CC
:1021D000084204D0FFE701208DF8010003E0002051
:1021E0008DF80100FFE79DF8010002B07047000084
:1021F00040F27820C2F200000068704740F204000C
:10220000C2F20000027840F27821C2F200010868B0
:10221000104408607047000080B543F60041C4F2E6
:102220000201086840F400700860086840F48060AB
:102230000860086840F480700860032000F08AF8A5
:102240000F2000F005F800F03BF8002080BD0000F2
:1022500080B582B0009040F20000C2F20000006839
:1022600040F20401C2F200010A784FF47A71B1FB26
:10227000F2F1B0FBF1F000F07DFE20B1FFE70120AC
:102280008DF8070018E000980F280DD8FFE7009997
:102290004FF0FF30002200F043F8009840F20801B0
:1022A000C2F20001086003E001208DF8070003E09E
:1022B00000208DF80700FFE79DF8070002B080BD01
:1022C00082B0FFE70020019043F64400C4F2020010
:1022D000016841F480410160006800F48040019091
:1022E0000198FFE7FFE70020009043F64000C4F2AA
:1022F0000200016841F080510160006800F08050E8
:1023000000900098FFE702B07047000080B582B0EF
:102310008DF807009DF9070002F0A2FC02B080BD15
:1023200080B586B08DF817000491039200200290CA
:1023300002F0AEFC02909DF91700019002980499FA
:10234000039A01F089FE0146019802F0A9FC06B04B
:1023500080BD000080B582B00190019802F0C2FCFF
:1023600002B080BD80B584B000200290FFE700205D
:10237000019043F64000C4F20200016841F0805130
:102380000160006800F0805001900198FFE7402153
:10239000C4F20E2101200860FFF72AFF0290FFE738
:1023A00047F20400C4F20000006800F48030B0F589
:1023B000803F0DD0FFE7FFF71BFF0299401AB0F5F1
:1023C0007A7F04D9FFE703208DF80F0025E0E7E7C7
:1023D0004421C4F20E2101200860FFF709FF02909A
:1023E000FFE747F20400C4F20000006800F4003088
:1023F000B0F5003F0DD0FFE7FFF7FAFE0299401A53
:10240000B0F57A7F04D9FFE703208DF80F0004E0D0
:10241000E7E700208DF80F00FFE79DF80F0004B0FC
:1024200080BD000080B584B002900191029820B96F
:10243000FFE701208DF80F0021E1019843F60041EC
:10244000C4F20201096801F00F01884212D9FFE7C6
:10245000019943F60040C4F202000170006800F0E8
:102460000F000199884204D0FFE701208DF80F008A
:1024700005E1FFE702980078800700282AD5FFE7EA
:10248000029800784007002809D5FFE743F60801C5
:10249000C4F20201086840F4E0500860FFE70298C7
:1024A00000780007002809D5FFE743F60801C4F2C9
:1024B0000201086840F460400860FFE743F6080145
:1024C000C4F20201086820F0F000029A92681043FA
:1024D0000860FFE702980078C00700286ED0FFE789
:1024E00002984068012811D1FFE743F60000C4F2CA
:1024F0000200006800F400310020B0EB514F04D11D
:10250000FFE701208DF80F00B9E02CE00298406849
:10251000022805D0FFE702984068032811D1FFE7A1
:1025200043F60000C4F20200006800F000710020D1
:10253000B0EB516F04D1FFE701208DF80F009EE052
:1025400010E043F60000C4F20200006800F002014F
:102550000020B0EB510F04D1FFE701208DF80F00F0
:102560008DE0FFE7FFE743F60801C4F202010868C7
:1025700020F00300029A526810430860FFF738FE0B
:102580000090FFE743F60800C4F20200006800F084
:102590000C0002994968B0EB810F0ED0FFE7FFF7FE
:1025A00027FE0099401A41F28931884204D3FFE79F
:1025B00003208DF80F0062E0E4E7FFE7019843F69F
:1025C0000041C4F20201096801F00F01884212D2F1
:1025D000FFE7019943F60040C4F202000170006871
:1025E00000F00F000199884204D0FFE701208DF828
:1025F0000F0044E0FFE702980078400700280CD560
:10260000FFE743F60801C4F20201086820F4E05035
:10261000029AD26810430860FFE70298007800072A
:1026200000280DD5FFE743F60801C4F2020108684F
:1026300020F46040029A126940EAC2000860FFE795
:1026400000F04CF843F60801C4F202010968C9B26F
:102650000A0945F20C71C0F60001895CC84040F2DD
:102660000001C2F20001086040F20800C2F200005E
:102670000068FFF7EDFD00208DF80F00FFE79DF8E3
:102680000F0004B080BD000040F20000C2F2000064
:102690000068704780B5FFF7F7FF43F60801C4F202
:1026A00002010968C1F3822245F21C71C0F60001E3
:1026B000895CC84080BD000080B5FFF7E5FF43F6A8
:1026C0000801C4F20201096889B24A0B45F21C7183
:1026D000C0F60001895CC84080BD000080B586B0AE
:1026E00000200590049003900290019043F60800AA
:1026F000C4F20200006800F00C00014600910C28B2
:1027000000F29B800099DFE801F0079898980D98F7
:10271000989813989898570042F20040C0F2F4003D
:10272000019090E041F20020C0F27A0001908AE02E
:1027300043F60400C4F20200016801F03F01059174
:1027400000684002002813D5FFE743F60400C4F2F6
:1027500002000068C0F3881041F20021C0F27A0143
:10276000A0FB0101059A0023FDF7F2FD049012E0A1
:1027700043F60400C4F202000068C0F3881042F27D
:102780000041C0F2F401A0FB0101059A0023FDF70E
:10279000DFFD0490FFE743F60400C4F20200006886
:1027A00000F44031022000EBD130039004980399EB
:1027B000B0FBF1F0019046E043F60400C4F20200E1
:1027C000016801F03F01059100684002002813D51F
:1027D000FFE743F60400C4F202000068C0F388106B
:1027E00041F20021C0F27A01A0FB0101059A002309
:1027F000FDF7AEFD049012E043F60400C4F20200BF
:102800000068C0F3881042F20041C0F2F401A0FB5E
:102810000101059A0023FDF79BFD0490FFE743F6B5
:102820000400C4F202000068C0F302700290049831
:102830000299B0FBF1F0019005E042F20040C0F2D5
:10284000F4000190FFE7019806B080BD80B586B026
:102850000490049820B9FFE701208DF8170084E365
:1028600004980078C007002800F0BA80FFE743F61C
:102870000800C4F20200006800F00C00042828D010
:10288000FFE743F60800C4F20200006800F00C0005
:1028900008280BD1FFE743F60400C4F202000068E9
:1028A00000F48000B0F5800F13D0FFE743F6080076
:1028B000C4F20200006800F00C000C281ED1FFE7F3
:1028C00043F60400C4F2020000684002002815D557
:1028D000FFE743F60000C4F20200006800F4003194
:1028E0000020B0EB514F08D0FFE70498406820B9B2
:1028F000FFE701208DF8170037E370E0FFE7049849
:102900004068B0F5803F09D1FFE743F60001C4F20B
:102910000201086840F48030086020E004984068B4
:10292000B0F5A02F0DD1FFE743F60001C4F202017C
:10293000086840F480200860086840F4803008602F
:102940000CE043F60001C4F20201086820F4803074
:102950000860086820F480200860FFE7FFE7FFE7D1
:1029600004984068E8B1FFE7FFF742FC0390FFE7F7
:1029700043F60000C4F20200006800F400310020B9
:10298000B0EB514F0CD1FFE7FFF732FC0399401A2F
:10299000652804D3FFE703208DF81700E5E2E7E799
:1029A0001CE0FFF725FC0390FFE743F60000C4F2AC
:1029B0000200006800F400310020B0EB514F0CD051
:1029C000FFE7FFF715FC0399401A652804D3FFE7DA
:1029D00003208DF81700C8E2E7E7FFE7FFE7FFE70E
:1029E000049800788007002840F1A980FFE743F6AB
:1029F0000800C4F20200006810F00C0F26D0FFE7B8
:102A000043F60800C4F20200006800F00C00082839
:102A100009D1FFE743F60400C4F202000068400257
:102A2000002813D5FFE743F60800C4F2020000684F
:102A300000F00C000C282CD1FFE743F60400C4F290
:102A4000020000684002002823D4FFE743F600009C
:102A5000C4F20200006800F002010020B0EB510F48
:102A600009D0FFE70498C068012804D0FFE70120DF
:102A70008DF8170079E243F60001C4F202010868FC
:102A800020F0F800049A126940EAC2000860FFE7EB
:102A900054E00498C06870B3FFE70021C4F24721F6
:102AA00001200860FFF7A4FB0390FFE743F6000056
:102AB000C4F20200006800F002010020B0EB510FE8
:102AC0000CD1FFE7FFF794FB0399401A032804D3C6
:102AD000FFE703208DF8170047E2E7E743F6000120
:102AE000C4F20201086820F0F800049A126940EA72
:102AF000C200086021E00021C4F2472100200860E4
:102B0000FFF776FB0390FFE743F60000C4F20200F4
:102B1000006800F002010020B0EB510F0CD0FFE77D
:102B2000FFF766FB0399401A032804D3FFE703204D
:102B30008DF8170019E2E7E7FFE7FFE7FFE70498E2
:102B40000078000700284BD5FFE70498406918B3C8
:102B5000FFE740F68061C4F2472101200860FFF7DB
:102B600047FB0390FFE743F67400C4F202000068DD
:102B700000F002010020B0EB510F0CD1FFE7FFF78E
:102B800037FB0399401A032804D3FFE703208DF88D
:102B90001700EAE1E7E722E040F68061C4F247214E
:102BA00000200860FFF724FB0390FFE743F6740062
:102BB000C4F20200006800F002010020B0EB510FE7
:102BC0000CD0FFE7FFF714FB0399401A032804D346
:102BD000FFE703208DF81700C7E1E7E7FFE7FFE70E
:102BE000049800784007002840F1CE80FFE70020DD
:102BF0008DF8070043F64000C4F202000068C000F0
:102C0000002815D4FFE7FFE70020009043F64000BE
:102C1000C4F20200016841F080510160006800F0D8
:102C2000805000900098FFE701208DF80700FFE733
:102C300047F20000C4F200000068C005002822D45A
:102C4000FFE747F20001C4F20001086840F4807019
:102C50000860FFF7CDFA0390FFE747F20000C4F2E7
:102C600000000068C00500280CD4FFE7FFF7C0FA99
:102C70000399401A032804D3FFE703208DF81700B7
:102C800073E1EAE7FFE7FFE704988068012809D1CC
:102C9000FFE743F67001C4F20201086840F001004A
:102CA00008601FE00498806805280DD1FFE743F60F
:102CB0007001C4F20201086840F00400086008686E
:102CC00040F0010008600CE043F67001C4F202011C
:102CD000086820F001000860086820F0040008601F
:102CE000FFE7FFE7FFE704988068F8B1FFE7FFF729
:102CF0007FFA0390FFE743F67000C4F20200006819
:102D000000F002010020B0EB510F0ED1FFE7FFF7FA
:102D10006FFA0399401A41F28931884204D3FFE7E0
:102D200003208DF8170020E1E5E71EE0FFF760FAC9
:102D30000390FFE743F67000C4F20200006800F061
:102D400002010020B0EB510F0ED0FFE7FFF750FA61
:102D50000399401A41F28931884204D3FFE70320E6
:102D60008DF8170001E1E5E7FFE79DF8070001286E
:102D700009D1FFE743F64001C4F20201086820F0E0
:102D800080500860FFE7FFE704988069002800F0A2
:102D9000E880FFE743F60800C4F20200006800F094
:102DA0000C00082800F08880FFE70498806902285A
:102DB0005FD1FFE76021C4F2472100200860FFF7E0
:102DC00017FA0390FFE743F60000C4F20200006820
:102DD00000F000710020B0EB516F0CD0FFE7FFF75F
:102DE00007FA0399401A032804D3FFE703208DF85C
:102DF0001700BAE0E7E70499C869D1F820C04B6A28
:102E00008A6A40EA0C0040EA8310D2034FF6FF734F
:102E10009A43A2F580321043CA6A40EA0260096B05
:102E200040EA017043F60401C4F202010860602127
:102E3000C4F2472101200860FFF7DAF90390FFE7A9
:102E400043F60000C4F20200006800F000710020A8
:102E5000B0EB516F0CD1FFE7FFF7CAF90399401AA5
:102E6000032804D3FFE703208DF817007DE0E7E790
:102E700021E06021C4F2472100200860FFF7B8F983
:102E80000390FFE743F60000C4F20200006800F080
:102E900000710020B0EB516F0CD0FFE7FFF7A8F9ED
:102EA0000399401A032804D3FFE703208DF8170085
:102EB0005BE0E7E7FFE753E004988069012804D16D
:102EC000FFE701208DF817004FE043F60400C4F23D
:102ED0000200006802900498806901283AD0FFE758
:102EE000029800F480000499C969884232D1FFE752
:102EF000029800F03F000499096A88422AD1FFE74E
:102F0000029847F6C07108400499496AB0EB811FE6
:102F100020D1FFE7029800F440300499896AC90380
:102F20004FF6FF729143A1F58031884212D1FFE73D
:102F3000029800F070600499C96AB0EB016F09D182
:102F4000FFE7029800F0E0400499096BB0EB017FC5
:102F500004D0FFE701208DF8170006E0FFE7FFE748
:102F6000FFE700208DF81700FFE79DF8170006B077
:102F700080BD000080B582B00190019801F0B6F9E3
:102F800002B080BD81B0009001B0704781B0009068
:102F900001B0704785B003900291FFE7039890F865
:102FA0003C00012804D1FFE702208DF813007EE0E9
:102FB0000399012081F83C00FFE7FFE70399022015
:102FC00081F83D000398006840680190039800680C
:102FD00080680090019820F07000019002980168CC
:102FE0000198084301900198039909684860039883
:102FF00000680021C4F2010188423CD0FFE7039839
:103000000068B0F1804F36D0FFE70398006840F2C7
:103010000041C4F2000188422DD0FFE70398006808
:1030200040F60001C4F20001884224D0FFE7039873
:10303000006840F60041C4F2000188421BD0FFE75F
:103040000398006840F20041C4F20101884212D0A6
:10305000FFE70398006844F20001C4F201018842CE
:1030600009D0FFE70398006841F60001C4F20001AF
:1030700088420ED1FFE7009820F08000009002986F
:103080004168009808430090009803990968886097
:10309000FFE70399012081F83D00FFE70399002035
:1030A00081F83C00FFE700208DF81300FFE79DF852
:1030B000130005B07047000080B582B00090009802
:1030C00020B9FFE701208DF807003FE0009890F855
:1030D0003D0040B9FFE70099002081F83C000098CE
:1030E00000F038F8FFE70099022081F83D000099D0
:1030F00051F8040B01F0A0F90099012081F8460075
:10310000FFE70099012081F83E00009981F83F0017
:10311000009981F84000009981F84100FFE7FFE73E
:103120000099012081F84200009981F8430000993C
:1031300081F84400009981F84500FFE700990120DB
:1031400081F83D0000208DF80700FFE79DF807009B
:1031500002B080BD80B584B0039003980068B0F1E0
:10316000804F1BD1FFE7FFE70020029043F64000AD
:10317000C4F20200016841F001010160006800F042
:10318000010002900298FFE71C20019000221146E6
:10319000FFF7C6F80198FFF7B9F8FFE704B080BD64
:1031A00080B586B00490039100208DF80B00FFE7F6
:1031B000049890F83C00012804D1FFE702208DF824
:1031C0001700ABE00499012081F83C00FFE7FFE71E
:1031D0000499022081F83D000498006880680190FD
:1031E000019820F077000190019820F47F40019031
:1031F0000198049909688860039800680090002885
:1032000072D0FFE7009810286ED0FFE700982028C2
:103210006AD0FFE70098302866D0FFE70098402882
:1032200055D0FFE70098502837D0FFE70098602876
:1032300040D0FFE7009870280BD0FFE70098B0F56A
:10324000805F05D0FFE70098B0F5005F16D052E030
:1032500055E004980068039B5A689968DB6801F0A0
:10326000C3F90498006880680190019840F07700E5
:103270000190019804990968886040E0049800680A
:10328000039B5A689968DB6801F0AEF904980168FD
:10329000886840F48040886031E004980068039AB0
:1032A0005168D26801F0D0F904980068502101F00B
:1032B000B5F924E004980068039A5168D26801F0D7
:1032C000EBF904980068602101F0A8F917E0049870
:1032D0000068039A5168D26801F0B6F90498006852
:1032E000402101F09BF90AE00498006803990968FD
:1032F00001F094F903E001208DF80B00FFE7049939
:10330000012081F83D00FFE70499002081F83C008E
:10331000FFE79DF80B008DF81700FFE79DF81700F9
:1033200006B080BD81B0009001B0704780B584B018
:10333000039003980068C0680290039800680069D1
:1033400001909DF804008007002824D5FFE79DF830
:103350000800800700281DD5FFE7039801686FF07B
:1033600002000861039901200877039800688069CA
:10337000800720B1FFE70398FFF7D4FF06E003982A
:1033800000F0E2F8039800F0E3F8FFE7039900206B
:103390000877FFE7FFE79DF804004007002825D5E0
:1033A000FFE79DF80800400700281ED5FFE70398B7
:1033B00001686FF004000861039902200877039800
:1033C0000068806910F4407F04D0FFE70398FFF79E
:1033D000A9FF06E0039800F0B7F8039800F0B8F8EA
:1033E000FFE7039900200877FFE7FFE79DF8040057
:1033F0000007002824D5FFE79DF8080000070028F3
:103400001DD5FFE7039801686FF008000861039974
:103410000420087703980068C069800720B1FFE79F
:103420000398FFF77FFF06E0039800F08DF80398FC
:1034300000F08EF8FFE7039900200877FFE7FFE729
:103440009DF80400C006002825D5FFE79DF8080078
:10345000C00600281ED5FFE7039801686FF0100032
:10346000086103990820087703980068C06910F480
:10347000407F04D0FFE70398FFF754FF06E003986E
:1034800000F062F8039800F063F8FFE7039900206A
:103490000877FFE7FFE79DF80400C00778B1FFE772
:1034A0009DF80800C00748B1FFE7039801686FF076
:1034B00001000861039800F04FF8FFE7FFE79DF86F
:1034C00004000006002810D5FFE79DF8080000065C
:1034D000002809D5FFE7039801686FF080000861B4
:1034E0000398FFF74FFDFFE7FFE79DF80400400654
:1034F000002810D5FFE79DF808004006002809D5F0
:10350000FFE7039801686FF040000861039800F03E
:1035100031F8FFE7FFE79DF804008006002810D58A
:10352000FFE79DF808008006002809D5FFE703980B
:1035300001686FF0200008610398FFF727FDFFE79F
:10354000FFE704B080BD000081B0009001B070477B
:1035500081B0009001B0704781B00090009840F2B7
:103560007411C2F20001884201D1FFE7FFE701B008
:103570007047000081B0009001B0704782B00190A8
:10358000ADF8021002B0704781B0009001B07047F2
:1035900080B592B011901198006800681090119851
:1035A0000068C0680F901198006840690E90002074
:1035B0000D900C90109800F00F000D900D9888B9A8
:1035C000FFE79DF84000800600280AD5FFE79DF838
:1035D0003C008006002804D5FFE7119801F098F917
:1035E000EAE1FFE70D98002800F0C280FFE79DF8B0
:1035F0003800C00738B9FFE7BDF83C0010F4907FF1
:1036000000F0B680FFE79DF84000C00758B1FFE723
:103610009DF83D00C00730B1FFE71199486C40F0BC
:1036200001004864FFE79DF84000400700280BD5E3
:10363000FFE79DF83800C00730B1FFE71199486CEB
:1036400040F002004864FFE79DF840008007002832
:103650000BD5FFE79DF83800C00730B1FFE711999F
:10366000486C40F004004864FFE79DF84000000704
:10367000002811D5FFE79DF83C008006002805D4FE
:10368000FFE79DF83800C00730B1FFE71199486C9B
:1036900040F008004864FFE71198406C002866D0AD
:1036A000FFE79DF84000800600280AD5FFE79DF857
:1036B0003C008006002804D5FFE7119801F028F9A6
:1036C000FFE7119800684069C0F380100C901198D2
:1036D000406C0007002804D4FFE70C9800283ED077
:1036E000FFE7119801F09AF81198006840694006C8
:1036F00000282FD5FFE7FFE7FFE71198006850E8A3
:10370000050F20F040000B90FFE70B99119802681D
:1037100042E805100028F0D1FFE7FFE71198C06BE1
:1037200098B1FFE71198C16B44F2ED60C0F600005C
:1037300008651198C06BFEF787F828B1FFE711986C
:10374000C06B016D8847FFE703E01198FFF71CFF8E
:10375000FFE703E01198FFF717FFFFE706E0119876
:10376000FFF712FF119900204864FFE7FFE723E10C
:103770001198006B012840F0FF80FFE79DF84000A2
:10378000C006002840F1F880FFE79DF83C00C00625
:10379000002840F1F180FFE7FFE700200A90119830
:1037A000006800680A901198006840680A900A98BA
:1037B000FFE71198006840694006002840F18280C8
:1037C000FFE71198C06B00684068ADF82600BDF8AF
:1037D0002600002875D0FFE7BDF826001199898DD5
:1037E00088426EDAFFE7BDF826001199C885119866
:1037F000C06BC069B0F5807F58D0FFE7FFE7FFE7F7
:103800001198006850E8030F20F480700890FFE7DB
:1038100008991198026842E803100028F0D1FFE7E8
:10382000FFE7FFE7FFE71198006850E8050F20F079
:1038300001000790FFE707991198026842E8051018
:103840000028F0D1FFE7FFE7FFE7FFE711980068E6
:1038500050E8050F20F040000690FFE70699119808
:10386000026842E805100028F0D1FFE7FFE7119950
:10387000202081F84200119900200863FFE7FFE74C
:103880001198006850E8030F20F010000590FFE742
:1038900005991198026842E803100028F0D1FFE76B
:1038A000FFE71198C06BFDF759FFFFE71199022060
:1038B00048631198818DC28D891A89B2FFF75EFE27
:1038C000FFE779E01199888DC98D401AADF8120093
:1038D0001198C08D00284ED0FFE7BDF812000028D7
:1038E00049D0FFE7FFE7FFE71198006850E8030FB2
:1038F00020F490700390FFE703991198026842E862
:1039000003100028F0D1FFE7FFE7FFE7FFE711987A
:10391000006850E8050F20F001000290FFE70299CF
:103920001198026842E805100028F0D1FFE7FFE790
:103930001199202081F84200119900200863FFE7C7
:10394000FFE71198006850E8030F20F01000019085
:10395000FFE701991198026842E803100028F0D1AE
:10396000FFE7FFE71199022048631198BDF8121094
:10397000FFF704FEFFE71FE09DF840000006002867
:103980000AD5FFE79DF83C000006002804D5FFE7B4
:10399000119801F011F90FE09DF840004006002851
:1039A0000AD5FFE79DF83C004006002804D5FFE754
:1039B000119800F07DFFFFE712B080BD80B582B0A6
:1039C0000090009820B9FFE701208DF8070040E043
:1039D0000098806908B1FFE700E0FFE7009890F8E1
:1039E000410040B9FFE70099002081F840000098AD
:1039F00000F034F8FFE70099242081F84100009896
:103A00000168C86820F40050C860009801F036F8DA
:103A100000980168086920F49040086100980168E6
:103A2000486920F02A00486100980168C86840F49D
:103A30000050C860009900204864009A202182F854
:103A40004110009A82F84210009948638DF80700EF
:103A5000FFE79DF8070002B080BD000080B590B080
:103A60000F9000200E900D900C900B900A900F98E4
:103A7000006844F60001C4F20001884240F09380DF
:103A8000FFE7FFE70020099043F64000C4F2020080
:103A9000016841F480210160006800F480200990F1
:103AA0000998FFE7FFE70020089043F63000C4F2D2
:103AB0000200016841F004010160006800F00400A8
:103AC00008900898FFE7FFE70020079043F63000D2
:103AD000C4F20200016841F008010160006800F0D2
:103AE000080007900798FFE720200A900220019025
:103AF0000B90002005900C90032002900D90072061
:103B000003900E9040F60000C4F202000AA904914E
:103B1000FEF788F9DDF804C0029A03980499059B22
:103B20004FF4807ECDF828E0CDF82CC00C930D9298
:103B30000E9040F60040C4F20200FEF773F90599BA
:103B400040F21410C2F20000069046F25802C4F28D
:103B5000020202604FF00062426040228260C16057
:103B60004FF48062026141618161C1610162416221
:103B7000FEF71CF818B1FFE7FDF7ECFDFFE7FFE7E4
:103B80000F9840F21411C2F2000181630F9888630C
:103B9000FFE72720009000221146FEF7C1FB0098A6
:103BA000FEF7B4FBFFE710B080BD000081B00090CD
:103BB00001B0704780B586B004900391ADF80A203B
:103BC000049890F8410020285DD1FFE7039820B1C8
:103BD000FFE7BDF80A0020B9FFE701208DF81700C4
:103BE00055E0039804990862BDF80A000499888496
:103BF000BDF80A000499C884049900204864049A16
:103C0000212182F8411004998A6B44F28971C0F62F
:103C10000001D16304998A6B44F60501C0F60001E6
:103C2000116404998A6B44F20D71C0F60001D164ED
:103C30000499896B086503A8019004980268806B59
:103C4000019909680432BDF80A30FEF767F8049854
:103C500001686FF040000860FFE7FFE70498006824
:103C600050E8050F40F080000090FFE700990498AD
:103C7000026842E805100028F0D1FFE7FFE70020C6
:103C80008DF8170003E002208DF81700FFE79DF87C
:103C9000170006B080BD000081B0009001B07047F1
:103CA00081B0009001B07047FFE7FEE780B540F2B9
:103CB0000C20C2F200006C21FCF7DEFB80BD00008E
:103CC00080B586B00146029145F22C72C0F6000222
:103CD000106852684A60086045F23471C0F600010D
:103CE000486CB1F84210FEF76BFAB0FA80F0400968
:103CF0008DF817009DF8170020B1FFE70299082002
:103D00000870A9E000200490FFE70498082800F359
:103D1000A280FFE7049945F23470C0F6000000EB82
:103D2000C10148684988FEF74BFAB0FA80F04009B3
:103D30008DF80F009DF80F00049901EB410240F24D
:103D40000C21C2F2000111F82210884243D0FFE793
:103D50009DF80F00049901EB410240F20C21C2F2E0
:103D60000001019101F82200FEF742FA0199049A3C
:103D700002EB420201EB820148609DF80F0060B146
:103D8000FFE7049800EB400140F20C20C2F2000073
:103D900000EB8101002008721CE0049800EB400158
:103DA00040F20C20C2F2000000EB8100007A80B9E2
:103DB000FFE70299049A45F23470C0F6000010F84B
:103DC0003200087000204870FEF712FA029948602D
:103DD00042E0FFE7FFE79DF80F00B8B3FFE7FEF70B
:103DE00007FA049901EB410240F20C21C2F20001F2
:103DF00001EB82014968401AB0F57A7F26D9FFE7C6
:103E0000049800EB400140F20C20C2F2000000EBED
:103E10008100007AD0B9FFE70299049800EB4002D4
:103E200040F20C20C2F2000000EB8202012010726E
:103E3000049B45F23472C0F6000212F833200A7077
:103E40004870FEF7D5F90299486005E0FFE704984D
:103E50000130049059E7FFE706B080BD80B582B01D
:103E6000FFE70020019043F63000C4F20200016831
:103E700041F400110160006800F400100190019805
:103E8000FFE70E20009000221146FEF749FA009845
:103E9000FEF73CFA02B080BD80B58CB000200B90DC
:103EA0000A90099008900790FFE70020069043F6DB
:103EB0003000C4F20200016841F080010160006836
:103EC00000F0800006900698FFE7FFE700200590CD
:103ED00043F63000C4F20200016841F004010160C1
:103EE000006800F0040005900598FFE7FFE7002058
:103EF000049043F63000C4F20200016841F0100162
:103F00000160006800F0100004900498FFE7FFE7EC
:103F10000020039043F63000C4F20200016841F033
:103F200008010160006800F0080003900398FFE7B3
:103F3000FFE70020029043F63000C4F2020001685F
:103F400041F001010160006800F001000290029858
:103F5000FFE74FF400600790002000900890099060
:103F600041F20000C4F2020007A90191FDF75AFFD7
:103F7000009801994FF6806207920890099040F6E8
:103F80000040C4F20200FDF74DFF0CB080BD000000
:103F900080B588B0002101910791069105910491A7
:103FA0000391029140F27410C2F200004FF080427F
:103FB00002605922426081604FF0FF32C2600161AD
:103FC0008161FFF779F818B1FFE7FDF7C3FBFFE761
:103FD0004FF48050049040F27410C2F2000004A923
:103FE000FFF7DEF818B1FFE7FDF7B4FBFFE70020AD
:103FF0000290039040F27410C2F2000002A9FEF792
:10400000C9FF18B1FFE7FDF7A5FBFFE708B080BDCA
:1040100080B582B040F2BC10C2F20000019044F6BC
:104020000001C4F2000101604FF4E1314160002160
:104030008160C16001610C2242618161C161FFF751
:10404000BDFC18B1FFE7FDF785FBFFE702B080BDBF
:10405000FFE7FEE7FFE7FEE788B0079006910592CD
:10406000079800F0070004900498C0F107000528A5
:1040700003D3FFE70420019004E00498C0F1070097
:104080000190FFE70198039004980430062803D8B4
:10409000FFE70020009003E0049803380090FFE75A
:1040A0000098029006980399012202FA01F1013961
:1040B0000840029B984005999A40013A11400843F4
:1040C00008B07047704700007047000080B582B0AC
:1040D000ADF80600BDF8063040F27000C2F20000F4
:1040E00045F28672C0F600021421FCF7A9F900908F
:1040F0000098012812DBFFE7009810280ED8FFE790
:10410000009B40F27002C2F20002D1184FF0FF3063
:10411000D052887000980330009000E01AE040F21E
:10412000BC10C2F200000068006800F040010020EE
:10413000B0EB911F01D1FFE70CE0BDF8002040F289
:10414000BC10C2F2000040F27001C2F20001FFF7A1
:1041500031FDFFE702B080BD2DE9F04391B01C4670
:1041600015460E4607461E981D981C991B9A1A9BC9
:10417000DDF864C0DDF860E0ADF84270ADF8406095
:10418000ADF83E50ADF83C40ADF83AE0ADF838C07F
:10419000ADF836308DF835208DF834108DF83300B9
:1041A000BDF84230BDF84000BDF83E20BDF83CC02F
:1041B000BDF83AE0BDF83840BDF836509DF835609E
:1041C0009DF834709DF83380DDF8789069460A9147
:1041D000C1F82490C1F82080CF618E614D610C61DF
:1041E000C1F80CE0C1F808C04A60086040F28400E1
:1041F000C2F2000045F29672C0F600028021FCF780
:104200001FF90B900B98012812DBFFE70B987C2815
:104210000ED8FFE70B9B40F28402C2F20002D118D5
:104220004FF0FF30D05288700B9803300B9000E0B5
:104230000EE040F2BC10C2F2000001680968BDF84F
:104240002C2040F28401C2F20001FFF7B3FCFFE72B
:1042500011B0BDE8F083000080B584B08DF80F0088
:1042600045F28D70C0F600000290029A9DF80F0092
:1042700000F0010340F20410C2F200001021FCF72C
:10428000DFF801900198012812DBFFE701980C2864
:104290000ED8FFE7019B40F20412C2F20002D118CF
:1042A0004FF0FF30D052887001980330019000E049
:1042B0001AE040F2BC10C2F200000068006800F092
:1042C00040010020B0EB911F01D1FFE70CE0BDF8E9
:1042D000042040F2BC10C2F2000040F20411C2F20D
:1042E0000001FFF767FCFFE704B080BD80B582B036
:1042F000009000980138B0F1807F03D3FFE70120E0
:10430000019019E0009801384EF21401CEF200013C
:1043100008604FF0FF300F2100F0C2FC4EF2180190
:10432000CEF20001002008604EF21002CEF2000230
:10433000072111600190FFE7019802B080BD0000E5
:1043400080B5FDF75BFF80BD80B594B007A8342130
:10435000FCF792F8002006900590049003900290DC
:10436000FFE70020019043F64000C4F2020001681C
:1043700041F080510160006800F080500190019888
:10438000FFE7FFE70020009047F20000C4F20000C2
:10439000016841F440410160006800F44040009031
:1043A0000098FFE7012007904FF48030089002202A
:1043B0000D904FF480010E9104210F91B4211091C2
:1043C00011901290139007A8FEF740FA18B1FFE77A
:1043D000FDF7C0F9FFE7FDF7C5FF18B1FFE7FDF7EF
:1043E000B9F9FFE70F20029002200390002004900B
:1043F0004FF4A05005904FF48050069002A805217C
:10440000FEF710F818B1FFE7FDF7A4F9FFE714B0C5
:1044100080BD00004EF68851CEF20001086840F4DD
:10442000700008607047000080B540F27410C2F25E
:104430000000FEF77BFF80BD83B0029001910298DF
:104440000068009002980021C4F20101884225D042
:10445000FFE70298B0F1804F20D0FFE7029840F2CA
:104460000041C4F20001884218D0FFE7029840F6EC
:104470000001C4F20001884210D0FFE7029840F624
:104480000041C4F20001884208D0FFE7029840F2E0
:104490000041C4F2010188420AD1FFE7009820F0F0
:1044A0007000009001984168009808430090FFE771
:1044B00002980021C4F20101884255D0FFE702981A
:1044C000B0F1804F50D0FFE7029840F20041C4F2B3
:1044D0000001884248D0FFE7029840F60001C4F28C
:1044E0000001884240D0FFE7029840F60041C4F244
:1044F0000001884238D0FFE7029840F20041C4F240
:104500000101884230D0FFE7029844F20001C4F272
:104510000101884228D0FFE7029844F20041C4F22A
:104520000101884220D0FFE7029844F60001C4F25E
:104530000101884218D0FFE7029841F60001C4F259
:104540000001884210D0FFE7029841F60041C4F212
:104550000001884208D0FFE7029842F20001C4F24D
:10456000000188420AD1FFE7009820F440700090D3
:104570000198C168009808430090FFE7009820F078
:1045800080000199496908430090009802990860E9
:10459000019880680299C86201980068029988624F
:1045A00002980021C4F20101884208D0FFE7029876
:1045B00040F20041C4F20101884205D1FFE70198B1
:1045C000006902990863FFE7029901204861029897
:1045D0000069C00730B1FFE70299086920F00100C7
:1045E0000861FFE703B0704785B004900391029221
:1045F0000193049880680090009820F47F40009018
:1046000003980299019A41EA022101430098084364
:10461000009000980499886005B0704783B00290BC
:104620000191029880680090009820F0700000903E
:1046300001980099084340F0070000900098029903
:10464000886003B07047000085B004900391029227
:104650000498006A00900499086A20F0010008623A
:10466000049880690190019820F0F000019002996F
:10467000019840EA01100190009820F00A00009093
:104680000399009808430090019804998861009864
:104690000499086205B0704785B0049003910292B6
:1046A0000498006A00900499086A20F010000862DB
:1046B000049880690190019820F47040019002995B
:1046C000019840EA01300190009820F0A00000908D
:1046D0000399009840EA01100090019804998861BC
:1046E00000980499086205B07047000080B582B058
:1046F00001900198806B009000990020C885009976
:10470000C8840098FEF740FF02B080BD80B584B039
:104710000390002002900398806B0190019800683C
:104720004069C0B2C0090290019890F84100212868
:104730000AD1FFE7029838B1FFE701990020C88449
:10474000019800F0C9F8FFE7019800684069C0F3DC
:1047500080100290019890F8420022280AD1FFE7C9
:10476000029838B1FFE701990020C885019800F050
:1047700055F8FFE70199486C40F010004864019833
:10478000FEF702FF04B080BD80B584B003900398AB
:10479000806B0290039800680068C00500282AD446
:1047A000FFE702990020C884FFE7FFE7029800684E
:1047B00050E8050F20F080000190FFE70199029872
:1047C000026842E805100028F0D1FFE7FFE7FFE7A5
:1047D000FFE70298006850E8030F40F040000090A7
:1047E000FFE700990298026842E803100028F0D120
:1047F000FFE7FFE703E00298FFF74EFAFFE704B098
:1048000080BD000080B582B001900198806B00905F
:104810000098FFF745FA02B080BD000084B0039015
:10482000FFE7FFE70398006850E8030F20F490705B
:104830000290FFE702990398026842E803100028FB
:10484000F0D1FFE7FFE7FFE7FFE70398006850E8D4
:10485000050F20F001000190FFE70199039802681D
:1048600042E805100028F0D1FFE7FFE70398006B4E
:10487000012814D1FFE7FFE7FFE70398006850E83D
:10488000030F20F010000090FFE7009903980268E2
:1048900042E803100028F0D1FFE7FFE7FFE70399A4
:1048A000202081F8420003990020086304B070477B
:1048B00080B582B0019001980168C86820F040007E
:1048C000C8600199202081F841000198FFF7E4F9C0
:1048D000002002B080BD000082B00190FFE7FFE73A
:1048E0000198006850E8030F20F0C0000090FFE737
:1048F00000990198026842E803100028F0D1FFE710
:10490000FFE70199202081F8410002B070470000C4
:1049100080B586B00490049890F84200222840F0B8
:10492000A480FFE704988068B0F5805F15D1FFE7A9
:104930000498006988B9FFE7002003900498806A12
:1049400002900498006840686FF35F200299088025
:104950000499886A0230886225E00498806A03908E
:104960000020029004988068B0F5805F08D0FFE7CF
:104970000498806850B9FFE70498006930B9FFE7F0
:104980000498006840680399087007E0049800687C
:10499000406800F07F0003990870FFE70499886A77
:1049A00001308862FFE70499C88D0138C88500048A
:1049B000002856D1FFE704980168C86820F020005D
:1049C000C86004980168C86820F48070C8600498C2
:1049D0000168486920F0010048610499202081F8AD
:1049E00042000499002048630498006B012830D1EC
:1049F000FFE7049900200863FFE7FFE704980068D9
:104A000050E8030F20F010000190FFE7019904988F
:104A1000026842E803100028F0D1FFE7FFE704989E
:104A200000680068C00600280ED5FFE7FFE70020F9
:104A3000009004980068006800900498006840683E
:104A400000900098FFE7FFE70498818DFEF796FD40
:104A500003E00498FFF7AAF8FFE700208DF817009D
:104A600007E000208DF8170003E002208DF8170002
:104A7000FFE79DF8170006B080BD000080B586B046
:104A8000059005980068006920F44050059A116867
:104A9000D26810430861059988680B694A69C96939
:104AA000184310430843049005980068C06849F211
:104AB0000C6188430499084305990968C860059802
:104AC0000068406920F44070059A116892691043AB
:104AD00048610598006841F20001C4F20101884272
:104AE00009D0FFE70598006841F20041C4F20101D6
:104AF000884204D1FFE7FDF7DFFD039003E0FDF7F7
:104B0000C9FD0390FFE70598C069B0F5004F29D1B2
:104B1000FFE703981921A0FB0101059A136802938E
:104B200053685A00DB0FFBF713FC0299864648F2E4
:104B30001F53C5F2EB13AEFB0320420910014FF0E7
:104B4000640C02FB1CEC322202EBCC02A2FB03320F
:104B5000F82303EA521300EB4300C2F3421210445D
:104B6000886026E003981921A0FB0101059A1368CB
:104B7000019353689A009B0FFBF7EAFB0199844667
:104B800048F21F52C5F2EB12ACFB0230430964201D
:104B900003FB10CC322000EB0C10A0FB0202F02033
:104BA00000EA521000EB0310C2F343121044886075
:104BB000FFE706B080BD000083B00190019890F837
:104BC000410021283AD1FFE701988068B0F5805F65
:104BD00013D1FFE70198006978B9FFE70198006AEF
:104BE0000090009800886FF35F2001990968486081
:104BF0000199086A0230086208E0019A106A411CB3
:104C000011620078019909684860FFE70199C88C32
:104C10000138C884000468B9FFE701980168C868D2
:104C200020F08000C86001980168C86840F040002A
:104C3000C860FFE700208DF80B0003E002208DF82C
:104C40000B00FFE79DF80B0003B0704780B540F202
:104C5000BC10C2F20000FEF79BFC80BDFFE7FEE740
:104C600081B08DF803009DF9030000280ED4FFE702
:104C70009DF9031001F01F02012090404A094EF2F5
:104C80000011CEF2000141F82200FFE701B07047A9
:104C90004EF60C50CEF200000068C0F302207047C0
:104CA00082B08DF8070000919DF9070000280AD412
:104CB000FFE7009800019DF907104EF20042CEF286
:104CC000000288540BE0009800019DF8071001F0E5
:104CD0000F014EF61452CEF200028854FFE702B0E4
:104CE0007047000083B00290029800F00700009027
:104CF0004EF60C51CEF200010868019001984FF673
:104D0000FF02104001900198009A40EA0220002220
:104D1000C0F2FA52104301900198086003B0704746
:104D200080B58EB000200A900D90FDF775FAFFF760
:104D30000BFBFFF7B1F8FFF791F8FFF769F9FFF701
:104D400027F9FEF7B3FF0A98FFF786FA01200890CB
:104D5000FDF746F842F632400990FFF7B7F9089898
:104D6000FDF73EF8089B099A0A9845F27C7CC0F64C
:104D7000000C6946C1F818C04B610B61C8608A60BD
:104D8000486002200860962064214FF49672232325
:104D9000FFF7E2F9FFE70BA8FEF792FF40F20420CD
:104DA000C2F200000B990C9A426001600078012861
:104DB00004D1FFE70A20FDF713F8FFE70A20FDF70B
:104DC0000FF8E8E75FEA400C08BF91F0000F4FEAE8
:104DD0008C234FEAC12243EA51514FEA1C5018BFBD
:104DE00000F5F0404FEA300018BF41F000415FEAA3
:104DF0006C5C00F02980BCF1FF3F08BF40F08040B0
:104E00007047130C06BF12044FF0100C4FF0000C4B
:104E1000130E04BF12020CF1080C130F04BF120191
:104E20000CF1040C930F04BF92000CF1020CD30F91
:104E300004BF52000CF1010C11464FF00002A0F12A
:104E40001F00A0EB0C00704711F0004F08BF704727
:104E500031F000413FF4D5AF0B0C06BF09044FF011
:104E6000100C4FF0000C0B0E04BF09020CF1080CE3
:104E70000B0F04BF09010CF1040C8B0F04BF890058
:104E80000CF1020CCB0F04BF49000CF1010CCCF16A
:104E9000200322FA03F341EA030102FA0CF2A0EB29
:104EA0000C0000F10100704723F07F4720F07F4C99
:104EB00080EA030000F00040ACEB070303F57C53ED
:104EC00003F1FF032DE9804909B44FEA144324EAB2
:104ED00003484FEA154B25EA0B4E0FF2042606EB6A
:104EE00013273E7803FB0667C7F5000707FB06F6A6
:104EF0004FEAD64606F102064FEA543707FB066C26
:104F0000CCF1005C4FEA1C472CEA074C0CFB06F581
:104F100007FB06F404EB15464FEA961649085FEACC
:104F2000320234BF00204FF000404FEAD13706FB79
:104F300007FC4FEA1C4C0CFB0BF7D21B03FB0CF7D6
:104F400061EB07010CFB0EF7B0EB074072EB174269
:104F50000CFB08F734BFA2EB0742B2EB074261EB50
:104F600017414FEA0C444FEA910706FB07FC4FEA52
:104F70001C4C0CFB0BF7B0EBC74072EB573203FB3A
:104F80000CF734BFA2EBC742B2EBC74261EB57311B
:104F90000CFB0EF7B0EBC70072EB57720CFB08F777
:104FA00034BFA2EBC702B2EBC70261EB57714FEA05
:104FB000816141EA92114FEA826242EA90124FEA1D
:104FC000806004EBCC04039F4FEAD13706FB07FC5B
:104FD0004FEA1C4C0CFB0BF7D21B03FB0CF761EBED
:104FE00007010CFB0EF7B0EB074072EB17420CFB0E
:104FF00008F734BFA2EB0742B2EB074261EB17415F
:105000004FEA8C5504EB9C244FEA910706FB07FC02
:105010004FEA1C4C0CFB0BF7B0EBC74072EB57325E
:1050200003FB0CF734BFA2EBC742B2EBC74261EB04
:1050300057310CFB0EF7B0EBC70072EB57720CFB4D
:1050400008F734BFA2EBC702B2EBC70261EB57719E
:105050004FEA816141EA92114FEA826242EA90127C
:105060004FEA806015EB4C2544F100044FEAD1373C
:1050700006FB07FC4FEA1C4C0CFB0BF7D21B03FB97
:105080000CF761EB07010CFB0EF7B0EB074072EB7E
:1050900017420CFB08F734BFA2EB0742B2EB074202
:1050A00061EB17414FEA813141EA92414FEA823286
:1050B00042EA90424FEA80304FEA0C7615EB1C151D
:1050C00044F1000448EA03434EEA0B484FF0000E57
:1050D000B2EB080C71EB030724BF624639464EEB76
:1050E0000E0E4FF0000B0018524149414BEB0B0BD9
:1050F000B2EB080C71EB03077BF1000B24BF624697
:1051000039464EEB0E0E4FF0000B0018524149414C
:105110004BEB0B0BB2EB080C71EB03077BF1000BB5
:1051200024BF624639464EEB0E0E51EA020718BF05
:1051300046F0010616EB0E7655F1000254F100011F
:1051400003D5BDE88901BDE80088BDE88901BDE857
:105150000048B619524141EB0101A3F10103704728
:1051600080807F7E7D7C7B7A7978777676757473A4
:10517000727171706F6E6E6D6C6C6B6A6A69686863
:10518000676666656464636362616160605F5F5EF9
:105190005E5D5D5C5C5B5B5A5A595958585757566F
:1051A00056555555545453535252525151505050D4
:1051B0004F4F4F4E4E4D4D4D4C4C4C4B4B4B4A4A26
:1051C0004A4949494848484747474746464645456A
:1051D00045444444444343434342424242414141A3
:1051E0009C46002B30D477002BD04FEA37071CB5F4
:1051F00003B44FF010004FF01001BAF1000F06D0C9
:10520000BCF1000FDCBF40F0080040F008014FF097
:1052100000000FBCBDE810400BF1010BBBF1010F0A
:1052200008BF5FEA170722BF12F1010211F1010165
:105230004FF0004143F1000300F0004043EA00005A
:105240007047F9D35708D0E746EA06464FEA1646B4
:1052500013F1400F1FDD13F1200FDFBF16430A4685
:10526000002120335B42BED0C3F1200746EA064648
:105270004FEA164602FA07F746EA070622FA03F251
:10528000C3F1200701FA07F742EA070221FA03F106
:105290004FF00003A7E746EA020646EA06464FEA51
:1052A000164646EA0106BCBF46EA0646360C4FF0F3
:1052B00000034FF000024FF0000194E72DE9804C0D
:1052C00070B49A46934691E8380007C831EA400C1A
:1052D00048BF34EA430C03D5FFF7E6FDFFF780FF34
:1052E000F0BCBDE8008C2DE9804C70B49A46934622
:1052F00091E8380007C810F0804F08BF13F0804FC6
:1053000003D100F005F8FFF76BFFF0BCBDE8008C9F
:1053100020F07F4723F07F4C80EA030000F000403C
:1053200007EB0C03A3F57C53A3F1FE0392F0000FEF
:1053300000F0B38095F0000F00F077802DE901496F
:105340004FEA114021EA00484FEA144624EA064792
:1053500000FB06FC08FB06F607FB08F818EB0648FE
:105360004CEB164C00FB07F718EB07484CEB1740CB
:105370004FEA124B22EA0B4E4FEA154625EA064742
:105380000BFB06FC0EFB06F607FB0EFE1EEB064EA5
:105390004CEB164C0BFB07F71EEB074E4CEB174B79
:1053A00018EB0B0840F1000018EB0E0B58EB00084F
:1053B00040F100008F1A4FF000014FF000063CBF93
:1053C000C943661B14BFB5EB040C00213CBFC943A5
:1053D000F61B4FEA174427EA04454FEA1C472CEA1C
:1053E000074C04FB076205FB07F70CFB05F616EB01
:1053F000074642EB174204FB0CFC16EB0C4642EB53
:105400001C421BEB060658EB020241414EEA8E0E8F
:1054100046EA9E0601D5BDE80189B619524141EB25
:105420000101A3F10103BDE801894FEA144524EA13
:1054300005464FEA114721EA074C05FB07F406FB36
:1054400007F70CFB06F111EB074144EB174405FB92
:105450000CFC11EB0C4144EB1C444FEA124722EACE
:10546000074C05FB07F206FB07F70CFB06F616EBED
:10547000074642EB174205FB0CFC16EB0C4642EBD1
:105480001C456A1854F1000148BF7047B6195241D3
:1054900041EB0101A3F10103704795F0000F37D0F4
:1054A0004FEA114221EA02464FEA144724EA074C28
:1054B00002FB07F106FB07F70CFB06F414EB0744AD
:1054C00041EB174102FB0CFC14EB0C4441EB1C417B
:1054D0004FEA154725EA074C02FB07F506FB07F7DD
:1054E0000CFB06F616EB074645EB174502FB0CFCDA
:1054F00016EB0C4645EB1C42121951F1000148BF56
:105500007047B619524141EB0101A3F10103704705
:105510004FEA144524EA05464FEA114721EA074CB1
:1055200005FB07F106FB07F70CFB06F212EB07423F
:1055300041EB174105FB0CFC12EB0C4251EB1C41FB
:105540004FF0000648BF7047921841EB0101A3F1EC
:105550000103704703B401984100009850EAC1204C
:1055600018BF04204A0D18BF40F0010040F2FF723E
:10557000B2EB515F08BF40F00200012808BF0520D0
:1055800002B0704730380A2801D20120704700204D
:105590007047000010B500290AD00878002807D00D
:1055A00005487844FBF7B8FF002801D0002010BD63
:1055B0000248784410BD00003A02000032020000A8
:1055C00010B500290AD00878002807D0054878448B
:1055D000FBF7A2FF002801D0002010BD024878444C
:1055E00010BD00002A02000022020000F1EE100AA5
:1055F0004FF6FF71C0F2C03120EA010040F0407068
:10560000E1EE100A7047FBF791BBFBF7C5BC000049
:1056100000000000000000003031323334353637EE
:1056200038394142434445464030580030313233E6
:1056300034353637383961626364656640307800E6
:10564000040000080000000000000002000100004B
:10565000103031323334353637383961626364653E
:10566000667870003031323334353637383941425C
:10567000434445465850000002400000000000A08E
:105680000000000005400000000000C8000000000D
:105690000C4000000000409C000000001940000089
:1056A0000020BCBE0000000034400000BFC91B8EBB
:1056B00000000004B5400000504BCFD06607E2CF99
:1056C000010000006C4100003E8251AADFEEA734C9
:1056D00001000000D9420000DCB5A0E23A301F977B
:1056E000FFFFFFFFB4450000FD25A0C8E9A3C14F9F
:1056F000FFFFFFFFFF3F00000000008000000000F0
:10570000FF3F0000000000800000000000000000DB
:105710000000000001020304060708090000000061
:10572000010203040006101600061016090000000E
:105730000000000000008000000C0240010000207A
:10574000000C024002000008000C02400300008030
:10575000000C024004000002000C0240050000049E
:10576000000C024006000010000C02400700004040
:10577000000C0240080000080010024022E7958C4F
:10578000E99DA2092200636C7320256400736C6597
:1057900065703D256400787374722025642C25643F
:1057A0002C25642C25642C25642C25642C25642C44
:1057B00025642C25642C25642C25730008590008C9
:1057C0000000002010000000000200081859000826
:1057D00010000020700800001C0200081C000000DF
:1057E00043000000F8FFFFFF0C0000000E00000067
:1057F0000F0000002E000000100100004300000018
:10580000F8FFFFFF004040404040404040404141E1
:105810004141414040404040404040404040404085
:10582000404040404005020202020202020202021F
:10583000020202020220202020202020202020021C
:1058400002020202020290909090909010101010AC
:105850001010101010101010101010101010101048
:1058600002020202020288888888888808080808DC
:1058700008080808080808080808080808080808A8
:1058800002020202400000000000000000000000D0
:105890000000000000000000000000000000000008
:1058A00000000000000000000000000000000000F8
:1058B00000000000000000000000000000000000E8
:1058C00000000000000000000000000000000000D8
:1058D00000000000000000000000000000000000C8
:1058E00000000000000000000000000000000000B8
:1058F00000000000000000000000000000000000A8
:1059000000000000000000000024F400010000007E
:0859100010000000000000007F
:04000005080001C529
:00000001FF
