:020000040800F2
:1000000078050020D90100081D1C0008911900087E
:10001000191C0008F102000815200008000000006B
:10002000000000000000000000000000251C000887
:100030000103000800000000211C0008291C000822
:10004000F3010008F3010008F3010008F3010008C0
:10005000F3010008F3010008F3010008F3010008B0
:10006000F3010008F3010008F3010008F3010008A0
:10007000F3010008F3010008F5020008F30100088D
:10008000F3010008F3010008F3010008F301000880
:10009000F3010008F3010008F3010008F301000870
:1000A000F3010008F3010008F3010008F301000860
:1000B000FD1C0008F3010008F3010008F30100082B
:1000C000F3010008F3010008F3010008F301000840
:1000D000F3010008F3010008F301000809200008FB
:1000E000F3010008F3010008F3010008F301000820
:1000F000F3010008F3010008F3010008F301000810
:10010000F3010008F3010008F3010008F3010008FF
:10011000F3010008F3010008F3010008F3010008EF
:10012000F3010008F3010008F3010008F3010008DF
:10013000F30100080000000000000000F3010008C7
:10014000F3010008F3010008F3010008F3010008BF
:10015000F3010008F3010008F3010008F3010008AF
:10016000F3010008F3010008F3010008F30100089F
:10017000F3010008F3010008F3010008000000008B
:1001800000000000F3010008000000000000000073
:10019000F30100080000000000000000F301000867
:1001A000000000000000000000000000F301000853
:1001B000F3010008F3010008F3010008F30100084F
:1001C000F3010008DFF80CD000F07AF8004800478F
:1001D0001920000878050020064880470648004797
:1001E000FEE7FEE7FEE7FEE7FEE7FEE7FEE7FEE7E7
:1001F000FEE7FEE7E91C0008C50100082DE9F05FF5
:100200000546002092469B46884606468146402485
:100210001BE0284641464746224600F041F8534637
:100220005A46C01A914110D311461846224600F092
:1002300028F82D1A67EB01084F46224601200021BD
:1002400000F01FF817EB00094E41201EA4F1010435
:10025000DFDC484631462A464346BDE8F09FD2B22D
:1002600001E000F8012B491EFBD270470022F6E79F
:1002700010B513460A4604461946FFF7F0FF20461C
:1002800010BD202A04DB203A00FA02F1002070475A
:100290009140C2F1200320FA03F3194390407047C4
:1002A000202A04DB203A21FA02F00021704721FACB
:1002B00002F3D040C2F12002914008431946704732
:1002C0001CB509480090094801900546009C06E0CD
:1002D000E06840F0010394E8070098471034AC420E
:1002E000F6D3FFF773FF0000C0200008E0200008ED
:1002F000FEE7000040F21800C2F2000000F058B81B
:100300007047000072B600BFFEE7000070B5866D52
:10031000044600F095FA94F83510022925D10546D7
:100320002068216C026822F016020260426922F005
:100330008002426109B9A16C19B1016821F008017C
:100340000160016821F00101016000BF20680068C0
:10035000C0070ED000F074FA401B0628F6D3202008
:100360006065032084F835000CE080206065012082
:1003700008E0E06D3F2101FA00F0B060012084F850
:1003800035000020002184F8341070BD90F835103D
:10039000022909D1052180F835100068016821F093
:1003A00001010160002070478021416501207047F4
:1003B000F0B581B00021009140F20001C2F20001CD
:1003C0000B68D0E9166148F2B51537680822C1F606
:1003D0004E358A403A42A3FB05350CD003681C68B1
:1003E000640708D51C6824F004041C60B260426DE8
:1003F00042F00102426501228A403A4208D0036875
:100400005B691B0604D5B260426D42F00202426590
:1004100004228A403A4208D003681B689B0704D52F
:10042000B260426D42F00402426510228A403A42B4
:1004300016D001680B681B0712D5B2600B680A68FA
:100440005B0306D4D20506D40A6822F008020A60CB
:1004500001E011033FD4016C11B1044688472046E6
:10046000C26D202101FA02F33B4241D001680F68BE
:10047000FF063DD5B36090F835700B68052F1AD193
:1004800023F016030B604B6923F080034B61036C70
:100490000BB9836C1BB10B6823F008030B603F2181
:1004A0009140B160012180F83510016D002280F883
:1004B0003420D9BB3EE00A685B0310D4D20512D4C5
:1004C0000A6822F010020A60012180F8351000212C
:1004D00080F8341007E0816C0029BED1C0E7110319
:1004E00001D4416C00E0C16B11B10446884720463D
:1004F000416DF9B1416DC90716D0052180F835105D
:100500000168AA0A0B6823F001030B60009B01330A
:100510009342009302D80B68DB07F7D1012180F8E2
:100520003510002180F83410C16C19B101B0BDE85C
:10053000F040084701B0F0BD2DE9F041044600F05D
:100540007FF9C4B10546022084F8350000202168F7
:1005500084F83400086820F0010008602068016811
:10056000C9070BD000F06CF9401B0528F6D9032110
:10057000202203207AE00120BDE8F081016848F2E2
:100580003F02CFF21002D4E9013501EA020ED4E9AC
:10059000032143EA0E032B43D4E9056C1A43D4E943
:1005A00007781143314341EA0702616A42EA0802CF
:1005B000042942EA0C0303D1D4E90B273A4313433D
:1005C00003604269042922F0070241EA02012DD1A9
:1005D000D4E90A5341EA050143B3BCF5005F08D0F2
:1005E000BCF1000F12D1022D16D0012D07D09DB104
:1005F00019E0032D17D8DFE805F00B0F0B02A3F16C
:10060000C072B2FA82F252094AB90FE0032D02D247
:10061000012222B90AE006D1C3F3006232B10121FE
:100620004022012022E00022002AF8D100F0F80246
:100630004AF6AB23103ACAF6AA23A2FB033742F2CA
:10064000700341613909C0F60003595C40F2FF3381
:1006500098435F2A4FF03F0288BF0430C4E9160177
:1006600002FA01F18160002201210020626584F814
:100670003510BDE8F0810000B0B5044600F0E0F8A8
:10068000054640F20400C2F200000078611C18BF69
:10069000044400BF00F0D4F8401BA042FAD3B0BD20
:1006A0002DE9F04F83B000F1200200F13E4741F602
:1006B0000005009207F1FF77C4F2020507224FEA16
:1006C000B726A84208BF0622062E38BF4FEAB72237
:1006D00000274FF0000A4FF0000801920AE000BF27
:1006E00008F101080AF1020AB8F1100F07F1040736
:1006F00000F09D800D68012202FA08FC15EA0C0941
:10070000EED04D68032205F0030BABF10106012E7C
:1007100002FA0AFE10D88668CC6826EA0E0604FAA9
:100720000AF4344384604468C5F3001524EA0C06D7
:1007300005FA08F52E434660BBF1030F1BD0C668CF
:100740008D6826EA0E0605FA0AF52E43BBF1020F64
:10075000C66010D16FF00302009D02EA580655F8FA
:1007600006C007F01C040F220B69A2402CEA02020B
:10077000A3401A43AA5102684B6822EA0E0203F012
:10078000030606FA0AF6324313F4403F0260A7D08C
:10079000002243F644030292C4F202031A6843F6AD
:1007A000004442F480421A601A68C4F2010402F460
:1007B00080420292029A28F003024FF6084C22442B
:1007C000CFF6FF7C52F80C3007F00C060F25B54031
:1007D000AB43019D05FA06F6334342F80C30A2689C
:1007E0004B6842EA090643F60C4CDD0258BF22EA88
:1007F0000906A660C4F2010CDCF800209D0242EA62
:10080000090658BF22EA0906CCF8006062689D0319
:1008100042EA090658BF22EA090666602268DB033D
:1008200042EA090658BF22EA0906266058E703B0E3
:10083000BDE8F08F0069084018BF01207047000034
:1008400040F27410C2F200000068704740F20400E9
:1008500040F27411C2F20000C2F2000100780A688E
:10086000104408607047000080B543F60040C4F2B1
:100870000200016841F400710160016841F4806187
:100880000160016841F480710160032000F08AF882
:100890000F2000F005F800F02BF8002080BD0000CC
:1008A000B0B540F20402C2F2000240F20001127838
:1008B000C2F200014FF47A730968B3FBF2F2044606
:1008C000B1FBF2F1084600F0B5FB0F2C4FF001052B
:1008D0000CD858B94FF0FF3021460022002500F017
:1008E00035F840F20800C2F2000004602846B0BDAE
:1008F00082B0002043F640010190C4F202014A6830
:1009000042F480424A604A6802F480420192019AAD
:100910000090086840F080500860086800F080503F
:100920000090009802B07047002848BF704700F060
:100930001F01012202FA01F11C2202EAD0004EF24C
:100940000012CEF2000281507047000010B54EF642
:100950000C5CCEF2000CDCF80030C3F3022E8EF0FB
:100960000704042C28BF0424BEF103034FF0FF3E0C
:100970000EFA04F438BF0023A14399400EFA03F3A2
:100980009A43114300F1604200F00F03090102F5A0
:100990006442043B6344002848BF03F10C02117019
:1009A00010BD00004EF60C51CEF200010A684FF661
:1009B000FF031A4060F30A2242F0806040F0FD70AD
:1009C0000860704770B582B00020019043F6400087
:1009D000C4F202000168402641F0805101600068C5
:1009E000C4F20E2600F080500190019847F20405F1
:1009F0000120C4F200053060FFF722FF044600BF6B
:100A00002868C00306D4FFF71BFF001BB0F57A7FF0
:100A1000F6D90EE001207060FFF712FF044600BF18
:100A20002868800308D4FFF70BFF001BB0F57A7F1E
:100A3000F6D9032002B070BD002002B070BD0000E6
:100A4000002804BF012070472DE9F04143F6080853
:100A5000C4F202080446D8F8F8030D4600F00F006F
:100A6000884207D288F8F853D8F8F80300F00F004E
:100A7000A84276D12068810717D5410705D5D8F857
:100A8000001041F4E051C8F80010010705D5D8F86E
:100A9000001041F46041C8F80010D8F80010A268B6
:100AA00021F0F0011143C8F80010C0073FD1D8F879
:100AB000F80300F00F00A84207D988F8F853D8F8D7
:100AC000F80300F00F00A8424BD12068410707D57A
:100AD000D8F80010E26821F4E0511143C8F8001082
:100AE000000708D5D8F80000216920F4604040EAEA
:100AF000C100C8F8000000F07BF8D8F8001042F2FE
:100B00005802C1F30311C0F60002515C40F200022A
:100B100020FA01F140F20800C2F200000068C2F2BF
:100B200000021160FFF7BCFE0020BDE8F0816068A4
:100B3000811E022907D258F8081C89015CBF0120D8
:100B4000BDE8F08110E0012807D158F8081C89039E
:100B50005CBF0120BDE8F08106E058F8081C890759
:100B600002D40120BDE8F081D8F8001021F0030183
:100B70000843C8F80000FFF763FE064641F28837D5
:100B8000D8F80000616800F00C00B0EB810F8ED047
:100B9000FFF756FE801BB842F2D90320BDE8F08172
:100BA00040F2000043F60801C2F20000C4F2020164
:100BB0000068096842F26802C1F38221C0F60002AF
:100BC000515CC8407047000040F2000043F6080145
:100BD000C2F20000C4F202010068096842F2680231
:100BE000C1F34231C0F60002515CC84070470000BA
:100BF00010B543F60404C4F202046068C0F3810136
:100C000042F20040C0F2F400DFE801F03F020716B4
:100C100041F20020C0F27A0010BD216801F03F02CD
:100C2000216823684902C3F3881114D4A1FB000191
:100C30000023FFF7E3FA15E0216801F03F02216885
:100C400023684902C3F3881113D4A1FB00010023D8
:100C5000FFF7D4FA14E041F20020C0F27A004843D2
:100C6000B0FBF2F021680222C1F3014102EB410125
:100C700009E041F20020C0F27A004843B0FBF2F0F4
:100C80002168C1F30271B0FBF1F010BD002804BF70
:100C9000012070472DE9F04182B00446007843F608
:100CA0000006C007C4F202060CD0B06800F00C00C9
:100CB000042840F082803068800303D560680028F3
:100CC00000F050812078800723D5B06810F00C0F19
:100CD00011D0B06800F00C00082802D17068400202
:100CE00009D5B06800F00C000C2840F08E807068C8
:100CF000400200F18A803068800703D5E06801284F
:100D000040F030813068216920F0F80040EAC100ED
:100D100030602078000713D42078400727D4A569D5
:100D2000002D00F01B81B06800F00C00082840F096
:100D30009780012D40F0E980012002B0BDE8F081EC
:100D40006069002840F20000C4F2472078D00121F9
:100D5000C0F8801EFFF774FD054600BF706F800766
:100D6000DAD4FFF76DFD401B0228F7D9B6E0306CEE
:100D70005FEAC0080AD400200190306C40F0805037
:100D80003064306C00F080500190019847F2000709
:100D9000C4F200073868C0052ED4386840F480706B
:100DA0003860FFF74DFD05463868C00524D4FFF7CD
:100DB00047FD401B0228F7D990E0B06800F00C0016
:100DC000082803D1706840023FF575AFB06800F0A5
:100DD0000C000C2803D1706840023FF56CAF6568C9
:100DE0003068B5F5A02F00F0D580B5F5803F40F014
:100DF000D88040F48030DAE0A568306F052D50D0FF
:100E0000012D55D140F0010058E0E068002800F0C5
:100E1000AD800020C4F2472001210160FFF710FDE2
:100E2000054600BF306880073FF56CAFFFF708FD4F
:100E3000401B02284FF00300F4D902B0BDE8F08156
:100E40000021C0F8801EFFF7FBFC0546706F80078D
:100E50007FF562AFFFF7F4FC401B0228F6D93DE0B6
:100E60000027C4F2472700203866FFF7E9FC022D6F
:100E700005460BD13068800140F1B880FFF7E0FCF7
:100E8000401B02284FF00300F4D9D6E730688001F8
:100E900064D5FFF7D5FC401B02284FF00300F5D9BD
:100EA000CBE740F004003067306F40F0010005E010
:100EB00020F001003067306F20F004003067FFF74A
:100EC000BFFC002D054641F2883712D0306F8007F5
:100ED00012D4FFF7B5FC401BB842F7D9032002B08B
:100EE000BDE8F081FFF7ACFC401BB8424FF00300B7
:100EF000A3D8306F8007F5D4B8F1000F3FF50FAFDE
:100F0000306C20F08050306409E77068E16900F4CB
:100F100080028A4226D1216A00F03F028A4221D112
:100F200047F6C071626A0140B1EB821F1AD1A16A13
:100F30004FF6FF73C903994300F44032A1F58031A5
:100F40008A420FD1E16A00F07062B2EB016F09D101
:100F5000216B00F0E040B0EB017F03D1002002B034
:100F6000BDE8F081012002B0BDE8F0810020C4F2AC
:100F7000472000210160FFF763FC054630688007C9
:100F80007FF5C7AEFFF75CFC401B02284FF0030063
:100F9000F4D952E740F480203060306840F480306B
:100FA00005E020F480303060306820F4802030602C
:100FB000FFF746FC002D054614D000BF30688003C3
:100FC0003FF580AEFFF73CFC401B64284FF0030068
:100FD000F4D932E7FFF734FC401B64284FF00300DC
:100FE0003FF62BAF30688003F4D46BE604F11C05A8
:100FF0002FCD246B084340EA8210D9034FF6FF72CD
:101000009143A1F5803140EA0560084340EA04704D
:10101000706001203866FFF713FC044630688001D9
:101020009CD4FFF70DFC001B02284FF00300F5D9FC
:1010300003E70000411E0020B0EB116F1CBF012030
:1010400070474EF21002CEF2000251604EF623516C
:10105000CEF20001F0230B70072190601160704701
:10106000704700007047000090F83C20012A4FF0C4
:10107000020255D010B5012380F83C3080F83D20A5
:101080000268D2F804E0D2F808C00C682EF07003B1
:10109000234341F2FF74C4F20004A24253600DDC0A
:1010A00040F2FF73C4F200039A4215DCB2F1804FA4
:1010B00029D040F20043C4F2000322E040F2FF33A3
:1010C000C4F201039A4212DC41F60003C4F20003A9
:1010D0009A4218D0002312E040F60003C4F2000345
:1010E0009A4210D040F60043C4F2000309E044F2F3
:1010F0000003C4F201039A4205D040F20043C4F257
:1011000001039A4204D149682CF08003194391608D
:101110000121002280F83D1080F83C20BDE81040FD
:1011200010467047002804BF0120704710B50446E0
:1011300090F83D0028B9002084F83C00204600F0DB
:101140001FF8022084F83D002068211D00F0DCFD1E
:10115000012084F8460084F83E0084F83F0084F8BB
:10116000400084F8410084F8420084F8430084F889
:10117000440084F8450084F83D00002010BD0000C4
:101180000068B0F1804F18BF704780B582B0002072
:10119000019043F64000C4F202000168002241F0D1
:1011A000010101600068002100F001000190019838
:1011B0001C20FFF7CBFB1C2002B0BDE88040FFF7EE
:1011C000B3BB000090F83C20012A4FF002026ED021
:1011D00080B5012380F83C3080F83D20D0F800C075
:1011E0004FF67772DCF8083023EA0202CCF80820C8
:1011F0000B684F2B28DC1F2B44DD202B45D0302BD8
:1012000043D0402B40F0AC80D1F804E0C968DCF852
:101210002030DCF8202022F00102CCF82020DCF87D
:10122000182022F0F00242EA011123F00A0242EAF9
:101230000E02CCF81810CCF82020DCF8081041F091
:10124000470121F0300127E06F2B32DDB3F5005F5D
:1012500073D0B3F5805F21D0702B40F08180D1E94D
:1012600001E3C968DCF8082043EA0E0322F47F4258
:1012700043EA01211143CCF80810DCF8081041F0D2
:10128000770109E00BB1102B6AD1DCF8081021F0CE
:101290007001194341F00701CCF808100022012128
:1012A00080F83D10002180F83C10BDE880401046D9
:1012B0007047502B21D0602B52D1D1F804E0C9687F
:1012C000DCF82030DCF8202022F01002CCF82020BE
:1012D000DCF8182022F4704242EA013123F0A00227
:1012E00042EA0E12CCF81810CCF82020DCF80810D6
:1012F00041F0670121F01001CEE7D1F804E0C968A0
:10130000DCF82030DCF8202022F00102CCF820208C
:10131000DCF8182022F0F00242EA011123F00A0260
:1013200042EA0E02CCF81810CCF82020DCF80810A5
:1013300041F0570121F02001AEE7D1E901E3C9688E
:10134000DCF8082043EA0E0322F47F4243EA01213D
:101350001143CCF80810DCF8081041F480419BE7F9
:1013600001229CE77047000070B504460068C5681C
:101370000669B10716D515F0020113D06FF002010E
:101380000161012121778069800703D02046FFF7A2
:10139000E9FF05E0204600F08DF8204600F08CF8CB
:1013A00000202077700718D515F0040015D02068AC
:1013B0006FF00401016102212177806910F4407F00
:1013C00003D02046FFF7CEFF05E0204600F072F87C
:1013D000204600F071F800202077300717D515F06F
:1013E000080014D020686FF0080101610421217702
:1013F000C069800703D02046FFF7B4FF05E0204610
:1014000000F058F8204600F057F800202077F0064A
:1014100018D515F0100015D020686FF0100101618B
:1014200008212177C06910F4407F03D02046FFF7E0
:1014300099FF05E0204600F03DF8204600F03CF81A
:1014400000202077F00718BF15F0010002D1300608
:1014500009D412E020686FF001010161204600F01C
:101460002DF8300609D515F0800006D020686FF001
:10147000800101612046FFF7F3FD700609D515F0E4
:10148000400006D020686FF040010161204600F066
:1014900017F8B00658BF70BD15F0200008D02168BD
:1014A0006FF0200220460A61BDE87040FFF7DABD08
:1014B00070BD0000704700007047000070470000DA
:1014C000704700007047000070470000B0B582B060
:1014D00001680A68CC684B6902F02F05202D04F0E2
:1014E000200505D125B102B0BDE8B04000F0ACBC8C
:1014F0005FEA027C1EBF03F0010E04F4907313EB4D
:101500000E0340D1036BD50618D5012B16D114F06C
:10151000100313D0002201920A6801924A680192D6
:10152000019A4969490647D4818DC28DC38D002B2C
:1015300018BF914240F0108102B0B0BD13062AD509
:1015400014F0800327D090F84120212AF4D182683A
:10155000B2F5805F03D10269002A00F03081026A8F
:10156000531C036212784A60C28C013A1304C2848D
:10157000E2D1C86820F08000C860C86840F0400030
:10158000C86002B0B0BDD10718BF14F480715CD13F
:10159000510760D466E05206CED514F04002CBD09D
:1015A000CA6822F04002CA60202180F8411002B0CF
:1015B000BDE8B04000F0BEB9C16B0A68526893B292
:1015C000002BB9D0858DAB42B6D2C285C969B1F5C1
:1015D000807F33D0016851E8031F026821F48071D5
:1015E00042E80313002BF5D1016851E8051F02689A
:1015F00021F0010142E80513002BF5D1016851E803
:10160000051F026821F0400142E80513002BF5D1C7
:10161000202180F842100021016300BF016851E8D9
:10162000031F026821F0100142E80313002BF5D1DB
:10163000C16B04460846FEF769FE2046022141635D
:10164000818DC28D891A89B2AFE0416C41F00101F0
:101650004164510706D5BEF1000F03D0416C41F043
:1016600002014164910706D5BEF1000F03D0416C21
:1016700041F004014164BCF1000F06D55EEA0501AA
:1016800003D0416C41F008014164416C00293FF4F2
:1016900053AF910604D51DB1044600F0D5FB20469A
:1016A00001684969426C01F0400102F008028918A2
:1016B0004BD000BF016851E8031F026821F490710C
:1016C00042E80313002BF5D1016851E8051F0268B9
:1016D00021F0010142E80513002BF5D1016B01292E
:1016E0000AD100BF016851E8031F026821F0100110
:1016F00042E80313002BF5D1202180F8421000218D
:10170000016301684969490654D500BF016851E881
:10171000051F026821F0400142E80513002BF5D1B6
:10172000C16B002946D041F63D62C0F60002044676
:1017300008460A65FEF72AFE00283FF4FDAEE06B7E
:10174000016D02B0BDE8B04008470446FFF7BCFE9B
:101750000020606402B0B0BD891A00BF026852E880
:10176000032F036822F4907243E80325002DF5D17E
:10177000026852E8052F036822F0010243E80525BC
:10178000002DF5D1202280F842200022026300BF04
:10179000026852E8032F036822F0100243E8032591
:1017A000002DF5D1022289B2426302B0BDE8B040FB
:1017B000FFF788BE02B0BDE8B040FFF785BE026A01
:1017C00032F8023B6FF35F234B600262CCE600000D
:1017D000002804BF0120704710B5044690F841006E
:1017E00028B9002084F84000204600F021F8242089
:1017F00084F841002068C16821F40051C16020468E
:1018000000F082FB2068016921F490410161416987
:1018100021F02A014161C16841F40051C1600020FA
:101820002021606484F8411084F84210606310BD88
:101830002DE9F04786B0044644F600070068C4F27C
:1018400000070026B8420596CDE903660296019688
:1018500002D006B0BDE8F08743F630000096C4F22F
:101860000200016901AD41F48021016101694FF07D
:10187000020801F4802100910099009601684FF060
:10188000030941F00401016001684FF0070A01F00B
:101890000401009100990096016841F0080101607F
:1018A0000068294600F00800009000982020019070
:1018B00007F5E030CDE90286CDF81090CDF814A000
:1018C000FEF7EEFE4FF48070CDE9010803A880E832
:1018D000400607F5E2302946FEF7E2FE40F2180521
:1018E00046F25800C2F20005C4F202004FF0006157
:1018F00040224FF4806385E847002846C5E9043656
:10190000C5E90666C5E90866FEF716FE002818BF99
:10191000FEF7F8FC272000210022A563AC63FFF747
:1019200015F82720FFF700F806B0BDE8F0870000A3
:10193000704700007047000040F21001C2F2000141
:101940000A7802B17047C2B291F90700062A04D1A1
:10195000012802DC0130C8717047022A04D1012835
:1019600002DB0138C8717047012A18BF70478879B7
:101970000323421C8A710A1800205070CA79012A78
:1019800008BF0223002A08BF01230B70C8717047EB
:10199000FEE7000080B540F20810C2F200006C21A2
:1019A000FEF764FC80BD00002DE9F04381B0814664
:1019B0004FF0000840F20920C9E9000841F2000098
:1019C000C4F202004FF40061FEF734FF002841D05A
:1019D00040F20810C2F2000042F2780600F1080757
:1019E000C0F60006002407E087F80080F5B108344F
:1019F000482C07F10C072AD0311948684988FEF7AE
:101A000019FF0546B0FA80F017F8081C400981421A
:101A1000ECD007F8080CFEF713FF002D47F8040C74
:101A2000E2D038780028E1D11AE000BFFEF708FFC5
:101A300057F8041C401AB0F57A7FD8D938780028B6
:101A4000D5D1315D0120387089F800100CE001B06B
:101A5000BDE8F083082089F8000001B0BDE8F083FC
:101A6000305D89F80000002089F80100FEF7E8FEEB
:101A7000C9F8040001B0BDE8F083000080B582B071
:101A80000020019043F63000C4F2020001680022F9
:101A900041F4001101600068002100F40010019081
:101AA00001980E20FEF752FF0E2002B0BDE88040E4
:101AB000FEF73ABF70B586B0002643F630000596B3
:101AC000CDE90366CDE901660096C4F20200016823
:101AD00040F6004441F0800101600168C4F2020454
:101AE00001F08001009100990096016801AD41F07C
:101AF00004010160016801F0040100910099009661
:101B0000016841F010010160016801F010010091CD
:101B100000990096016841F008010160016801F038
:101B20000801009100990096016841F001010160EF
:101B30000068294600F00100009000984FF4006012
:101B4000CDE9010604F580600396FEF7A9FD4FF686
:101B50008060CDE90106204629460396FEF7A0FDE8
:101B600006B070BD80B586B040F278000021C2F2A8
:101B700000004FF0804259234FF0FF3CCDE90411A3
:101B8000CDE90211CDE90011C0E90023C0E9021C32
:101B900001618161FFF7C6FA002818BFFEF7B2FBAA
:101BA0004FF48050029040F27800C2F2000002A987
:101BB000FFF708FB002818BFFEF7A4FB0020CDE9C3
:101BC000000040F27800C2F200006946FFF74CFACC
:101BD000002818BFFEF796FB06B080BD80B540F226
:101BE000C00044F60001C2F20000C4F2000100236C
:101BF0004FF00C0C4FF4E13280E80E00C0E90333E3
:101C0000C0E905C3C361FFF7E3FD002808BF80BD3D
:101C1000BDE88040FEF776BBFEE70000FEE700006F
:101C20007047000070470000FEF710BE10B594B07A
:101C300007AC20463421FEF719FB002043F6400193
:101C40000690CDE90400CDE902000190C4F2020142
:101C50000A6842F080520A60096801F080510191DF
:101C60000199019047F20000C4F20000016841F4BC
:101C70004041016000684FF4800100F44040019051
:101C80000198012007904FF480300E9104210890B4
:101C900002200F91B4210D90CDE91010CDE9120072
:101CA0002046FEF7F3FF10B172B600BFFEE7FEF765
:101CB00089FE10B172B600BFFEE70F20029002202D
:101CC0000390002004904FF4A05005904FF48050F2
:101CD000069002A80521FEF7B3FE10B172B600BF50
:101CE000FEE714B010BD00004EF68850CEF20000A2
:101CF000016841F4700101607047000040F2780013
:101D0000C2F20000FFF730BB10B540F6FF3E03689B
:101D1000C4F2000E40F2004C7045C4F2010C0FDC1E
:101D2000B0F1804F19D040F20042C4F2000290425C
:101D300013D040F60002C4F2000290420DD010E031
:101D400040F60042C4F20002904206D0604504D042
:101D50000022C4F20102904203D14A6823F07003CA
:101D6000134341F6FF72C4F2000290420FDC70454B
:101D700021DCB0F1804F41D040F20042C4F20002B9
:101D800090423BD040F60002C4F2000234E043F639
:101D9000FF72C4F2010290421EDC42F20002C4F261
:101DA000000290422AD00022C4F20102904225D0C3
:101DB000604523D026E040F60042C4F20002904283
:101DC0001CD041F60002C4F20002904216D041F647
:101DD0000042C4F200020FE044F20002C4F2010229
:101DE00090420BD044F60002C4F20102904205D0AA
:101DF00044F20042C4F20102904203D1CA6823F4C3
:101E00004073134323F080024B69D1F800E08C68E3
:101E10001A430260C46240F48062C0F828E0624560
:101E200004BF09690163012141610169C90708BF54
:101E300010BD016921F00101016110BD806B00211D
:101E4000C185C184FFF740BB90F84210222918BF1A
:101E500070478268B2F5805F02D1016900294AD0DB
:101E6000816AB2F5805F07D00AB9026922B10268BF
:101E7000526802F07F0201E0026852680A70816ACB
:101E800001318162C18D01390A04C18500D07047DA
:101E90000168CA6822F02002CA60CA6822F480720F
:101EA000CA604A6922F001024A61202180F842108A
:101EB00000214163026B012A18BFFFF739BD81B0D1
:101EC000016300BF016851E8031F026821F010019F
:101ED00042E80313002BF5D101680A68D20606D543
:101EE000002200920A680092496800910099818D51
:101EF00001B0FFF7E7BA0168826A49686FF35F21B2
:101F000022F8021B8262BDE7B0B50446006804F106
:101F100008030ECB0569194325F440552A43026195
:101F20006269E3691143C268194349F20C639A4339
:101F30001143C1604169A26921F4407141F200433B
:101F4000114340F48062C4F201039A42416102D11C
:101F5000FEF73AFE01E0FEF723FEE1694FF69C75BD
:101F600063681922C0F6FF75B1F5004FA0FB0201AE
:101F70001CD15A00DB0FFEF741F948F21F51C5F2A0
:101F8000EB11A0FB01235A0905F1805302FB03006A
:101F9000322303EBC000A0FB01014FF4F87000EA0C
:101FA000111000EB0210C1F3421118E09A009B0FD0
:101FB000FEF724F948F21F51C5F2EB11A0FB0123F3
:101FC0005A0902FB0500322303EB0010A0FB0101BC
:101FD000F02000EA511000EB0210C1F34311084455
:101FE00021688860B0BD0000FFF7D4BC80B582B026
:101FF0006846FFF7D9FCDDE90001FFF79DFC1420DE
:10200000FEF73AFB02B080BD40F2C000C2F2000011
:10201000FFF75CBAFEE70000FEF726FCFFF706FEBE
:10202000FFF748FDFFF72AFDFFF7D8FDFFF79AFD00
:10203000FFF7DAFFFFF7DAFFFCE702E008C8121F3C
:1020400008C1002AFAD170477047002001E001C1A1
:10205000121F002AFBD170470000000000000000A2
:10206000010203040607080900000000010203043E
:10207000000610160006101600008000000C02403A
:1020800001000020000C024002000008000C024089
:1020900003000080000C024004000002000C02401B
:1020A00005000004000C024006000010000C024075
:1020B00007000040000C0240080000080010024029
:1020C000E020000800000020100000003A20000876
:1020D000F020000810000020680500004A200008D9
:1020E0000024F400010000001000000000000000C7
:04000005080001C529
:00000001FF
