:020000040800F2
:1000000070060020D901000859230008BD2000080F
:1000100045230008210500085D2A000800000000B3
:100020000000000000000000000000006123000844
:1000300031050008000000005D2300085D24000871
:10004000F3010008F3010008F3010008F3010008C0
:10005000F3010008F3010008F3010008F3010008B0
:10006000F3010008F3010008F3010008F3010008A0
:10007000F3010008F301000825050008F30100085A
:10008000F3010008F3010008F3010008F301000880
:10009000F3010008F3010008F3010008F301000870
:1000A000F3010008F3010008F3010008F301000860
:1000B00031250008F3010008F3010008F3010008EE
:1000C000F3010008F3010008F3010008F301000840
:1000D000F3010008F3010008F3010008A12900085A
:1000E000F3010008F3010008F3010008F301000820
:1000F000F3010008F3010008F3010008F301000810
:10010000F3010008F3010008F3010008F3010008FF
:10011000F3010008F3010008F3010008F3010008EF
:10012000F3010008F3010008F3010008F3010008DF
:10013000F30100080000000000000000F3010008C7
:10014000F3010008F3010008F3010008F3010008BF
:10015000F3010008F3010008F3010008F3010008AF
:10016000F3010008F3010008F3010008F30100089F
:10017000F3010008F3010008F3010008000000008B
:1001800000000000F3010008000000000000000073
:10019000F30100080000000000000000F301000867
:1001A000000000000000000000000000F301000853
:1001B000F3010008F3010008F3010008F30100084F
:1001C000F3010008DFF80CD000F092F90048004776
:1001D000612A00087006002006488047064800474C
:1001E000FEE7FEE7FEE7FEE7FEE7FEE7FEE7FEE7E7
:1001F000FEE7FEE71D250008C50100082DE9F05FB8
:100200000546002092469B46884606468146402485
:100210001BE0284641464746224600F0FCF853467C
:100220005A46C01A914110D311461846224600F092
:10023000E3F82D1A67EB01084F4622460120002102
:1002400000F0DAF817EB00094E41201EA4F101047A
:10025000DFDC484631462A464346BDE8F09FD2B22D
:1002600001E000F8012B491EFBD270470022F6E79F
:1002700010B513460A4604461946FFF7F0FF20461C
:1002800010BD421C10F8011B0029FBD1801A7047D9
:100290002DE9FE4F81EA030404F0004421F00041FF
:1002A00000944FF0000B23F0004350EA01045ED0AD
:1002B00052EA03045BD0C3F30A54C1F30A552C4439
:1002C000A4F2F3340194A0FB0254C1F3130141F4EE
:1002D0008011C3F3130343F4801301FB024400FBBA
:1002E000034E840A970A44EA815447EA8357A4FBE1
:1002F000076802958D0A05FB07854FEA932C04FBDE
:100300000C542705029D4FEA065847EA1637B5EB0D
:1003100008056EEB070C870E920E47EA811742EA3A
:100320008312A7FB0201B6EB0B0164EB00042B0D5B
:1003300043EA0C335E1844EB1C50DA465146E7FBA7
:100340000201C5F313044FEA0B3343EA14534FEA97
:100350000432019C43EA0603A4F10C040294009CBD
:10036000CDE900B400F076F803B0BDE8F08F0020CE
:100370000146F9E70EB540F2334102910021CDE983
:1003800000110A460B4600F065F803B000BD70B5D9
:10039000C1F30A5201F000450024C1F3130140F2F9
:1003A000FF3341F480119A4201DA002070BD40F21F
:1003B00033439A42A2F2334203DC524200F02BF85C
:1003C00000E090402C43F1D0404270BD30B50B4668
:1003D000014600202022012409E021FA02F59D4275
:1003E00005D303FA02F5491B04FA02F52844151E49
:1003F000A2F10102F1DC30BD202A04DB203A00FA30
:1004000002F1002070479140C2F1200320FA03F36B
:10041000194390407047202A04DB203A21FA02F069
:100420000021704721FA02F3D040C2F1200291402E
:1004300008431946704710B5141E73F1000408DA1A
:10044000401C41F1000192185B411A4301D120F098
:10045000010010BD2DE9F04D92469B4611B1B1FA55
:1004600081F202E0B0FA80F220329046FFF7C4FF3A
:1004700004460F4640EA0A0041EA0B0153465A4639
:10048000084313D0114653EA010019D0C8F14002C5
:100490005046FFF7C0FF05460E46504659464246B5
:1004A000FFF7AAFF084305D0012004E020463946A3
:1004B000BDE8F08D0020054346EAE0762C43374343
:1004C0000A986305E40AA0EB08000022FD0A44EA4A
:1004D00047540A3002D500200146E9E7010510190A
:1004E0006941DDE9084500196941BDE8F04DA2E721
:1004F0001CB509480090094801900546009C06E09B
:10050000E06840F0010394E8070098471034AC42DB
:10051000F6D3FFF75BFE000054300008743000088B
:10052000FEE7000040F20C10C2F2000000F0ECB94F
:10053000704700002DE9F04F97B000F08DF981462B
:1005400042F6324042F6324A01F00CFF42F69C621B
:100550000DF11C0BC0F600022CA35846202102F01E
:1005600091FA012400250226A820142190222A2392
:10057000CDE90065CDE902A4CDE90444CDF818B079
:1005800001F01EFF4FF0000899F90710322008FB18
:1005900000F0884542F6986100F15A00C0F600016B
:1005A00042F6A162C0F6000208BF114687B206916A
:1005B0005A20394628223223CDE90065CDE902A52B
:1005C0000494059401F0FCFE12A050F8283042F685
:1005D0009C6258464021C0F6000202F053FA822085
:1005E00039464FF4AA723223CDE90065CDE902A560
:1005F000CDE90444CDF818B001F0E2FE08F101089D
:10060000B8F1030FC0D117B0BDE8F08FD6F7B2CB69
:10061000B5A5000033300008AD2F000843300008B6
:100620002DE9F04F97B00C4642F6A1610646DDE990
:10063000209C42F69860C0F60001C0F60000002B36
:1006400008BF014693460125002742F6324806912D
:10065000304621461E226346CDE90097CDE9028748
:100660000495059501F0ACFE42F69C620DF11C0A62
:10067000C0F60002504640215B4602F003FA06F144
:100680001E00C6F5DC71219B80B28AB22146CDE9FD
:100690000097CDE90287CDE90455CDF818A001F007
:1006A0008FFE17B0BDE8F08F80B5032888BF80BDEE
:1006B000DFE800F002280617BDE88040FFF73ABFE8
:1006C00000F0CAF890F9073042F6B07040F25001DD
:1006D000C0F60000C2F200010722BDE8804000F031
:1006E00023B800F0B9F890F9073042F69E7040F256
:1006F0000801C0F60000C2F200010A22BDE88040F5
:1007000000F012B800F0A8F890F9073043F2360074
:1007100040F23801C0F60000C2F200010622BDE836
:10072000804000F001B800002DE9F04F91B006467E
:1007300042F6324099469046089101F013FE304649
:10074000FFF79FFD0001FFF715FE9FED3D0B53ECFA
:10075000102BFFF79DFDFFF71AFE0446C0F5F07061
:1007600042F69C6209AD00EBD077C0F60002284645
:100770002021334602F086F94FF0000A02204FF0A4
:10078000010BCDE9000A42F63240CDE9020BC7F376
:100790004F00142122462A23CDE904BB069501F01F
:1007A0000FFE46F26760C6F2666059FB00F041102A
:1007B0004A4601EBD07909EB8900A8EB0007012F2D
:1007C0001EDB052FA8BF0527012FD8BF5F4608995C
:1007D000161A01EB80082324002500BF05FB04F056
:1007E000711B4B3058F82520B1FA81F14B0981B2C9
:1007F0006E20CDE900A4FFF713FF0135AF42EDD124
:1008000009AC09F1010310A220461421022500952C
:1008100002F038F942F6324002A981E821084FF48B
:10082000D2704FF4917132221423CDE900BACDF881
:1008300014B0069401F0C4FD11B0BDE8F08F00BF04
:10084000000000000000F83F2225642F25642200EC
:1008500072B600BFFEE7000040F20410C2F20000D2
:100860007047000070B5866D044600F0E5FA94F814
:100870003510022925D105462068216C026822F036
:1008800016020260426922F08002426109B9A16C3D
:1008900019B1016821F008010160016821F001012E
:1008A000016000BF20680068C0070ED000F0C4FAE5
:1008B000401B0628F6D320206065032084F835000D
:1008C0000CE080206065012008E0E06D3F2101FA26
:1008D00000F0B060012084F835000020002184F889
:1008E000341070BD90F83510022909D1052180F827
:1008F00035100068016821F0010101600020704797
:100900008021416501207047F0B581B00021009140
:1009100040F20001C2F200010B68D0E9166148F212
:10092000B51537680822C1F64E358A403A42A3FB16
:1009300005350CD003681C68640708D51C6824F0D2
:1009400004041C60B260426D42F001024265012263
:100950008A403A4208D003685B691B0604D5B2603E
:10096000426D42F00202426504228A403A4208D0B7
:1009700003681B689B0704D5B260426D42F0040215
:10098000426510228A403A4216D001680B681B0764
:1009900012D5B2600B680A685B0306D4D20506D490
:1009A0000A6822F008020A6001E011033FD4016CDA
:1009B00011B1044688472046C26D202101FA02F396
:1009C0003B4241D001680F68FF063DD5B36090F807
:1009D00035700B68052F1AD123F016030B604B6995
:1009E00023F080034B61036C0BB9836C1BB10B6864
:1009F00023F008030B603F219140B160012180F892
:100A00003510016D002280F83420D9BB3EE00A6821
:100A10005B0310D4D20512D40A6822F010020A60D7
:100A2000012180F83510002180F8341007E0816C36
:100A30000029BED1C0E7110301D4416C00E0C16BB5
:100A400011B1044688472046416DF9B1416DC9078F
:100A500016D0052180F835100168AA0A0B6823F02A
:100A600001030B60009B01339342009302D80B6893
:100A7000DB07F7D1012180F83510002180F8341010
:100A8000C16C19B101B0BDE8F040084701B0F0BD3C
:100A90002DE9F041044600F0CFF9C4B1054602202B
:100AA00084F835000020216884F83400086820F0BC
:100AB0000100086020680168C9070BD000F0BCF98C
:100AC000401B0528F6D90321202203207AE00120CB
:100AD000BDE8F081016848F23F02CFF21002D4E98C
:100AE000013501EA020ED4E9032143EA0E032B4348
:100AF000D4E9056C1A43D4E907781143314341EA3C
:100B00000702616A42EA0802042942EA0C0303D19F
:100B1000D4E90B273A43134303604269042922F0C6
:100B2000070241EA02012DD1D4E90A5341EA050145
:100B300043B3BCF5005F08D0BCF1000F12D1022D09
:100B400016D0012D07D09DB119E0032D17D8DFE88D
:100B500005F00B0F0B02A3F1C072B2FA82F2520938
:100B60004AB90FE0032D02D2012222B90AE006D1D0
:100B7000C3F3006232B101214022012022E00022B1
:100B8000002AF8D100F0F8024AF6AB23103ACAF670
:100B9000AA23A2FB033742F6486341613909C0F634
:100BA0000003595C40F2FF3398435F2A4FF03F0245
:100BB00088BF0430C4E9160102FA01F18160002205
:100BC00001210020626584F83510BDE8F081000045
:100BD00090F834C0BCF1010F04BF0220704770B51B
:100BE0004FF0010C80F834C0D0F858E090F835C0D0
:100BF000BCF1010F37D14FF0020C80F835C04FF037
:100C0000000CC0F854C0D0F800C08468056CC06DFA
:100C1000DCF80060402C26F48026CCF80060CCF88C
:100C200004300B4604BF13460A463F2101FA00F088
:100C3000CCF80830CCF80C20CEF80800DCF8000026
:100C400040F01600CCF800002DB1DCF8000040F0B8
:100C50000800CCF80000DCF8000040F00100CCF8FF
:100C60000000002070BD002180F83410022070BD0B
:100C7000B0B5044600F0E0F8054640F23000C2F29C
:100C800000000078611C18BF044400BF00F0D4F8D5
:100C9000401BA042FAD3B0BD2DE9F04F83B000F164
:100CA000200200F13E4741F60005009207F1FF7770
:100CB000C4F2020507224FEAB726A84208BF06225F
:100CC000062E38BF4FEAB72200274FF0000A4FF038
:100CD000000801920AE000BF08F101080AF1020AC7
:100CE000B8F1100F07F1040700F09D800D68012294
:100CF00002FA08FC15EA0C09EED04D68032205F053
:100D0000030BABF10106012E02FA0AFE10D8866829
:100D1000CC6826EA0E0604FA0AF434438460446878
:100D2000C5F3001524EA0C0605FA08F52E434660C3
:100D3000BBF1030F1BD0C6688D6826EA0E0605FAC4
:100D40000AF52E43BBF1020FC66010D16FF003020B
:100D5000009D02EA580655F806C007F01C040F2251
:100D60000B69A2402CEA0202A3401A43AA5102686E
:100D70004B6822EA0E0203F0030606FA0AF6324333
:100D800013F4403F0260A7D0002243F644030292CE
:100D9000C4F202031A6843F6004442F480421A6027
:100DA0001A68C4F2010402F480420292029A28F006
:100DB00003024FF6084C2244CFF6FF7C52F80C3069
:100DC00007F00C060F25B540AB43019D05FA06F66A
:100DD000334342F80C30A2684B6842EA090643F6F6
:100DE0000C4CDD0258BF22EA0906A660C4F2010CD1
:100DF000DCF800209D0242EA090658BF22EA0906F3
:100E0000CCF8006062689D0342EA090658BF22EAF6
:100E1000090666602268DB0342EA090658BF22EA37
:100E20000906266058E703B0BDE8F08F0069084066
:100E300018BF01207047000040F26820C2F2000095
:100E40000068704740F2300040F26821C2F20000B2
:100E5000C2F2000100780A68104408607047000080
:100E600080B543F60040C4F20200016841F400710D
:100E70000160016841F480610160016841F48071A2
:100E80000160032000F08AF80F2000F005F800F060
:100E90002BF8002080BD0000B0B540F23002C2F255
:100EA000000240F200011278C2F200014FF47A739E
:100EB0000968B3FBF2F20446B1FBF2F1084600F018
:100EC000B5FB0F2C4FF001050CD858B94FF0FF308F
:100ED00021460022002500F035F840F23400C2F22D
:100EE000000004602846B0BD82B0002043F64001F7
:100EF0000190C4F202014A6842F480424A604A68A2
:100F000002F480420192019A0090086840F08050FB
:100F10000860086800F080500090009802B07047A8
:100F2000002848BF704700F01F01012202FA01F1BA
:100F30001C2202EAD0004EF20012CEF200028150D2
:100F40007047000010B54EF60C5CCEF2000CDCF8D9
:100F50000030C3F3022E8EF00704042C28BF0424B3
:100F6000BEF103034FF0FF3E0EFA04F438BF002336
:100F7000A14399400EFA03F39A43114300F16042F2
:100F800000F00F03090102F56442043B63440028AA
:100F900048BF03F10C02117010BD00004EF60C5159
:100FA000CEF200010A684FF6FF031A4060F30A22EE
:100FB00042F0806040F0FD700860704770B582B00C
:100FC0000020019043F64000C4F202000168402670
:100FD00041F0805101600068C4F20E2600F080509C
:100FE0000190019847F204050120C4F20005306029
:100FF000FFF722FF044600BF2868C00306D4FFF7AE
:101000001BFF001BB0F57A7FF6D90EE0012070605F
:10101000FFF712FF044600BF2868800308D4FFF7DB
:101020000BFF001BB0F57A7FF6D9032002B070BD2C
:10103000002002B070BD0000002804BF01207047EE
:101040002DE9F04143F60808C4F202080446D8F836
:10105000F8030D4600F00F00884207D288F8F853D5
:10106000D8F8F80300F00F00A84276D12068810775
:1010700017D5410705D5D8F8001041F4E051C8F85C
:101080000010010705D5D8F8001041F46041C8F8F8
:101090000010D8F80010A26821F0F0011143C8F840
:1010A0000010C0073FD1D8F8F80300F00F00A842A5
:1010B00007D988F8F853D8F8F80300F00F00A842D1
:1010C0004BD12068410707D5D8F80010E26821F419
:1010D000E0511143C8F80010000708D5D8F8000007
:1010E000216920F4604040EAC100C8F8000000F027
:1010F0007BF8D8F8001042F63062C1F30311C0F655
:101100000002515C40F2000220FA01F140F234008A
:10111000C2F200000068C2F200021160FFF7BCFEDC
:101120000020BDE8F0816068811E022907D258F8CE
:10113000081C89015CBF0120BDE8F08110E0012896
:1011400007D158F8081C89035CBF0120BDE8F08175
:1011500006E058F8081C890702D40120BDE8F08198
:10116000D8F8001021F003010843C8F80000FFF789
:1011700063FE064641F28837D8F80000616800F047
:101180000C00B0EB810F8ED0FFF756FE801BB842EB
:10119000F2D90320BDE8F08140F2000043F60801D7
:1011A000C2F20000C4F202010068096842F640621F
:1011B000C1F38221C0F60002515CC84070470000B4
:1011C00040F2000043F60801C2F20000C4F202013E
:1011D0000068096842F64062C1F34231C0F600027D
:1011E000515CC8407047000010B543F60404C4F2D7
:1011F00002046068C0F3810142F20040C0F2F400D2
:10120000DFE801F03F02071641F20020C0F27A0049
:1012100010BD216801F03F02216823684902C3F331
:10122000881114D4A1FB00010023FEF7E7FF15E0AD
:10123000216801F03F02216823684902C3F3881145
:1012400013D4A1FB00010023FEF7D8FF14E041F204
:101250000020C0F27A004843B0FBF2F0216802227D
:10126000C1F3014102EB410109E041F20020C0F26B
:101270007A004843B0FBF2F02168C1F30271B0FB81
:10128000F1F010BD002804BF012070472DE9F041A6
:1012900082B00446007843F60006C007C4F2020696
:1012A0000CD0B06800F00C00042840F08280306858
:1012B000800303D56068002800F050812078800703
:1012C00023D5B06810F00C0F11D0B06800F00C00FE
:1012D000082802D17068400209D5B06800F00C00FF
:1012E0000C2840F08E807068400200F18A803068DF
:1012F000800703D5E068012840F03081306821691B
:1013000020F0F80040EAC10030602078000713D4D4
:101310002078400727D4A569002D00F01B81B06814
:1013200000F00C00082840F09780012D40F0E98083
:10133000012002B0BDE8F0816069002840F20000A1
:10134000C4F2472078D00121C0F8801EFFF774FD59
:10135000054600BF706F8007DAD4FFF76DFD401BB4
:101360000228F7D9B6E0306C5FEAC0080AD4002042
:101370000190306C40F080503064306C00F0805050
:101380000190019847F20007C4F200073868C005D1
:101390002ED4386840F480703860FFF74DFD054664
:1013A0003868C00524D4FFF747FD401B0228F7D951
:1013B00090E0B06800F00C00082803D1706840028B
:1013C0003FF575AFB06800F00C000C2803D17068D1
:1013D00040023FF56CAF65683068B5F5A02F00F0AE
:1013E000D580B5F5803F40F0D88040F48030DAE019
:1013F000A568306F052D50D0012D55D140F001006A
:1014000058E0E068002800F0AD800020C4F24720DA
:1014100001210160FFF710FD054600BF306880071D
:101420003FF56CAFFFF708FD401B02284FF00300AB
:10143000F4D902B0BDE8F0810021C0F8801EFFF7AA
:10144000FBFC0546706F80077FF562AFFFF7F4FC89
:10145000401B0228F6D93DE00027C4F247270020B0
:101460003866FFF7E9FC022D05460BD13068800194
:1014700040F1B880FFF7E0FC401B02284FF003006A
:10148000F4D9D6E73068800164D5FFF7D5FC401B5E
:1014900002284FF00300F5D9CBE740F00400306795
:1014A000306F40F0010005E020F001003067306F40
:1014B00020F004003067FFF7BFFC002D054641F225
:1014C000883712D0306F800712D4FFF7B5FC401B6D
:1014D000B842F7D9032002B0BDE8F081FFF7ACFCB9
:1014E000401BB8424FF00300A3D8306F8007F5D4FB
:1014F000B8F1000F3FF50FAF306C20F08050306432
:1015000009E77068E16900F480028A4226D1216A05
:1015100000F03F028A4221D147F6C071626A014061
:10152000B1EB821F1AD1A16A4FF6FF73C903994329
:1015300000F44032A1F580318A420FD1E16A00F017
:101540007062B2EB016F09D1216B00F0E040B0EBAB
:10155000017F03D1002002B0BDE8F081012002B07C
:10156000BDE8F0810020C4F2472000210160FFF7B0
:1015700063FC0546306880077FF5C7AEFFF75CFC6B
:10158000401B02284FF00300F4D952E740F48020BA
:101590003060306840F4803005E020F48030306006
:1015A000306820F480203060FFF746FC002D0546AF
:1015B00014D000BF306880033FF580AEFFF73CFCDD
:1015C000401B64284FF00300F4D932E7FFF734FCE6
:1015D000401B64284FF003003FF62BAF30688003B8
:1015E000F4D46BE604F11C052FCD246B084340EACC
:1015F0008210D9034FF6FF729143A1F5803140EA82
:101600000560084340EA0470706001203866FFF707
:1016100013FC0446306880019CD4FFF70DFC001BCE
:1016200002284FF00300F5D903E70000411E002017
:10163000B0EB116F1CBF012070474EF21002CEF2CA
:10164000000251604EF62351CEF20001F0230B70E0
:1016500007219060116070477047000070470000DC
:1016600090F83C20012A4FF0020255D010B501231A
:1016700080F83C3080F83D200268D2F804E0D2F8CF
:1016800008C00C682EF07003234341F2FF74C4F2CB
:101690000004A24253600DDC40F2FF73C4F2000369
:1016A0009A4215DCB2F1804F29D040F20043C4F2D7
:1016B000000322E040F2FF33C4F201039A4212DC3D
:1016C00041F60003C4F200039A4218D0002312E04E
:1016D00040F60003C4F200039A4210D040F60043E3
:1016E000C4F2000309E044F20003C4F201039A4289
:1016F00005D040F20043C4F201039A4204D1496884
:101700002CF08003194391600121002280F83D10E4
:1017100080F83C20BDE8104010467047002804BF08
:101720000120704710B5044690F83D0028B900200C
:1017300084F83C00204600F01FF8022084F83D00A9
:101740002068211D00F0FAFE012084F8460084F88C
:101750003E0084F83F0084F8400084F8410084F89B
:10176000420084F8430084F8440084F8450084F87B
:101770003D00002010BD00000068B0F1804F18BF90
:10178000704780B582B00020019043F64000C4F25B
:1017900002000168002241F001010160006800219F
:1017A00000F00100019001981C20FFF7CBFB1C20EA
:1017B00002B0BDE88040FFF7B3BB000090F83C20CA
:1017C000012A4FF002026ED080B5012380F83C3030
:1017D00080F83D20D0F800C04FF67772DCF8083072
:1017E00023EA0202CCF808200B684F2B28DC1F2BC1
:1017F00044DD202B45D0302B43D0402B40F0AC8033
:10180000D1F804E0C968DCF82030DCF8202022F0B0
:101810000102CCF82020DCF8182022F0F00242EA85
:10182000011123F00A0242EA0E02CCF81810CCF89B
:101830002020DCF8081041F0470121F0300127E0BA
:101840006F2B32DDB3F5005F73D0B3F5805F21D02D
:10185000702B40F08180D1E901E3C968DCF80820F1
:1018600043EA0E0322F47F4243EA01211143CCF8FC
:101870000810DCF8081041F0770109E00BB1102BDB
:101880006AD1DCF8081021F07001194341F007011A
:10189000CCF808100022012180F83D10002180F8CA
:1018A0003C10BDE8804010467047502B21D0602B83
:1018B00052D1D1F804E0C968DCF82030DCF82020EF
:1018C00022F01002CCF82020DCF8182022F470421C
:1018D00042EA013123F0A00242EA0E12CCF81810BD
:1018E000CCF82020DCF8081041F0670121F010014D
:1018F000CEE7D1F804E0C968DCF82030DCF820201D
:1019000022F00102CCF82020DCF8182022F0F002AE
:1019100042EA011123F00A0242EA0E02CCF8181042
:10192000CCF82020DCF8081041F0570121F020010C
:10193000AEE7D1E901E3C968DCF8082043EA0E0309
:1019400022F47F4243EA01211143CCF80810DCF86D
:10195000081041F480419BE701229CE7704700009A
:1019600070B504460068C5680669B10716D515F05C
:10197000020113D06FF0020101610121217780691A
:10198000800703D02046FFF7E9FF05E0204600F07E
:101990008DF8204600F08CF800202077700718D5CD
:1019A00015F0040015D020686FF0040101610221D8
:1019B0002177806910F4407F03D02046FFF7CEFFE7
:1019C00005E0204600F072F8204600F071F8002093
:1019D0002077300717D515F0080014D020686FF075
:1019E0000801016104212177C069800703D02046E6
:1019F000FFF7B4FF05E0204600F058F8204600F05D
:101A000057F800202077F00618D515F0100015D0F3
:101A100020686FF01001016108212177C06910F47E
:101A2000407F03D02046FFF799FF05E0204600F0F5
:101A30003DF8204600F03CF800202077F00718BF62
:101A400015F0010002D1300609D412E020686FF0D1
:101A500001010161204600F02DF8300609D515F08E
:101A6000800006D020686FF0800101612046FFF7FA
:101A7000F3FD700609D515F0400006D020686FF020
:101A800040010161204600F017F8B00658BF70BD54
:101A900015F0200008D021686FF0200220460A616E
:101AA000BDE87040FFF7DABD70BD00007047000070
:101AB000704700007047000070470000704700004A
:101AC00070470000B0B582B001680A68CC684B6905
:101AD00002F02F05202D04F0200505D125B102B01C
:101AE000BDE8B04000F040BE5FEA027C1EBF03F0DC
:101AF000010E04F4907313EB0E0340D1036BD50673
:101B000018D5012B16D114F0100313D00022019226
:101B10000A6801924A680192019A4969490647D4C4
:101B2000818DC28DC38D002B18BF914240F0108172
:101B300002B0B0BD13062AD514F0800327D090F868
:101B40004120212AF4D18268B2F5805F03D1026975
:101B5000002A00F03081026A531C036212784A6046
:101B6000C28C013A1304C284E2D1C86820F080001C
:101B7000C860C86840F04000C86002B0B0BDD1077E
:101B800018BF14F480715CD1510760D466E052062E
:101B9000CED514F04002CBD0CA6822F04002CA6011
:101BA000202180F8411002B0BDE8B04000F002BA38
:101BB000C16B0A68526893B2002BB9D0858DAB42D5
:101BC000B6D2C285C969B1F5807F33D0016851E8CA
:101BD000031F026821F4807142E80313002BF5D142
:101BE000016851E8051F026821F0010142E8051370
:101BF000002BF5D1016851E8051F026821F0400172
:101C000042E80513002BF5D1202180F84210002175
:101C1000016300BF016851E8031F026821F0100151
:101C200042E80313002BF5D1C16B04460846FEF7CA
:101C300019FE204602214163818DC28D891A89B225
:101C4000AFE0416C41F001014164510706D5BEF19E
:101C5000000F03D0416C41F002014164910706D5A9
:101C6000BEF1000F03D0416C41F004014164BCF1AE
:101C7000000F06D55EEA050103D0416C41F0080172
:101C80004164416C00293FF453AF910604D51DB166
:101C9000044600F069FD204601684969426C01F084
:101CA000400102F0080289184BD000BF016851E8DA
:101CB000031F026821F4907142E80313002BF5D151
:101CC000016851E8051F026821F0010142E805138F
:101CD000002BF5D1016B01290AD100BF016851E841
:101CE000031F026821F0100142E80313002BF5D115
:101CF000202180F8421000210163016849694906EA
:101D000054D500BF016851E8051F026821F0400169
:101D100042E80513002BF5D1C16B002946D042F2F1
:101D20007162C0F60002044608460A65FEF7DAFD55
:101D300000283FF4FDAEE06B016D02B0BDE8B0409D
:101D400008470446FFF7BCFE0020606402B0B0BD47
:101D5000891A00BF026852E8032F036822F49072C8
:101D600043E80325002DF5D1026852E8052F0368EA
:101D700022F0010243E80525002DF5D1202280F84C
:101D800042200022026300BF026852E8032F03686A
:101D900022F0100243E80325002DF5D1022289B27A
:101DA000426302B0BDE8B040FFF788BE02B0BDE8B4
:101DB000B040FFF785BE026A32F8023B6FF35F2343
:101DC0004B600262CCE60000002804BF012070478F
:101DD00010B5044690F8410028B9002084F840006E
:101DE000204600F021F8242084F841002068C168D2
:101DF00021F40051C160204600F016FD2068016901
:101E000021F490410161416921F02A014161C168D9
:101E100041F40051C16000202021606484F8411029
:101E200084F84210606310BD2DE9F04786B0044687
:101E300044F600070068C4F200070026B842059681
:101E4000CDE903660296019602D006B0BDE8F087A0
:101E500043F630000096C4F20200016901AD41F47E
:101E60008021016101694FF0020801F48021009195
:101E70000099009601684FF0030941F004010160E8
:101E800001684FF0070A01F00401009100990096E3
:101E9000016841F0080101600068294600F008006F
:101EA000009000982020019007F5E030CDE90286EF
:101EB000CDF81090CDF814A0FEF7EEFE4FF4807030
:101EC000CDE9010803A880E8400607F5E23029467D
:101ED000FEF7E2FE40F20C1546F25800C2F2000591
:101EE000C4F202004FF0006140224FF4806385E8A5
:101EF00047002846C5E90436C5E90666C5E908660F
:101F0000FEF7C6FD002818BFFEF7A2FC272000211F
:101F10000022A563AC63FFF715F82720FFF700F850
:101F200006B0BDE8F087000070470000B0B590F83B
:101F30004140202C1CBF0220B0BD134600294FF0A9
:101F4000010218BF002B01D11046B0BD0022212490
:101F500001628384C384426480F84140D0F838C071
:101F600042F2217E42F26175C0F6000EC0F6000515
:101F70000468CCE90FE542F27D65C0F60005CCE9C6
:101F80001352221D04466046FEF722FE21682046B9
:101F90006FF040020A6000BF016851E8051F026847
:101FA00041F0800142E80513002BF5D100221046D4
:101FB000B0BD0000704700007047000040F20411FF
:101FC000C2F200010A78032A55D8DFE802F0023F86
:101FD0000B24C2B291F90700062A40D101283EDC49
:101FE000013047E0C0B291F90720062801D1052A47
:101FF00033DD022801D1012A3BDA01283BD0052834
:1020000039D18879B8B30138887151FA80F04078B5
:10201000087001202EE0C0B291F90720062801D1F6
:10202000082A1ADD022801D1012A22DA012822D049
:10203000052820D18879002808BF704701388871A9
:1020400051FA80F040780870022013E0C0B291F994
:102050000720062809D1042A07DC501C0AE0022ABE
:102060000AD1012808DB013804E0022816D1012A30
:1020700014DB501EC8717047012AFCD188790323F4
:10208000421C8A710A1800205070CA79012A08BFC0
:102090000223002A08BF01230B70EBE70128EAD0D6
:1020A0000528E8D188790028E5D00138887151FAEF
:1020B00080F0407808700020DCE70000FEE70000B8
:1020C00080B540F2FC10C2F200006C21FEF7CEF8A1
:1020D00080BD00002DE9F04381B081464FF000083B
:1020E00040F20920C9E9000841F20000C4F20200F0
:1020F0004FF40061FEF79AFE002841D040F2FC1038
:10210000C2F2000042F6506600F10807C0F6000671
:10211000002407E087F80080F5B10834482C07F167
:102120000C072AD0311948684988FEF77FFE05461A
:10213000B0FA80F017F8081C40098142ECD007F88B
:10214000080CFEF779FE002D47F8040CE2D0387831
:102150000028E1D11AE000BFFEF76EFE57F8041C1C
:10216000401AB0F57A7FD8D938780028D5D1315DBA
:102170000120387089F800100CE001B0BDE8F08350
:10218000082089F8000001B0BDE8F083305D89F8CF
:102190000000002089F80100FEF74EFEC9F8040097
:1021A00001B0BDE8F083000080B582B0002001904E
:1021B00043F63000C4F202000168002241F400112D
:1021C00001600068002100F40010019001980E20C9
:1021D000FEF7B8FE0E2002B0BDE88040FEF7A0BEBC
:1021E00070B586B0002643F630000596CDE903664B
:1021F000CDE901660096C4F20200016840F6004491
:1022000041F0800101600168C4F2020401F0800124
:10221000009100990096016801AD41F00401016050
:10222000016801F00401009100990096016841F0F5
:1022300010010160016801F0100100910099009601
:10224000016841F008010160016801F00801009196
:1022500000990096016841F001010160006829467B
:1022600000F00100009000984FF40060CDE90106F5
:1022700004F580600396FEF70FFD4FF68060CDE910
:102280000106204629460396FEF706FD06B070BDFE
:1022900080B586B040F26C100021C2F200004FF011
:1022A000804259234FF0FF3CCDE90411CDE90211E2
:1022B000CDE90011C0E90023C0E9021C0161816180
:1022C000FFF72CFA002818BFFEF7C2FA4FF480502F
:1022D000029040F26C10C2F2000002A9FFF76EFA01
:1022E000002818BFFEF7B4FA0020CDE9000040F244
:1022F0006C10C2F200006946FFF7B2F9002818BF5F
:10230000FEF7A6FA06B080BD80B540F2B41044F6E0
:102310000001C2F20000C4F2000100234FF00C0CD7
:102320004FF4E13280E80E00C0E90333C0E905C391
:10233000C361FFF749FD002808BF80BDBDE88040AC
:10234000FEF786BAFEE7000040F20410C2F2000079
:1023500000210170C1807047FEE700007047000057
:102360007047000010B540F27004C2F2000403464A
:1023700011A22046142100F085FB411E0F291AD816
:102380004FF0FF322118225240F2B414C2F200047E
:1023900023688A701968490658BF10BD033040F29F
:1023A000700182B2C2F200012046FFF7BFFD206833
:1023B00001684906FCD510BD636C732025640000DC
:1023C0002DE9F0438BB0DDE917750DF1480ECDE92D
:1023D000087540F28405DDE915680446C2F200057F
:1023E0009EE800528DE80E5212A228468021234614
:1023F0000696CDF81C8000F045FBA0F17D0111F19F
:102400007C0F14D340F2B41429184FF0FF32C2F2FB
:1024100000048A7021682A520968033082B220467B
:102420002946FFF783FD206801684906FCD50BB0FB
:10243000BDE8F083787374722025642C25642C2504
:10244000642C25642C25642C25642C25642C25649F
:102450002C25642C25642C2573000000FEF7F2BCAB
:1024600010B594B007AC20463421FDF7FFFE0020E4
:1024700043F640010690CDE90400CDE90200019049
:10248000C4F202010A6842F080520A60096801F051
:10249000805101910199019047F20000C4F20000BF
:1024A000016841F44041016000684FF4800100F48C
:1024B000404001900198012007904FF480300E9128
:1024C0000421089002200F91B4210D90CDE9101045
:1024D000CDE912002046FEF7D5FE10B172B600BF5E
:1024E000FEE7FEF76BFD10B172B600BFFEE70F20EE
:1024F000029002200390002004904FF4A050059019
:102500004FF48050069002A80521FEF795FD10B10A
:1025100072B600BFFEE714B010BD00004EF6885042
:10252000CEF20000016841F47001016070470000C4
:1025300040F26C10C2F20000FFF712BA10B540F67C
:10254000FF3E0368C4F2000E40F2004C7045C4F236
:10255000010C0FDCB0F1804F19D040F20042C4F200
:102560000002904213D040F60002C4F200029042F2
:102570000DD010E040F60042C4F20002904206D0B6
:10258000604504D00022C4F20102904203D14A689F
:1025900023F07003134341F6FF72C4F2000290422D
:1025A0000FDC704521DCB0F1804F41D040F2004299
:1025B000C4F2000290423BD040F60002C4F2000296
:1025C00034E043F6FF72C4F2010290421EDC42F294
:1025D0000002C4F2000290422AD00022C4F201029A
:1025E000904225D0604523D026E040F60042C4F258
:1025F000000290421CD041F60002C4F20002904258
:1026000016D041F60042C4F200020FE044F200028C
:10261000C4F2010290420BD044F60002C4F201025F
:10262000904205D044F20042C4F20102904203D12C
:10263000CA6823F44073134323F080024B69D1F836
:1026400000E08C681A430260C46240F48062C0F803
:1026500028E0624504BF0969016301214161016904
:10266000C90708BF10BD016921F00101016110BD5A
:10267000806B0021C185C184FFF722BA806B01689D
:10268000496990F84120212A11D111F080010ED022
:102690000021C184016851E8031F026821F0C001D4
:1026A00042E80313002BF5D1202180F84110016886
:1026B000496990F84220222A2BD111F0400128D0FC
:1026C0000021C185016851E8031F026821F490715F
:1026D00042E80313002BF5D1016851E8051F026899
:1026E00021F0010142E80513002BF5D1016B01290E
:1026F0000AD100BF016851E8031F026821F01001F0
:1027000042E80313002BF5D1202180F8421000216C
:102710000163416C41F010014164FFF7D1B9000041
:102720000168806B0968C90548BFFFF743BC0021F9
:10273000C18400BF016851E8051F026821F08001D3
:1027400042E80513002BF5D1016851E8031F026828
:1027500041F0400142E80313002BF5D1704700001F
:10276000806BFFF729BC000090F84210222918BFA7
:1027700070478268B2F5805F02D1016900294AD0B2
:10278000816AB2F5805F07D00AB9026922B1026896
:10279000526802F07F0201E0026852680A70816AA2
:1027A00001318162C18D01390A04C18500D07047B1
:1027B0000168CA6822F02002CA60CA6822F48072E6
:1027C000CA604A6922F001024A61202180F8421061
:1027D00000214163026B012A18BFFFF7A5BB81B03E
:1027E000016300BF016851E8031F026821F0100176
:1027F00042E80313002BF5D101680A68D20606D51A
:10280000002200920A680092496800910099818D27
:1028100001B0FFF753B90168826A49686FF35F211D
:1028200022F8021B8262BDE7B0B50446006804F1DD
:1028300008030ECB0569194325F440552A4302616C
:102840006269E3691143C268194349F20C639A4310
:102850001143C1604169A26921F4407141F2004312
:10286000114340F48062C4F201039A42416102D1F3
:10287000FEF7A6FC01E0FEF78FFCE1694FF69C75C0
:1028800063681922C0F6FF75B1F5004FA0FB020185
:102890001CD15A00DB0FFDF7B1FC48F21F51C5F205
:1028A000EB11A0FB01235A0905F1805302FB030041
:1028B000322303EBC000A0FB01014FF4F87000EAE3
:1028C000111000EB0210C1F3421118E09A009B0FA7
:1028D000FDF794FC48F21F51C5F2EB11A0FB012358
:1028E0005A0902FB0500322303EB0010A0FB010193
:1028F000F02000EA511000EB0210C1F3431108442C
:1029000021688860B0BD000080B5FFF7D9FBFFF7F4
:102910001BFD42F63240FFF725FDBDE88040FDF784
:1029200009BE000070B582B06846FFF7D3FBFDF723
:1029300093FF04460678C579DDE90001FFF73EFB09
:102940002078B0421ED1E179A94223D06AB2672330
:102950005A43C2F3C03303EB62234AB246F26761C3
:10296000C6F2666152FB01F14E1006EBD17199423D
:1029700008D140F20401C2F2000191F9001000F008
:1029800015F801E0FDF790FEE07940F20401C2F293
:10299000000108701420FEF76BF902B070BD000052
:1029A00040F2B410C2F20000FFF78CB82DE9F04FEE
:1029B00087B09346E8B146F26760C6F2666051FBA5
:1029C00000F2531003EBD27202EB82025BFB00F0C9
:1029D000891A421002EBD07000EB8000ABEB000BC9
:1029E0004FF000084FF06E0A4B254FF01E092326CA
:1029F00007E04FF002085A254FF0280932264FF021
:102A00005A0A01FB065042F69861C0F6000142F6F0
:102A1000324202AB0127002494C3069181B2504692
:102A20004A463346CDE900840597FFF7C9FC0BFB06
:102A3000065042F6A16542F6324102AAC0F60005F0
:102A400092C281B250464A463346CDE9008405978A
:102A50000695FFF7B5FC07B0BDE8F08FFEE7000074
:102A6000FEF7FEF9FFF7FCFCFFF7BAFBFFF79CFB54
:102A7000FFF74AFCFFF70CFCFFF746FFFFF752FF9A
:102A8000FCE700000FB47CB50C0009AD01D0611E5D
:102A900000E00021CDE90001064B6A46294608986E
:102AA00000F01AF8002C02D0009A002111707CBCB2
:102AB0005DF814FB1B2E000802E008C8121F08C1B5
:102AC000002AFAD170477047002001E001C1121FAF
:102AD000002AFBD1704700002DE9FF4F8BB08846DC
:102AE0000546002606E025280BD0DDE90D129047AB
:102AF0006D1C761C28780028F5D10FB03046BDE853
:102B0000F08F0024A146A2460122AE4900E0044312
:102B100015F8013F203B02FA03F00842F7D128786C
:102B20002A2810D06FF02F022878A0F1300109294F
:102B300015D809EB890102EB410144F0020400EBD6
:102B400001096D1CF0E758F8041B5FEA010903D581
:102B500044F40054C9F1000944F002046D1C2878C3
:102B60002E2817D115F8010F44F004042A280ED09E
:102B70006FF02F022878A0F1300109290AD80AEB5A
:102B80008A0102EB410100EB010A6D1CF2E758F8E3
:102B900004AB6D1C28786C280FD006DC4C2817D0AD
:102BA00068280DD06A2814D104E0742810D07A283F
:102BB0000FD10DE044F400140AE044F4801401E065
:102BC00044F440146978814202D104F580146D1CEC
:102BD0006D1C2878692865D006DC00288DD0632814
:102BE00027D0642806D15DE06E2808D073282AD04B
:102BF000752877D0DDE90D129047761CE0E0C4F32C
:102C00000250022809D003280DD0D8F8001004285B
:102C10000DD00E6008F10408D2E0D8F80010F217C9
:102C2000C1E90062F6E7D8F800100E80F2E70E70F6
:102C3000F0E718F8041B8DF8001000208DF8010053
:102C4000EB46012003E058F804BB4FF0FF3061076A
:102C50004FF0000701D40AE07F1C57450DDA874288
:102C6000FADB1BF807100029F6D106E07F1C87422B
:102C7000FCDB1BF807100029F8D1DDE90D23A9EBD7
:102C800007008146214600F0B1F83044C61904E03F
:102C9000DDE90D121BF8010B90477F1EF8D221468B
:102CA000484688E058F8040BC4F302514FF00A0B71
:102CB000032900D100B2042900D140B2002802DA71
:102CC00040422D2102E0210505D52B218DF824104D
:102CD000012104E006E0E10710D02021F6E708AF6B
:102CE000089113E058F8040BC4F302514FF00A0B9B
:102CF000032900D180B2042900D1C0B20021EEE73F
:102D00005946FDF763FB303107F8011D0028F7D164
:102D1000ADEB070000F1200B600702D524F48034EE
:102D200001E04FF0010ADA4502DDAAEB0B0000E0FA
:102D30000020824600EB0B0108980144A9EB01003A
:102D40000A90E00306D4DDE90D2321460A9800F03D
:102D50004DF806444FF0000908E009A911F80900F0
:102D6000DDE90D12904709F10109761C08998945A2
:102D7000F3DBE0030CD5DDE90D2321460A9800F0D2
:102D800035F8064404E0DDE90D1230209047761C4A
:102D9000BAF10001AAF1010AF5DC05E0DDE90D1246
:102DA00017F8010B9047761CBBF10001ABF1010B4A
:102DB000F4DC0A982146DDE90D2300F005F806440D
:102DC0006D1C97E6092801002DE9F0410446002515
:102DD0001E461746880404D405E039462020B04733
:102DE0006D1C641EF9D52846BDE8F0812DE9F0413F
:102DF000044600251E469046C80301D5302700E052
:102E00002027880404D505E041463846B0476D1CAC
:102E1000641EF9D52846BDE8F0814A68002A06D02C
:102E20000A68531C0B6010704868401E4860704769
:102E3000000000000000000001020304060708096A
:102E40000000000001020304000610160006101620
:102E500000008000000C024001000020000C024035
:102E600002000008000C024003000080000C024039
:102E700004000002000C024005000004000C0240A7
:102E800006000010000C024007000040000C024049
:102E90000800000800100240222022002225732290
:102EA0000022A1FA2200322E20D7D4B6AFBFAA004A
:102EB000372E20B4EDCEF3BCC7C2BC00352E20C1E6
:102EC000E3B5E3D0A3D7BC0020362E20C4A3C4E2D0
:102ED000C1BFCAE4C8EBD0A3D7BC0020372E20C4A2
:102EE000A3C4E2C1BFCAE4C8EBD0C5BAC5C6ABD65D
:102EF000C30020352E20B4ABB8D0C6F7D0C5BAC5B4
:102F0000C6ABD6C300332E20CEBBD6C3BBB7504909
:102F100044C9E8D6C300322E20BFD8D1B9504944A5
:102F2000C9E8D6C30031302E20BFAAB9D8BCC6CA62
:102F3000FDB7A7D6B5C9E8D6C30020392E20BFD823
:102F4000D6C6C6F7C4ACC8CFD6B5C9E8D6C3003418
:102F50002E20B7A7C3C5C8ABB9D8D6B5C9E8D6C364
:102F600000312E20D1B9C1A6B5A5CEBBC9E8D6C3C4
:102F70000020332E20CDA8D0C5C9E8D6C30020310B
:102F80002E20B4ABB8D0C6F7C1BFB3CCC9E8D6C306
:102F90000020342E20CDF8BFDAC9E8D6C300BFD850
:102FA000D6C6C6F7B2CECAFDC9E8D6C300322E20B7
:102FB000B9A4D7F7B2CECAFDC9E8D6C30020322ED5
:102FC00020C1AACBF8B2CECAFDC9E8D6C300342EC0
:102FD00020D5E6BFD5D1B9C1A6BFD8D6C600352EFB
:102FE00020B7A7C3C5BFAAB6C8BFD8D6C600332E60
:102FF00020C2FDCBD9D5E6BFD5BFD8D6C600203874
:103000002E20BBD6B8B4C4ACC8CF00362E20B7A78C
:10301000C3C5BFAAB6C8B1A3B3D600312E20D7D43A
:10302000B6AFB9D800362E2052454D4F5445BCECB2
:10303000B2E900312E20B9A4D7F7C4A3CABDD1A1EB
:10304000D4F100332E20BFD8D6C6C6F7B2CECAFD03
:103050000000000078300008000000207000000030
:10306000B82A0008E83000087000002000060000C0
:10307000C82A0008000000000024F400FF0000003F
:103080007E2F0008BD2F0008712F0008912F000827
:10309000F22E0008C82E0008DB2E0008FE2F0008C4
:1030A0003A2F0008252F0008010000001000000042
:1030B0001B300008A62E0008EE2F0008CE2F0008B7
:1030C000DE2F00080B300008612F0008162F0008C3
:1030D000052F00084F2F0008BC2E000825300008DF
:0830E000B02E00080000000002
:04000005080001C529
:00000001FF
