:020000040800F2
:1000000070060020D901000841210008A91E00083F
:100010002D210008150500084D2A000800000000E9
:100020000000000000000000000000007521000832
:10003000E50500080000000071210008A522000865
:10004000F3010008F3010008F3010008F3010008C0
:10005000F3010008F3010008F3010008F3010008B0
:10006000F3010008F3010008F3010008F3010008A0
:10007000F3010008F301000819050008F301000866
:10008000F3010008F3010008F3010008F301000880
:10009000F3010008F3010008F3010008F301000870
:1000A000F3010008F3010008F3010008F301000860
:1000B00071230008F3010008F3010008F3010008B0
:1000C000F3010008F3010008F3010008F301000840
:1000D000F3010008F3010008F30100083D2A0008BD
:1000E000F3010008F3010008F3010008F301000820
:1000F000F3010008F3010008F3010008F301000810
:10010000F3010008F3010008F3010008F3010008FF
:10011000F3010008F3010008F3010008F3010008EF
:10012000F3010008F3010008F3010008F3010008DF
:10013000F30100080000000000000000F3010008C7
:10014000F3010008F3010008F3010008F3010008BF
:10015000F3010008F3010008F3010008F3010008AF
:10016000F3010008F3010008F3010008F30100089F
:10017000F3010008F3010008F3010008000000008B
:1001800000000000F3010008000000000000000073
:10019000F30100080000000000000000F301000867
:1001A000000000000000000000000000F301000853
:1001B000F3010008F3010008F3010008F30100084F
:1001C000F3010008DFF80CD000F092F90048004776
:1001D000C52A0008700600200648804706480047E8
:1001E000FEE7FEE7FEE7FEE7FEE7FEE7FEE7FEE7E7
:1001F000FEE7FEE75D230008C50100082DE9F05F7A
:100200000546002092469B46884606468146402485
:100210001BE0284641464746224600F0FCF853467C
:100220005A46C01A914110D311461846224600F092
:10023000E3F82D1A67EB01084F4622460120002102
:1002400000F0DAF817EB00094E41201EA4F101047A
:10025000DFDC484631462A464346BDE8F09FD2B22D
:1002600001E000F8012B491EFBD270470022F6E79F
:1002700010B513460A4604461946FFF7F0FF20461C
:1002800010BD421C10F8011B0029FBD1801A7047D9
:100290002DE9FE4F81EA030404F0004421F00041FF
:1002A00000944FF0000B23F0004350EA01045ED0AD
:1002B00052EA03045BD0C3F30A54C1F30A552C4439
:1002C000A4F2F3340194A0FB0254C1F3130141F4EE
:1002D0008011C3F3130343F4801301FB024400FBBA
:1002E000034E840A970A44EA815447EA8357A4FBE1
:1002F000076802958D0A05FB07854FEA932C04FBDE
:100300000C542705029D4FEA065847EA1637B5EB0D
:1003100008056EEB070C870E920E47EA811742EA3A
:100320008312A7FB0201B6EB0B0164EB00042B0D5B
:1003300043EA0C335E1844EB1C50DA465146E7FBA7
:100340000201C5F313044FEA0B3343EA14534FEA97
:100350000432019C43EA0603A4F10C040294009CBD
:10036000CDE900B400F076F803B0BDE8F08F0020CE
:100370000146F9E70EB540F2334102910021CDE983
:1003800000110A460B4600F065F803B000BD70B5D9
:10039000C1F30A5201F000450024C1F3130140F2F9
:1003A000FF3341F480119A4201DA002070BD40F21F
:1003B00033439A42A2F2334203DC524200F02BF85C
:1003C00000E090402C43F1D0404270BD30B50B4668
:1003D000014600202022012409E021FA02F59D4275
:1003E00005D303FA02F5491B04FA02F52844151E49
:1003F000A2F10102F1DC30BD202A04DB203A00FA30
:1004000002F1002070479140C2F1200320FA03F36B
:10041000194390407047202A04DB203A21FA02F069
:100420000021704721FA02F3D040C2F1200291402E
:1004300008431946704710B5141E73F1000408DA1A
:10044000401C41F1000192185B411A4301D120F098
:10045000010010BD2DE9F04D92469B4611B1B1FA55
:1004600081F202E0B0FA80F220329046FFF7C4FF3A
:1004700004460F4640EA0A0041EA0B0153465A4639
:10048000084313D0114653EA010019D0C8F14002C5
:100490005046FFF7C0FF05460E46504659464246B5
:1004A000FFF7AAFF084305D0012004E020463946A3
:1004B000BDE8F08D0020054346EAE0762C43374343
:1004C0000A986305E40AA0EB08000022FD0A44EA4A
:1004D00047540A3002D500200146E9E7010510190A
:1004E0006941DDE9084500196941BDE8F04DA2E721
:1004F000064C074D06E0E06840F0010394E8070071
:1005000098471034AC42F6D3FFF760FE98300008ED
:10051000B8300008FEE7000080B540F20C10C2F2CF
:10052000000000F035FA80BDD0F800C06FF00F0277
:100530004AF6AB2352FA8CF2CAF6AA230146A2FB72
:100540000330000905A31B5C40F2FF302CEA0000D9
:100550005F2A88BF0430C1E91603704700061016F1
:10056000000610168269816AB2F5005F06D06AB98A
:10057000022912D0012914D0D1B90EE0032917D8CD
:10058000DFE801F0020B020F0120704703293CBF96
:10059000012070471CBF00207047C06AC0F3006094
:1005A0007047C06AA0F1C070B0FA80F0400970478F
:1005B0000020704780B5D0F800C0D0F808E0DCF823
:1005C0000000BEF1400F20F48020CCF80000084667
:1005D000CCF8043004BF10460A46CCF80800CCF82A
:1005E0000C2080BD7047000080B500F079F990F9CB
:1005F000073040F2080103A0C2F200010A2200F015
:10060000ADF880BDBFD8D6C6C6F7B2CECAFDC9E820
:10061000D6C300002DE9F04F97B000F061F9814694
:1006200042F6324042F6324501F0A6FD27A000F026
:10063000EFF800244FF0010B4FF0020A07AE4FF025
:10064000000800BF99F90710322008FB00F0884528
:1006500042F6F46100F15A00C0F6000142F6FD6274
:10066000C0F6000208BF114687B206915A203946EB
:1006700028223223CDE900A4CDE90254CDF810B0F0
:10068000CDF814B001F0A8FD12A050F8283042F6C1
:10069000F86230464021C0F6000202F025FA8220BE
:1006A00039464FF4AA723223CDE900A4CDE90254B1
:1006B000CDE904BB069601F08FFD08F10108B8F101
:1006C000030FBFD117B0BDE8F08F00BFD6F7B2CB94
:1006D000B5A5000077300008F32F00088730000828
:1006E0002DE9F04397B00D4642F6FD61044642F60F
:1006F000F460C0F60001C0F60000002A08BF014601
:100700000127002642F6324906916E2021461E221C
:100710002323CDE90066CDE902960497059701F001
:100720005BFD42F6F8620DF11C08C0F6000240467F
:1007300040212B4602F0D8F98C2021464FF4A572B7
:100740002323CDE90066CDE90296CDE90477CDF803
:10075000188001F041FD17B0BDE8F0832DE9F047A6
:100760008CB0074642F632401C4616460D4642F60D
:10077000324801F001FD384600F04AF846F2676061
:10078000C6F2666054FB00F0411001EBD07909EB32
:100790008900311A05290E46A8BF0526012914DB58
:1007A00005EB8005241A00274FF0230A07FB0AF007
:1007B000E21B4B3055F82710B2FA82F2520980B290
:1007C000FFF78EFF0137B742F0DB07AC09F10103F9
:1007D00002250CA220461421009502F085F9012083
:1007E00000218DE80301CDE9035005904FF4D2704C
:1007F0004FF4917132221423069401F0EDFC0CB0F9
:10080000BDE8F0872225642F256422000000000047
:10081000F0B58FB00446FFF734FD0001FFF7AAFDE5
:100820009FED150B53EC102BFFF732FDFFF7AFFDDB
:100830000546C0F5F07042F6F86207AE00EBD077DF
:10084000C0F6000230462021234602F04DF9012077
:1008500042F6324100220223CDE90032CDE90210F6
:10086000CDE90400C7F34F0014212A462A23069637
:1008700001F0B2FC0FB0F0BD000000000000F83F36
:1008800080B500F02DF890F9073040F2380103A050
:10089000C2F200010622FFF761FF80BDB9A4D7F7BD
:1008A000C4A3CABDD1A1D4F10000000080B500F0FE
:1008B00017F890F9073040F2500103A0C2F200018E
:1008C0000722FFF74BFF80BDB9A4D7F7B2CECAFD10
:1008D000C9E8D6C30000000072B600BFFEE7000002
:1008E00040F20410C2F200007047000070B5866D3F
:1008F000044600F095FA94F83510022925D10546F2
:100900002068216C026822F016020260426922F01F
:100910008002426109B9A16C19B1016821F0080196
:100920000160016821F00101016000BF20680068DA
:10093000C0070ED000F074FA401B0628F6D3202022
:100940006065032084F835000CE08020606501209C
:1009500008E0E06D3F2101FA00F0B060012084F86A
:1009600035000020002184F8341070BD90F8351057
:10097000022909D1052180F835100068016821F0AD
:10098000010101600020704780214165012070470E
:10099000F0B581B004460020009040F20000C2F2A1
:1009A00000000268D4E9166048F2B51337680821E0
:1009B000C1F64E3381403942A2FB03250CD0226898
:1009C00013685B0708D5136823F004031360B16054
:1009D000616D41F00101616501218140394208D01A
:1009E00022685269120604D5B160616D41F00201BE
:1009F000616504218140394208D02268126892075B
:100A000004D5B160616D41F0040161651021814040
:100A1000394215D020680268120711D5B16002680A
:100A20000168520306D4C90506D4016821F0080103
:100A3000016001E0080342D4216C09B120468847D7
:100A4000E16D202000FA01F23A4244D020680368A8
:100A5000DB0640D5B26094F835300268052B1ED114
:100A600022F016020260426922F080024261226C8A
:100A70000AB9A26C1AB1026822F0080202603F2093
:100A80008840B060012084F83500216D00200029E5
:100A900084F8340040D02046884701B0F0BD01689A
:100AA000520310D4C90512D4016821F0100101606D
:100AB000012084F83500002084F8340007E0A16CA0
:100AC0000029BBD1BCE7080301D4616C00E0E16BF5
:100AD00009B120468847606DF0B1606DC00717D03E
:100AE000052084F835002068A90A026822F0010276
:100AF000026000BF009A01328A42009202D8026866
:100B0000D207F7D1012084F83500002084F83400A2
:100B1000E16C09B12046884701B0F0BD2DE9F041F4
:100B2000044600F07DF9C4B10546022084F8350082
:100B30000020216884F83400086820F00100086073
:100B400026683068C0070BD000F06AF9401B052802
:100B5000F6D903212022032042E00120BDE8F081E4
:100B6000306848F23F01CFF21001251D00EA010C68
:100B70002ECDD4E9050E41EA0C0111431943294356
:100B8000D4E90778084340EA0E01606A3943042833
:100B900041EA080103D1D4E90B2311431943316021
:100BA0007169042821F0070141EA00050CD1D4E95C
:100BB0000A1045EA010538B12046FFF7D3FC18B109
:100BC0000121402201200BE020467561FFF7ACFCBB
:100BD000E16D3F2202FA01F1816000220121002033
:100BE000626584F83510BDE8F0810000B0B50446B8
:100BF00090F83400012828D0012084F83400A56D35
:100C000094F8350001281DD1022084F83500002019
:100C100060652046FFF7CEFCE26D3F23206803FAB3
:100C200002F2216CAA60026842F01602026019B159
:100C3000016841F008010160016841F001010160B3
:100C40000020B0BD002084F834000220B0BD0000B8
:100C5000B0B5044600F0E4F8054640F23000C2F2B8
:100C600000000078611C18BF044400BF00F0D8F8F1
:100C7000401BA042FAD3B0BD2DE9F04F83B000F184
:100C80003E4202F1FF724FEAB22241F600070192A2
:100C9000C4F2020707224FF0010E00254FF0000AB0
:100CA0004FF00008B84208BF062200920AE000BFD9
:100CB00008F101080AF1040AB8F1100F05F1020564
:100CC00000F0A4800C680EFA08FB14EA0B09EFD0C0
:100CD0004C6804F0030CACF1010EBEF1010F11D809
:100CE0000322876802FA05F6CA68B743AA403A4366
:100CF00082604268C4F3001722EA0B0207FA08F781
:100D00003A434260BCF1030F1CD0C26803238E68D3
:100D100003FA05F7BA4306FA05F73A43BCF1020FA6
:100D2000C2600FD16FF0030202EA580202440AF0D7
:100D30001C060F23176A03FA06F40B69A743B34096
:100D40003B431362026803234F68AB409A4307F0AA
:100D50000303AB401A4317F4403F4FF0010E02600B
:100D6000A6D0002243F644030292C4F202031A689A
:100D700043F6004442F480421A601A68C4F2010447
:100D800002F480420292029A28F003024FF6084BC6
:100D90002244CFF6FF7B52F80B300AF00C070F26E7
:100DA000BE4023EA060C019B009E062B38BF1E4660
:100DB00006FA07F747EA0C0342F80B30A2684B68C3
:100DC00042EA090743F60C4CDE0258BF22EA090743
:100DD000A760C4F2010CDCF800209E0242EA090779
:100DE00058BF22EA0907CCF8007062689E0342EA05
:100DF000090758BF22EA090767602268DB0342EA55
:100E0000090358BF22EA0903236051E703B0BDE894
:100E1000F08F00000069084018BF012070470000F3
:100E200040F26820C2F200000068704740F23000D3
:100E300040F26821C2F20000C2F2000100780A68A4
:100E4000104408607047000080B543F60040C4F2CB
:100E50000200016841F400710160016841F48061A1
:100E60000160016841F480710160032000F060F8C6
:100E70000F2000F005F800F02BF8002080BD0000E6
:100E8000B0B540F23002C2F2000240F20001127826
:100E9000C2F200014FF47A730968B3FBF2F2044620
:100EA000B1FBF2F1084600F073FB0F2C4FF0010587
:100EB0000CD858B94FF0FF3021460022002500F031
:100EC00027F840F23400C2F2000004602846B0BDAA
:100ED00082B0002043F640010190C4F202014A684A
:100EE00042F480424A604A6802F480420192019AC8
:100EF0000090086840F080500860086800F080505A
:100F00000090009802B0704780B501F0A1FD80BD4F
:100F100070B514460D46064601F0AAFD2946224644
:100F200001F010F90146304601F0AAFD70BD000045
:100F300080B501F0B7FD80BD70B582B00020019092
:100F400043F64000C4F202000168402641F080519F
:100F500001600068C4F20E2600F0805001900198F4
:100F600047F204050120C4F200053060FFF758FF86
:100F7000044600BF2868C00306D4FFF751FF001BDA
:100F8000B0F57A7FF6D90EE001207060FFF748FFD8
:100F9000044600BF2868800308D4FFF741FF001B08
:100FA000B0F57A7FF6D9032002B070BD002002B000
:100FB00070BD00002DE9F041002800F08B8043F661
:100FC0000808C4F202080446D8F8F8030D4600F0F9
:100FD0000F00884207D288F8F853D8F8F80300F0D9
:100FE0000F00A84276D12068810717D5410705D5A3
:100FF000D8F8001041F4E051C8F80010010705D5F9
:10100000D8F8001041F46041C8F80010D8F800107A
:10101000A26821F0F0011143C8F80010C0073FD1C9
:10102000D8F8F80300F00F00A84207D988F8F85361
:10103000D8F8F80300F00F00A8424BD12068410710
:1010400007D5D8F80010E26821F4E0511143C8F840
:101050000010000708D5D8F80000216920F460408E
:1010600040EAC100C8F8000000F07EF8D8F800108F
:1010700042F69462C1F30311C0F60002515C40F2E3
:10108000000220FA01F140F23400C2F200000068D0
:10109000C2F200021160FFF7F3FE0020BDE8F0810C
:1010A0006068811E022907D258F8081C89015CBFBC
:1010B0000120BDE8F08110E0012807D158F8081C94
:1010C00089035CBF0120BDE8F08106E058F8081CE8
:1010D000890702D40120BDE8F081D8F8001021F082
:1010E00003010843C8F80000FFF79AFE064641F2E4
:1010F000883700BFD8F80000616800F00C00B0EB42
:10110000810F8DD0FFF78CFE801BB842F2D90320EF
:10111000BDE8F08140F20000C2F2000000687047B4
:1011200080B5FFF7F7FF43F60801C4F20201096832
:1011300042F6A462C1F38221C0F60002515CC840AD
:1011400080BD000080B5FFF7E5FF43F60801C4F25B
:101150000201096842F6A462C1F34231C0F60002FE
:10116000515CC84080BD000010B543F60404C4F2D1
:1011700002046068C0F3810142F20040C0F2F40052
:10118000DFE801F04102071641F20020C0F27A00C8
:1011900010BD216801F03F02216823684902C3F3B2
:1011A000881114D4A1FB00010023FFF727F815E0F4
:1011B000216801F03F02216823684902C3F38811C6
:1011C00015D4A1FB00010023FFF718F816E041F247
:1011D0000020C0F27A004843B0FBF2F021680222FE
:1011E000C1F3014102EB4101B0FBF1F010BD41F24E
:1011F0000020C0F27A004843B0FBF2F02168C1F34E
:101200000271B0FBF1F010BD2DE9F04182B0002871
:1012100000F096800446007843F60006C007C4F24A
:1012200002062BD0B06800F00C00042820D0B06873
:1012300000F00C00082802D17068400218D4B06891
:1012400000F00C000C2802D17068400210D46568D0
:10125000B5F5A02F00F05081B5F5803F00F050812A
:10126000306820F480303060306820F480204AE11B
:101270003068800302D56068002861D0207880073C
:1012800022D5B06810F00C0F11D0B06800F00C003F
:10129000082802D17068400209D5B06800F00C003F
:1012A0000C2840F09B807068400200F19780306805
:1012B000800702D5E068012842D13068216920F01A
:1012C000F80040EAC1003060207800073CD4207864
:1012D000400750D4A5698DB3B06800F00C00082811
:1012E00040F0A480012D2BD07068E16900F48002E9
:1012F0008A4225D1216A00F03F028A4220D147F676
:10130000C071626A0140B1EB821F19D1A26A002349
:10131000CFF6FF7303EBC23200F440316FF30F02DC
:1013200091420DD1E16A00F07062B2EB016F07D11A
:10133000216B00F0E040B0EB017F01D1002024E1FF
:10134000012002B0BDE8F0816069002840F2000091
:10135000C4F247205AD00121C0F8801EFFF760FD7B
:10136000054600BF706F8007B1D4FFF759FD401BE1
:101370000228F7D994E0306C10F080580AD1002090
:101380000190306C40F080503064306C00F0805040
:101390000190019847F20007C4F200073868C005C1
:1013A0000FD4386840F480703860FFF739FD054687
:1013B0003868C00505D4FFF733FD401B0228F7D974
:1013C0006EE0A568052D53D0012D55D0306F20F06B
:1013D00001003067306F20F0040050E0E068002822
:1013E00075D00020C4F2472001210160FFF718FDED
:1013F000054600BF306880073FF55FAFFFF710FD7F
:10140000401B02284FF00300F4D9BEE00021C0F8D1
:10141000801EFFF705FD0546706F80077FF557AF0B
:10142000FFF7FEFC401B0228F6D939E00027C4F282
:10143000472700203866FFF7F3FC022D05460BD145
:101440003068800140F17D80FFF7EAFC401B0228F4
:101450004FF00300F4D998E0306880017FF56EAF5B
:10146000FFF7DEFC401B02284FF00300F4D98CE0AC
:10147000306F40F004003067306F40F0010030679B
:10148000FFF7CEFC002D054641F2883713D000BF90
:10149000306F800712D4FFF7C3FC401BB842F7D966
:1014A000032002B0BDE8F081FFF7BAFC401BB84250
:1014B0004FF0030069D8306F8007F5D4B8F1000F02
:1014C0007FF408AF306C20F08050306402E70020D9
:1014D000C4F2472000210160FFF7A2FC054600BFCF
:1014E000306880077FF5F0AEFFF79AFC401B0228BA
:1014F0004FF00300F4D948E0306840F480203060B9
:10150000306840F480303060FFF78AFC002D0546DB
:1015100013D000BF306880033FF5B0AEFFF780FC0A
:10152000401B64284FF00300F4D92EE0FFF778FC4D
:10153000401B64284FF0030027D830688003F5D49F
:101540009CE604F11C052FCD246B08430021CFF647
:10155000FF7140EA821001EBC3316FF30F0140EAE3
:101560000560084340EA0470706001203866FFF7A8
:1015700057FC0446306880013FF5E0AEFFF750FCB1
:10158000001B02284FF00300F4D902B0BDE8F0813F
:1015900080B500F06FFE80BD70470000704700000E
:1015A00010B590F83C20012A4FF0020252D00123DE
:1015B00080F83C3080F83D200268D2F804E0D2F890
:1015C00008C00C682EF07003234341F2FF74C4F28C
:1015D0000004A24253600DDC40F2FF73C4F200032A
:1015E0009A4215DCB2F1804F29D040F20043C4F298
:1015F000000322E040F2FF33C4F201039A4212DCFE
:1016000041F60003C4F200039A4218D0002312E00E
:1016100040F60003C4F200039A4210D040F60043A3
:10162000C4F2000309E044F20003C4F201039A4249
:1016300005D040F20043C4F201039A4204D1496844
:101640002CF08003194391600121002280F83D10A5
:1016500080F83C20104610BD002804BF01207047D0
:1016600010B5044690F83D0028B9002084F83C00ED
:10167000204600F01FF8022084F83D002068211D5C
:1016800000F07EFE012084F8460084F83E0084F8D5
:101690003F0084F8400084F8410084F8420084F858
:1016A000430084F8440084F8450084F83D0000209D
:1016B00010BD000080B582B00068B0F1804F01D04D
:1016C00002B080BD0020019043F64000C4F2020049
:1016D0000168002241F0010101600068002100F072
:1016E0000100019001981C20FFF712FC1C20FFF75D
:1016F0000BFC02B080BD000010B5044690F83C0021
:1017000001284FF0020008BF10BD012284F83C20E0
:1017100084F83D0020684FF6777382689A438260B0
:101720000A684F2A0FDC1F2A22DD202A23D0302A04
:1017300021D0402A4DD14B68CA68194600F0CEFE30
:10174000206840213BE06F2A17DDB2F5005F20D012
:10175000B2F5805F2AD0702A3BD1D1E9012CCB6849
:10176000614600F0A7FE2068816841F077011AE029
:101770000AB1102A2DD1114621E0502A18D0602A32
:1017800027D14B68CA68194600F0BAFE206860216C
:1017900015E0D1E9012CCB68614600F08BFE206892
:1017A000816841F48041816000200BE0002009E065
:1017B0004B68CA68194600F091FE2068502100F07D
:1017C00085FE0020012184F83D10002184F83C10A2
:1017D00010BD0120F6E7000070470000B0B50446D8
:1017E0000068C168026902EA0105A9071DD46807FB
:1017F00031D4280747D4E8065CD4E80773D128061B
:101800007BD4680606D520686FF040010161204650
:1018100000F084F8A80658BFB0BD20686FF0200122
:1018200001612046FFF7BAFEB0BD6FF00201016111
:10183000012121778069800703D02046FFF7CCFF84
:1018400005E0204600F064F8204600F063F8002030
:1018500020776807CDD520686FF00401016102216F
:101860002177806910F4407F03D02046FFF7B4FF52
:1018700005E0204600F04CF8204600F04BF8002030
:1018800020772807B7D520686FF00801016104218F
:101890002177C069800703D02046FFF79DFF05E050
:1018A000204600F035F8204600F034F8002020777C
:1018B000E806A2D520686FF01001016108212177A8
:1018C000C06910F4407F03D02046FFF785FF05E094
:1018D000204600F01DF8204600F01CF8002020777C
:1018E000E8073FF48CAF20686FF0010101612046EA
:1018F00000F012F828067FF584AF20686FF08001B1
:1019000001612046FFF748FE68067FF583AF7AE75E
:1019100070470000704700007047000070470000EB
:101920007047000070470000B0B582B003680446FD
:101930001868D9685A6900F02F05202D01F020059C
:1019400005D125B1204600F083FE02B0B0BD5FEAAC
:10195000007C1EBF02F0010E01F4907212EB0E0229
:101960004AD1226B0840C1063DD5012A3BD1002057
:1019700001901868019058680190019858694006D4
:1019800042D4A08DE18DE28D002A1CBF401A5FEA8F
:10199000004101D102B0B0BD216851E8031F2268A7
:1019A00021F4907142E80313002BF5D1216851E82E
:1019B000051F226821F0010142E80513002BF5D133
:1019C000202184F842100021216300BF216851E8E2
:1019D000031F226821F0100142E80313002BF5D108
:1019E0000221616354E0010658D44006D2D5204656
:1019F00000F014FE02B0B0BDC20718BF11F480722F
:101A000051D1420755D45BE0E06B016849688AB266
:101A1000002ABFD0A38D9A42BCD2E185C069B0F53F
:101A2000807F30D0206850E8030F216820F4807058
:101A300041E80302002AF5D1206850E8050F21682B
:101A400020F0010041E80502002AF5D1206850E8A5
:101A5000050F216820F0400041E80502002AF5D179
:101A6000202084F842000020206300BF206850E856
:101A7000030F216820F0100041E80302002AF5D18D
:101A8000E06BFEF733FF02206063A08DE18D401A0A
:101A900081B22046FFF744FF02B0B0BD204600F0FF
:101AA000A9FE02B0B0BD626C42F00102626442075E
:101AB00006D5BEF1000F03D0626C42F002026264F0
:101AC000820706D5BEF1000F03D0626C42F004021B
:101AD0006264BCF1000F06D55EEA050203D0626CB9
:101AE00042F008026264626C002A3FF453AF08407F
:101AF000800602D5204600F0ABFD20684069616C8D
:101B000000F0400001F00801401827D0204600F006
:101B10005DFD2068406940061BD500BF206850E885
:101B2000050F216820F0400041E80502002AF5D1A8
:101B3000E06B70B142F22551C0F600010165FEF77D
:101B400015FF00283FF426AFE06B016D884702B017
:101B5000B0BD2046FFF7E6FE02B0B0BD2046FFF75D
:101B6000E1FE0020606402B0B0BD0000002804BFA8
:101B70000120704710B5044690F8410028B90020B4
:101B800084F84000204600F021F8242084F8410029
:101B90002068C16821F40051C160204600F0BCFDFE
:101BA0002068016921F490410161416921F02A0115
:101BB0004161C16841F40051C1600020202160648E
:101BC00084F8411084F84210606310BD2DE9F0479D
:101BD00086B0044644F600070068C4F200070026F9
:101BE000B8420596CDE903660296019602D006B08A
:101BF000BDE8F08743F630000096C4F202000169A8
:101C000001AD41F48021016101694FF0020801F446
:101C1000802100910099009601684FF0030941F07E
:101C20000401016001684FF0070A01F0040100910E
:101C300000990096016841F008010160006829469A
:101C400000F00800009000982020019007F5E03097
:101C5000CDE90286CDF81090CDF814A0FFF70CF86E
:101C60004FF48070CDE9010803A880E8400607F52D
:101C7000E2302946FFF700F840F20C1546F2580012
:101C8000C2F20005C4F202004FF0006140224FF49E
:101C9000806385E847002846C5E90436C5E906663D
:101CA000C5E90866FEF73AFF002818BFFEF714FEE4
:101CB000272000210022A563AC63FFF729F9272024
:101CC000FFF722F906B0BDE8F0870000704700007A
:101CD000B0B5044690F8410020281CBF0220B0BDDA
:101CE0004FF0010089B3002A134608BFB0BD4FF082
:101CF000000C21202162A384E384C4F844C084F84A
:101D00004100A06B42F2815E42F2C1552268C0F6EA
:101D1000000EC0F60005C0E90FE542F23555C0F6E9
:101D200000050432C0E9135CFEF760FF20686FF025
:101D300040010160206850E8050F216840F08000F4
:101D400041E80502002AF5D10020B0BD704700002F
:101D500070470000C1B240F20410C2F2000090F9D6
:101D60000720062903D1082A01DC511C12E00229B0
:101D700003D1012A01DB511E0CE005290BD1817929
:101D8000002908BF70470139817150FA81F1497803
:101D900001700221C1717047C1B240F20410C2F259
:101DA000000090F90720062904D1012A02DC511C09
:101DB000C1717047022904D1012A02DB511EC17191
:101DC0007047012918BF7047817903234A1C82712B
:101DD000421800215170C279012A08BF0223002A4B
:101DE00008BF01230370C1717047000080B540F245
:101DF0000412C2F200021278032A88BF80BDDFE815
:101E000002F0020B0508FFF7C7FF80BD00F02AF8BB
:101E100080BDFFF79FFF80BD00F002F880BD00008D
:101E2000C1B240F20410C2F2000090F90720062966
:101E300003D1042A01DC511C12E0022903D1012A3A
:101E400001DB511E0CE005290BD18179002908BF67
:101E500070470139817150FA81F149780170002190
:101E6000C1717047C1B240F20410C2F2000090F993
:101E70000720062903D1052A01DC511C12E00229A2
:101E800003D1012A01DB511E0CE005290BD1817918
:101E9000002908BF70470139817150FA81F14978F2
:101EA00001700121C1717047FEE7000080B540F26A
:101EB000FC10C2F200006C21FEF7D8F980BD0000D2
:101EC0002DE9F04381B081464FF0000840F209202F
:101ED000C9E9000841F20000C4F202004FF40061B9
:101EE000FEF798FF002841D040F2FC10C2F200003B
:101EF00042F6AC6600F10807C0F60006002407E0D1
:101F000087F80080F5B10834482C07F10C072AD077
:101F1000311948684988FEF77DFF0546B0FA80F020
:101F200017F8081C40098142ECD007F8080CFEF7AE
:101F300077FF002D47F8040CE2D038780028E1D173
:101F40001AE000BFFEF76CFF57F8041C401AB0F50A
:101F50007A7FD8D938780028D5D1315D0120387002
:101F600089F800100CE001B0BDE8F083082089F882
:101F7000000001B0BDE8F083305D89F8000000206A
:101F800089F80100FEF74CFFC9F8040001B0BDE874
:101F9000F083000080B582B00020019043F630004D
:101FA000C4F202000168002241F4001101600068DF
:101FB000002100F40010019001980E20FEF7A8FF08
:101FC0000E20FEF7A1FF02B080BD000070B586B004
:101FD000002643F630000596CDE90366CDE901669B
:101FE0000096C4F20200016840F6004441F080010E
:101FF00001600168C4F2020401F0800100910099BF
:102000000096016801AD41F004010160016801F032
:102010000401009100990096016841F010010160EF
:10202000016801F01001009100990096016841F0EB
:1020300008010160016801F0080100910099009613
:10204000016841F0010101600068294600F00100CB
:10205000009000984FF40060CDE9010604F580601F
:102060000396FEF709FE4FF68060CDE90106204693
:1020700029460396FEF700FE06B070BD80B586B017
:1020800040F26C100021C2F200004FF08042592350
:102090004FF0FF3CCDE90411CDE90211CDE900116B
:1020A000C0E90023C0E9021C01618161FFF7D4FA95
:1020B000002818BFFEF710FC4FF48050029040F249
:1020C0006C10C2F2000002A9FFF716FB002818BF2F
:1020D000FEF702FC0020CDE9000040F26C10C2F2D5
:1020E00000006946FFF75CFA002818BFFEF7F4FB12
:1020F00006B080BD80B540F2B41044F60001C2F2D3
:102100000000C4F2000100234FF00C0C4FF4E13248
:1021100080E80E00C0E90333C0E905C3C361FFF7DF
:1021200025FD002818BFFEF7D7FB80BDFEE70000A5
:1021300040F20410C2F2000000210170C18070471B
:10214000FEE7000000F0070080F00703042B28BF23
:1021500004234FF0FF3C03380CFA03F338BF002090
:10216000994381400CFA00F022EA000008437047CE
:10217000704700007047000010B540F27004C2F2D2
:102180000004034612A22046142100F0ADFC0128F1
:102190001DDB10281BD84FF0FF322118225240F2CD
:1021A000B414C2F2000423688A701968490658BF43
:1021B00010BD033040F2700182B2C2F2000120462D
:1021C000FFF786FD206800BF01684906FCD510BDF9
:1021D000636C7320256400002DE9F0438BB0DDE9CA
:1021E00017750DF1480ECDE9087540F28405DDE95B
:1021F00015680446C2F200059EE800528DE80E52B2
:1022000012A22846802123460696CDF81C8000F0B5
:102210006BFC012817DB7C2815D840F2B414291870
:102220004FF0FF32C2F200048A7021682A52096816
:10223000033082B220462946FFF74AFD206800BFDE
:1022400001684906FCD50BB0BDE8F0837873747261
:102250002025642C25642C25642C25642C25642CD5
:1022600025642C25642C25642C25642C25642C25C0
:1022700073000000B0B501380024B4EB106F1CBF30
:102280000120B0BD4EF21005CEF2000568604FF09F
:10229000FF300F2100F0F4FB0720AC6028602046DF
:1022A000B0BD000080B5FEF7C1FD80BD10B594B093
:1022B00007AC20463421FDF7D9FF002043F640014A
:1022C0000690CDE90400CDE902000190C4F20201BC
:1022D0000A6842F080520A60096801F08051019159
:1022E0000199019047F20000C4F20000016841F436
:1022F0004041016000684FF4800100F440400190CB
:102300000198012007904FF480300E91042108902D
:1023100002200F91B4210D90CDE91010CDE91200EB
:102320002046FEF771FFB0B9FEF706FE98B90F2000
:10233000029002200390002004904FF4A0500590DA
:102340004FF48050069002A80521FEF733FE0028C6
:1023500004BF14B010BDFEF7BFFA00004EF688505F
:10236000CEF20000016841F4700101607047000086
:1023700080B540F26C10C2F20000FFF72FFA80BD6A
:1023800010B540F6FF3E0368C4F2000E40F2004C68
:102390007045C4F2010C0FDCB0F1804F19D040F24F
:1023A0000042C4F20002904213D040F60002C4F290
:1023B000000290420DD010E040F60042C4F200024C
:1023C000904206D0604504D00022C4F2010290423F
:1023D00003D14A6823F07003134341F6FF72C4F23D
:1023E000000290420DDC70451FDCB0F1804F41D0FF
:1023F00040F20042C4F2000290423BD040F600029C
:1024000021E043F6FF72C4F20102904220DC42F266
:102410000002C4F2000290422CD00022C4F2010259
:10242000904227D0604525D028E040F60042C4F213
:10243000000290421ED041F60002C4F20002904217
:1024400018D041F60042C4F20002904212D015E0CA
:1024500044F20002C4F2010290420BD044F60002A2
:10246000C4F20102904205D044F20042C4F20102DB
:10247000904203D1CA6823F44073134323F08002CF
:102480004B69D1F800E08C681A430260C46240F4E2
:102490008062C0F828E0624504BF09690163012138
:1024A00041610169C90708BF10BD016921F001013F
:1024B000016110BDD0F808C011432CF47F4C41EAF3
:1024C000032141EA0C01816070470000826822F01C
:1024D0007002114341F0070181607047D0F820C0BD
:1024E000036A23F001030362836923F0F00343EAE4
:1024F00002122CF00A031943826101627047000046
:10250000D0F820C0036A23F010030362836923F428
:10251000704343EA02322CF0A00343EA01118261C6
:102520000162704780B5806B0021C185C184FFF7CF
:10253000F9F980BD10B5846B2068406994F84110AA
:10254000212907D110F0800004D00020E08420462B
:1025500000F070F82068406994F84210222907D1F1
:1025600010F0400004D00020E085204600F02EF856
:10257000606C40F0100060642046FFF7D3F910BD96
:1025800080B50168806B0968C90516D40021C18433
:10259000016851E8051F026821F0800142E8051337
:1025A000002BF5D1016851E8031F026841F040019A
:1025B00042E80313002BF5D180BDFFF7C7FB80BDB8
:1025C00080B5806BFFF7C4FB80BD0000016851E857
:1025D000031F026821F4907142E80313002BF5D128
:1025E000016851E8051F026821F0010142E8051366
:1025F000002BF5D1016B01290AD100BF016851E818
:10260000031F026821F0100142E80313002BF5D1EB
:10261000202180F8421000210163704780B50168D5
:10262000CA6822F04002CA60202180F84110FFF7FA
:102630008DFB80BD016851E8031F026821F0C001D5
:1026400042E80313002BF5D1202180F84110704798
:1026500080B582B090F8421022291ED18268B2F56E
:10266000805F02D1016900294AD0816AB2F5805F9A
:1026700007D00AB9026922B10268526802F07F02EB
:1026800001E0026852680A700121826A1144816285
:10269000C18D01390A04C18501D002B080BD016835
:1026A000CA6822F02002CA60CA6822F48072CA6036
:1026B0004A6922F001024A61202180F8421000217B
:1026C0004163026B012A23D1016300BF016851E815
:1026D000031F026821F0100142E80313002BF5D11B
:1026E00001680A68D20606D5002201920A680192A2
:1026F000496801910199818DFFF712F902B080BDFF
:102700000168826A49686FF35F2111800221BCE78A
:10271000FFF7DCFA02B080BD10B504460068D4E9CA
:1027200002C22369016921F44051114301616269C8
:1027300043EA0C01E3691143C268194349F20C638F
:102740009A431143C1604169A26921F4407141F289
:102750000043114340F48062C4F201039A42416194
:1027600002D1FEF7EFFC01E0FEF7DAFCE1696368F5
:102770001922B1F5004FA0FB02011CD15A00DB0F5A
:10278000FDF73CFD48F21F51C5F2EB11A0FB012300
:102790005A096FF0630302FB0300322303EBC0000E
:1027A000A0FB01014FF4F87000EA111000EB0210D9
:1027B000C1F342111AE09A009B0FFDF71FFD48F28A
:1027C0001F51C5F2EB11A0FB01235A096FF06303FF
:1027D00002FB0300322303EB0010A0FB0101F020F9
:1027E00000EA511000EB0210C1F3431122680843C4
:1027F000906010BD90F84110212923D18168B1F576
:10280000805F01D1016931B1016A02684B1C03622A
:102810000978516007E0016A036831F8022B6FF311
:102820005F225A600162C18C01390A04C18418BF59
:1028300070470068C16821F08001C160C16841F043
:102840004001C1607047000080B5FFF72FFBFFF724
:102850006FFC42F63240FFF78FFCFDF7DBFE80BDD8
:102860002DE9F04F89B007A8FFF72AFBFEF738F8EB
:1028700004460678C579DDE90701FFF7B7FA227843
:1028800094F90700B242C3B225D1AB4200F0CF8029
:10289000002A38D046F267616FB2C6F2666157FB14
:1028A00001F75BB27E1053FB01F306EBD7775E10A6
:1028B00006EBD373DEB2FFB2BE425ED1012A65D011
:1028C000032A69D0022A40F0798040F25005C2F212
:1028D0000005012274E040F20400C2F20000032A65
:1028E000037000F2A480DFE802F00205080BFDF798
:1028F00091FE9CE0FDF7C4FF99E0FDF7D7FF96E05D
:10290000FDF772FE93E040F20408C2F2000898F965
:1029100000004FF05A094FF0320A42F6F46110FB02
:102920000A90C0F60001012600270225069181B217
:102930005A202822322342F6324B8DE8A008CDE9F6
:1029400003760596FFF748FC94F9070042F6FD6C04
:1029500010FB0A90C0F6000C81B25A2028223223C4
:102960008DE8A008CDE903760596CDF818C0FFF7ED
:1029700033FCE07988F8000059E0032A12D0022ADB
:1029800013D0012A13D1FDF77BFF10E040F2380588
:10299000C2F20005012213E040F20805C2F2000570
:1029A00001220DE0FDF720FE01E0FDF77FFFE07959
:1029B00040F20401C2F20001087038E00022002554
:1029C000AAB340F2040850FB01F7C2F200087E10DF
:1029D0005BB298F9002006EBD77707EB870703EB8C
:1029E00083039342A0EB070713DC581D904210DDD0
:1029F00052FB01F0411001EBD07000EB8000101A87
:102A0000232148434B3055F8221080B20022FDF7B5
:102A100067FE232094F9071078434B3055F82110B6
:102A200080B20122FDF75CFEE07988F800001420F6
:102A3000FEF70EF909B0BDE8F08F000080B540F256
:102A4000B410C2F20000FEF76FFF80BDFEE7000089
:102A5000002848BF704700F01F01012202FA01F16F
:102A60004EF200124009CEF2000242F820107047E8
:102A70004EF60C50CEF200000068C0F30220704702
:102A80004EF6145300F00F02CEF2000309011A446F
:102A900000F16043B0F1FF3FC8BF03F5644211701D
:102AA000704700004EF60C51CEF200010A684FF656
:102AB000FF031A4060F30A2242F0806040F0FD708C
:102AC00008607047FEF7C0F9FFF7F0FBFFF77EFAEA
:102AD000FFF760FAFFF70EFBFFF7D0FAFFF7B4FE3F
:102AE000FFF7BEFEFCE700000FB47CB50C0009AD9B
:102AF00001D0611E00E00021CDE90001064B6A46CD
:102B00002946089800F01AF8002C02D0009A0021FB
:102B100011707CBC5DF814FB7F2E000802E008C831
:102B2000121F08C1002AFAD170477047002001E047
:102B300001C1121F002AFBD1704700002DE9FF4F91
:102B40008BB088460546002606E025280BD0DDE937
:102B50000D1290476D1C761C28780028F5D10FB017
:102B60003046BDE8F08F0024A146A2460122AE49BE
:102B700000E0044315F8013F203B02FA03F008424D
:102B8000F7D128782A2810D06FF02F022878A0F1EA
:102B90003001092915D809EB890102EB410144F004
:102BA000020400EB01096D1CF0E758F8041B5FEA12
:102BB000010903D544F40054C9F1000944F00204AA
:102BC0006D1C28782E2817D115F8010F44F0040445
:102BD0002A280ED06FF02F022878A0F130010929A1
:102BE0000AD80AEB8A0102EB410100EB010A6D1CD5
:102BF000F2E758F804AB6D1C28786C280FD006DC7F
:102C00004C2817D068280DD06A2814D104E0742805
:102C100010D07A280FD10DE044F400140AE044F4F7
:102C2000801401E044F440146978814202D104F533
:102C300080146D1C6D1C2878692865D006DC00287E
:102C40008DD0632827D0642806D15DE06E2808D097
:102C500073282AD0752877D0DDE90D129047761CAD
:102C6000E0E0C4F30250022809D003280DD0D8F8C0
:102C7000001004280DD00E6008F10408D2E0D8F846
:102C80000010F217C1E90062F6E7D8F800100E80D4
:102C9000F2E70E70F0E718F8041B8DF80010002022
:102CA0008DF80100EB46012003E058F804BB4FF01B
:102CB000FF3061074FF0000701D40AE07F1C574541
:102CC0000DDA8742FADB1BF807100029F6D106E07F
:102CD0007F1C8742FCDB1BF807100029F8D1DDE9D7
:102CE0000D23A9EB07008146214600F0B1F83044DE
:102CF000C61904E0DDE90D121BF8010B90477F1E99
:102D0000F8D22146484688E058F8040BC4F3025133
:102D10004FF00A0B032900D100B2042900D140B2C0
:102D2000002802DA40422D2102E0210505D52B21A1
:102D30008DF82410012104E006E0E10710D02021E5
:102D4000F6E708AF089113E058F8040BC4F30251FA
:102D50004FF00A0B032900D180B2042900D1C0B280
:102D60000021EEE75946FDF731FB303107F8011D30
:102D70000028F7D1ADEB070000F1200B600702D56A
:102D800024F4803401E04FF0010ADA4502DDAAEBB9
:102D90000B0000E00020824600EB0B010898014484
:102DA000A9EB01000A90E00306D4DDE90D232146DA
:102DB0000A9800F04DF806444FF0000908E009A910
:102DC00011F80900DDE90D12904709F10109761C9F
:102DD00008998945F3DBE0030CD5DDE90D23214695
:102DE0000A9800F035F8064404E0DDE90D123020C1
:102DF0009047761CBAF10001AAF1010AF5DC05E062
:102E0000DDE90D1217F8010B9047761CBBF10001AC
:102E1000ABF1010BF4DC0A982146DDE90D2300F04B
:102E200005F806446D1C97E6092801002DE9F041DC
:102E3000044600251E461746880404D405E039469A
:102E40002020B0476D1C641EF9D52846BDE8F081EE
:102E50002DE9F041044600251E469046C80301D5E1
:102E6000302700E02027880404D505E04146384695
:102E7000B0476D1C641EF9D52846BDE8F0814A684C
:102E8000002A06D00A68531C0B6010704868401E68
:102E900048607047000000000000000001020304C9
:102EA000060708090000000001020304000080007A
:102EB000000C024001000020000C0240020000084B
:102EC000000C024003000080000C024004000002DD
:102ED000000C024005000004000C02400600001037
:102EE000000C024007000040000C024008000008EF
:102EF0000010024022202200222573220022A1FA83
:102F00002200322E20D7D4B6AFBFAA00372E20B46D
:102F1000EDCEF3BCC7C2BC00352E20C1E3B5E3D073
:102F2000A3D7BC00362E20C4A3C4E2C1BFCAE4C8E4
:102F3000EBD0A3D7BC00372E20C4A3C4E2C1BFCAC4
:102F4000E4C8EBD0C5BAC5C6ABD6C300352E20B495
:102F5000ABB8D0C6F7D0C5BAC5C6ABD6C300332E02
:102F600020CEBBD6C3BBB7504944C9E8D6C3003254
:102F70002E20BFD8D1B9504944C9E8D6C30031305A
:102F80002E20BFAAB9D8BCC6CAFDB7A7D6B5C9E816
:102F9000D6C300392E20BFD8D6C6C6F7C4ACC8CF1A
:102FA000D6B5C9E8D6C300342E20B7A7C3C5C8AB71
:102FB000B9D8D6B5C9E8D6C300312E20D1B9C1A63B
:102FC000B5A5CEBBC9E8D6C300332E20CDA8D0C549
:102FD000C9E8D6C300312E20B4ABB8D0C6F7C1BF04
:102FE000B3CCC9E8D6C300342E20CDF8BFDAC9E887
:102FF000D6C300322E20B9A4D7F7B2CECAFDC9E895
:10300000D6C300322E20C1AACBF8B2CECAFDC9E881
:10301000D6C300342E20D5E6BFD5D1B9C1A6BFD8BE
:10302000D6C600352E20B7A7C3C5BFAAB6C8BFD81D
:10303000D6C600332E20C2FDCBD9D5E6BFD5BFD82A
:10304000D6C600382E20BBD6B8B4C4ACC8CF003624
:103050002E20B7A7C3C5BFAAB6C8B1A3B3D6003147
:103060002E20D7D4B6AFB9D800362E2052454D4FBA
:103070005445BCECB2E900312E20B9A4D7F7C4A363
:10308000CABDD1A1D4F100332E20BFD8D6C6C6F711
:10309000B2CECAFD00000000B830000800000020D9
:1030A000700000001C2B0008283100087000002070
:1030B000000600002C2B00080024F400FF00000094
:1030C000D52F000803300008C92F0008E72F00089B
:1030D0004C2F0008242F0008362F0008433000082A
:1030E000932F00087E2F0008010000001000000050
:1030F0005F300008022F000833300008133000084A
:10310000233000084F300008B92F00086F2F000847
:103110005E2F0008A72F0008182F0008693000084C
:083120000C2F00080000000064
:04000005080001C529
:00000001FF
